:100000000C9462000C948A000C948A000C948A0070
:100010000C948A000C948A000C948A000C948A0038
:100020000C948A000C948A000C948A000C948A0028
:100030000C948A000C948A000C948A000C948A0018
:100040000C944B030C948A000C9419030C94F30247
:100050000C948A000C948A000C948A000C948A00F8
:100060000C948A000C948A000000000024002700F1
:100070002A0000000000250028002B0000000000DE
:1000800023002600290004040404040404040202DA
:100090000202020203030303030301020408102007
:1000A0004080010204081020010204081020000012
:1000B0000008000201000003040700000000000027
:1000C0000000950311241FBECFEFD8E0DEBFCDBFE7
:1000D00011E0A0E0B1E0EAEFFBE002C005900D9274
:1000E000A432B107D9F722E0A4E2B1E001C01D9229
:1000F000A933B207E1F710E0C2E6D0E004C02197CF
:10010000FE010E94F505C136D107C9F70E942304FC
:100110000C94FB050C94000096E0899FD0011124FB
:10012000A653BE4F90967C936E935F9791E0919605
:100130009C939197E0913702F091380290913602AA
:10014000992339F0309751F0811108C08091E60170
:100150000994309719F05C968C91FACF0895CF925C
:10016000DF92EF92FF920F931F9396E0899FF00129
:100170001124E653FE4F11A2278D30A12130310505
:1001800051F178F02230310509F451C023303105A6
:1001900009F452C01F910F91FF90EF90DF90CF9024
:1001A00008956623B9F361E070E00E948C002FB7D8
:1001B000F8948091290190912A01A0912B01B0918E
:1001C0002C012FBF8093220290932302A09324023C
:1001D000B0932502DFCF9FB7F894C0902901D0904B
:1001E0002A01E0902B01F0902C019FBF0091220288
:1001F000109123022091240230912502C01AD10AC5
:10020000E20AF30A009134021091350230E020E056
:100210000C151D052E053F0550F462E070E01F919E
:100220000F91FF90EF90DF90CF900C948C006111B4
:10023000B1CF63E070E0F3CF70E060E0F0CFAF9259
:10024000BF92CF92DF92EF92FF920F931F93CF93C3
:10025000DF936C017B018B01040F151FEB015E0125
:10026000AE18BF08C017D10759F06991D601ED91BA
:10027000FC910190F081E02DC6010995892B79F759
:10028000C501DF91CF911F910F91FF90EF90DF900B
:10029000CF90BF90AF900895FC01538D448D252FD2
:1002A00030E0842F90E0821B930B541710F0CF9610
:1002B000089501970895FC01918D828D981761F042
:1002C000A28DAE0FBF2FB11D5D968C91928D9F5F59
:1002D0009F73928F90E008958FEF9FEF0895FC0138
:1002E000918D828D981731F0828DE80FF11D858DEB
:1002F00090E008958FEF9FEF0895FC01918D228D7E
:10030000892F90E0805C9F4F821B91098F73992702
:1003100008958DE291E00E947D0121E0892B09F48E
:1003200020E0822F089580E090E0892B29F00E9440
:10033000890181110C9400000895FC01A48DA80F7F
:10034000B92FB11DA35ABF4F2C91848D90E0019617
:100350008F739927848FA689B7892C93A089B18937
:100360008C91837080648C93938D848D981306C0D8
:100370000288F389E02D80818F7D80830895EF923C
:10038000FF920F931F93CF93DF93EC0181E0888F4F
:100390009B8D8C8D98131AC0E889F989808185FF1F
:1003A00015C09FB7F894EE89FF896083E889F989C1
:1003B00080818370806480839FBF81E090E0DF91C3
:1003C000CF911F910F91FF90EF900895F62E0B8D16
:1003D00010E00F5F1F4F0F731127E02E8C8D8E11D1
:1003E0000CC00FB607FCFACFE889F989808185FF38
:1003F000F5CFCE010E949D01F1CFEB8DEC0FFD2FCB
:10040000F11DE35AFF4FF0829FB7F8940B8FEA89F2
:10041000FB8980818062CFCFCF93DF93EC01888D01
:100420008823B9F0AA89BB89E889F9898C9185FD6F
:1004300003C0808186FD0DC00FB607FCF7CF8C91FD
:1004400085FFF2CF808185FFEDCFCE010E949D0117
:10045000E9CFDF91CF910895833081F028F4813086
:1004600099F08230A9F008958730A9F08830C9F05A
:100470008430B1F4809180008F7D03C08091800032
:100480008F7780938000089584B58F7784BD089519
:1004900084B58F7DFBCF8091B0008F778093B000C3
:1004A00008958091B0008F7DF9CFCF93DF93282FEF
:1004B00030E0F901E255FF4F8491F901E656FF4F14
:1004C000D491F901EA57FF4FC491CC23A1F08111D7
:1004D0000E942C02EC2FF0E0EE0FFF1FE458FF4FBC
:1004E000A591B491EC91ED2381E090E009F480E0D6
:1004F000DF91CF91089580E090E0FACF862F0C94A1
:1005000055021F93CF93DF93282F30E0F901E25576
:10051000FF4F8491F901E656FF4FD491F901EA5754
:10052000FF4FC491CC23A9F0162F81110E942C02F9
:10053000EC2FF0E0EE0FFF1FEE58FF4FA591B491A6
:100540008FB7F894EC91111108C0D095DE23DC939D
:100550008FBFDF91CF911F910895DE2BF8CF862FAB
:10056000642F0C948102CF93DF9390E0FC01E65658
:10057000FF4F24918A579F4FFC0184918823C9F033
:1005800090E0880F991FFC01E859FF4FA591B491A5
:10059000FC01EE58FF4FC591D49161110DC09FB77A
:1005A000F8948C91209582238C938881282328832A
:1005B0009FBFDF91CF910895623051F49FB7F894B7
:1005C0003C91822F809583238C93E8812E2BEFCF53
:1005D0008FB7F894EC912E2B2C938FBFEACF862FF8
:1005E000642F0C94B3021F920F920FB60F92112436
:1005F0002F933F934F935F936F937F938F939F932B
:10060000AF93BF93EF93FF938DE291E00E949D0122
:10061000FF91EF91BF91AF919F918F917F916F91DA
:100620005F914F913F912F910F900FBE0F901F90B0
:1006300018951F920F920FB60F9211242F938F933C
:100640009F93EF93FF93E0913D01F0913E018081F4
:10065000E0914301F091440182FD1BC090818091A3
:1006600046018F5F8F7320914701821741F0E0911F
:100670004601F0E0E35DFE4F958F80934601FF91C8
:10068000EF919F918F912F910F900FBE0F901F9020
:1006900018958081F4CF1F920F920FB60F921124FC
:1006A0002F933F938F939F93AF93BF938091290193
:1006B00090912A01A0912B01B0912C013091280139
:1006C00023E0230F2D3758F50196A11DB11D20936E
:1006D00028018093290190932A01A0932B01B093C4
:1006E0002C018091240190912501A0912601B091C7
:1006F00027010196A11DB11D80932401909325012E
:10070000A0932601B0932701BF91AF919F918F9144
:100710003F912F910F900FBE0F901F90189526E8D4
:10072000230F0296A11DB11DD2CF1092300110925D
:100730002F0188EE93E0A0E0B0E080933101909328
:100740003201A0933301B093340189E091E090939A
:100750002E0180932D0185EC90E090933A018093D7
:10076000390184EC90E090933C0180933B0180EC54
:1007700090E090933E0180933D0181EC90E0909356
:10078000400180933F0182EC90E09093420180937E
:10079000410186EC90E090934401809343011092D4
:1007A000460110924701109248011092490110929F
:1007B000CC011092D0011092CF011092D1018BE1A7
:1007C00091E09093CB018093CA01E6EEF1E01082B4
:1007D000148213821582369682E0E232F807B9F766
:1007E00081E091E090932D0280932C0280E091E0D3
:1007F00090932F0280932E0282E08093300281E05A
:100800008093310283E091E090932B0280932A023F
:100810008AE090E0909333028093320284EF91E07B
:10082000909335028093340210923802109237026E
:10083000109226021092270210922802109229028A
:10084000109236020895789484B5826084BD84B590
:10085000816084BD85B5826085BD85B5816085BDBB
:1008600080916E00816080936E0010928100809173
:1008700081008260809381008091810081608093FB
:100880008100809180008160809380008091B10020
:1008900084608093B1008091B00081608093B0004B
:1008A00080917A00846080937A0080917A008260DF
:1008B00080937A0080917A00816080937A008091A1
:1008C0007A00806880937A001092C100E0913D0127
:1008D000F0913E0182E08083E0913901F0913A018C
:1008E0001082E0913B01F0913C018FEC80831092EB
:1008F0004501E0914101F091420186E08083E09161
:100900003F01F0914001808180618083E0913F014F
:10091000F0914001808188608083E0913F01F091F7
:100920004001808180688083E0913F01F091400127
:1009300080818F7D8083412C512C3201439422246D
:100940002A94322C50E0C52E50E0D52E51E0509321
:1009500036028FB7F8944091290150912A01609195
:100960002B0170912C018FBF80912602909127025C
:10097000A0912802B0912902481B590B6A0B7B0BEE
:100980008091320290913302B0E0A0E08417950785
:10099000A607B70708F017C1C0E080913002C8175A
:1009A00060F4E0912C02F0912D02EC0FF11D62E059
:1009B00080810E94B302CF5FF0CF912C80913102F1
:1009C000981608F05FC0092D10E0E0912E02F0911A
:1009D0002F02E00FF11F61E080810E94B302E091DD
:1009E0002E02F0912F02E00FF11F60E080810E9443
:1009F0008102D301C201092C04C0880F991FAA1FCC
:100A0000BB1F0A94D2F75C017C01E094F094812C26
:100A1000809130028816F8F4C82DD0E0E0912C02C5
:100A2000F0912D02EC0FFD1F80810E94550224964B
:100A3000CC0FDD1FC653DE4F892B41F4888199818D
:100A40008A299B29998388838394E2CF888199811D
:100A50008E219F21F7CFE0912E02F0912F02E00F1F
:100A6000F11F61E080810E94810280912E029091AD
:100A70002F02080F191F60E0F80180810E94B30265
:100A800093949CCFCAECD1E0FE01878D90A1892B75
:100A900021F4148E368E258E11A2369652E0E63061
:100AA000F50799F710E080913002181708F053C04D
:100AB00000E0E12EF12CEE0CFF1CC7018E529E4F80
:100AC0007C0120913102021708F043C0F7016081D8
:100AD0007181002E02C0769567950A94E2F7129F05
:100AE00090011124200F311DEAECF1E080E0458DEA
:100AF000568D2417350709F476C08F5F36968A30F5
:100B0000B1F760FF24C0EAECF1E090E080E0448DB2
:100B1000411118C0E0912A02F0912B02E20FF31F5D
:100B2000408156E0589FF001599FF00D1124E65383
:100B3000FE4F448F368F258F10A2178E61E00E94E2
:100B4000AF0005C0019636968A30910501F70F5F18
:100B5000B8CF1F5FA8CF80E099A19111892F269669
:100B600092E0C630D907C1F79FB7F89440912901A8
:100B700050912A0160912B0170912C019FBF4093ED
:100B8000260250932702609328027093290288233B
:100B9000D1F08091EB018823B1F08091E90190912F
:100BA000EA01019781F46091E60161110FC0C1145F
:100BB000D10409F4CBCE0E948901882309F4C6CE62
:100BC0000E940000C3CE10923602F1CF8DE291E078
:100BD0000E94BF0142E050E061E271E08DE291E0ED
:100BE0000E941F01E4CF6170AACFEE0FFF1F059096
:0A0BF000F491E02D0994F894FFCF72
:100BFA00020807414200000000BF011F014C010C1E
:100C0A00027D015B016F0100000000EF02AF027E6E
:040C1A00020D0A00BD
:00000001FF
