:100000000C94D8000C9400010C9400010C94000195
:100010000C9400010C9400010C9400010C9400015C
:100020000C9400010C9400010C9400010C9400014C
:100030000C9400010C9400010C9400010C9400013C
:100040000C9425050C9400010C94F3040C94CD043D
:100050000C9400010C9400010C9400010C9400011C
:100060000C9400010C940001005EBCE2613FDD8352
:10007000C29C7E20A3FD1F419DC3217FFCA2401E88
:100080005F01E3BD3E6082DC237D9FC1421CFEA078
:10009000E1BF5D0380DE3C62BEE0025CDF81633D68
:1000A0007C22C09E1D43A1FF4618FAA427799BC558
:1000B00084DA3866E5BB5907DB856739BAE4065848
:1000C0001947A5FB7826C49A653BD987045AB8E638
:1000D000A7F91B45C6987A24F8A6441A99C7257B28
:1000E0003A6486D85B05E7B98CD2306EEDB3510F18
:1000F0004E10F2AC2F7193CD114FADF3702ECC9208
:10010000D38D6F31B2EC0E50AFF1134DCE90722CF7
:100110006D33D18F0C52B0EE326C8ED0530DEFB1E7
:10012000F0AE4C1291CF2D73CA947628ABF51749D7
:100130000856B4EA6937D58B5709EBB536688AD4C7
:1001400095CB2977F4AA4816E9B7550B88D6346AB7
:100150002B7597C94A14F6A8742AC896154BA9F7A7
:10016000B6E80A54D7896B35000000002500280046
:100170002B0000000000240027002A0000000000DF
:1001800023002600290004040404040404040202D9
:100190000202020203030303030301020408102006
:1001A00040800102040810200102040810206F059D
:1001B00011241FBECFEFD8E0DEBFCDBF11E0A0E01D
:1001C000B1E0EEE7F6E102C005900D92A638B10766
:1001D000D9F722E0A6E8B1E001C01D92AD34B20724
:1001E000E1F710E0C8EDD0E004C02197FE010E94C5
:1001F000370BC73DD107C9F70E9418060C943D0B79
:100200000C9400000895AF92BF92CF92DF92EF92CC
:10021000FF920F931F93CF93DF936C017B018B01B0
:10022000040F151FEB015E01AE18BF08C017D10700
:1002300059F06991D601ED91FC910190F081E02D8A
:10024000C6010995892B79F7C501DF91CF911F91DF
:100250000F91FF90EF90DF90CF90BF90AF900895F7
:10026000FC01538D448D252F30E0842F90E0821BBC
:10027000930B541710F0CF96089501970895FC0141
:10028000918D828D981761F0A28DAE0FBF2FB11D99
:100290005D968C91928D9F5F9F73928F90E00895F1
:1002A0008FEF9FEF0895FC01918D828D981731F0AB
:1002B000828DE80FF11D858D90E008958FEF9FEFFF
:1002C0000895FC01918D228D892F90E0805C9F4FD5
:1002D000821B91098F73992708958FE891E00E94FE
:1002E000610121E0892B09F420E0822F089580E04C
:1002F00090E0892B29F00E946D0181110C9400007F
:100300000895FC01A48DA80FB92FB11DA35ABF4FAA
:100310002C91848D90E001968F739927848FA68904
:10032000B7892C93A089B1898C91837080648C9358
:10033000938D848D981306C00288F389E02D808107
:100340008F7D80830895EF92FF920F931F93CF9339
:10035000DF93EC0181E0888F9B8D8C8D98131AC000
:10036000E889F989808185FF15C09FB7F894EE89E7
:10037000FF896083E889F989808183708064808344
:100380009FBF81E090E0DF91CF911F910F91FF908F
:10039000EF900895F62E0B8D10E00F5F1F4F0F7337
:1003A0001127E02E8C8D8E110CC00FB607FCFACFF2
:1003B000E889F989808185FFF5CFCE010E9481010E
:1003C000F1CFEB8DEC0FFD2FF11DE35AFF4FF082C3
:1003D0009FB7F8940B8FEA89FB8980818062CFCF29
:1003E000CF93DF93EC01888D8823B9F0AA89BB896C
:1003F000E889F9898C9185FD03C0808186FD0DC057
:100400000FB607FCF7CF8C9185FFF2CF808185FF77
:10041000EDCFCE010E948101E9CFDF91CF91089508
:100420003FB7F89480918B0190918C01A0918D0140
:10043000B0918E0126B5A89B05C02F3F19F00196FB
:10044000A11DB11D3FBFBA2FA92F982F8827BC012E
:10045000CD01620F711D811D911D42E0660F771F56
:10046000881F991F4A95D1F708958F929F92AF9256
:10047000BF92CF92DF92EF92FF924B015C010E94FC
:1004800010026B017C010E9410026C197D098E091B
:100490009F09683E734081059105A8F321E0821A07
:1004A0009108A108B10888EEC80E83E0D81EE11CAF
:1004B000F11C81149104A104B10429F7FF90EF907D
:1004C000DF90CF90BF90AF909F908F900895DC0108
:1004D00080E0615038F0ED91E827F0E0E859FF4FF7
:1004E0008491F7CF0895DC012C911196ED91FC9148
:1004F000F8948181822B81839281322F30959323CE
:10050000928387E090E00197F1F7818183238183D3
:1005100083E290E00197F1F790817894EFECF0E0BE
:100520003197F1F7922381E009F480E00895EF928A
:10053000FF920F931F93CF93DF937C0108E010E0AD
:10054000C0E0D1E0C7010E9473028111CD2BDD0F05
:1005500001501109B9F78C2FDF91CF911F910F91A5
:10056000FF90EF900895FC0190810180F281E02DD1
:10057000292F209560FF14C0F89482818223828302
:100580008181892B8183A3E2B0E01197F1F7828109
:10059000982B9283789487ED90E00197F1F7089576
:1005A000F8948281822382838181892B8183AFEFBA
:1005B000B0E01197F1F78281982B928378948FE0C5
:1005C00090E0EBCFDF92EF92FF920F931F93CF93C8
:1005D000DF93EC01D62EE42E08E010E0FF24F39424
:1005E00061E08D2D8F2109F460E0CE010E94B302FD
:1005F000FF0C01501109A1F7E11010C0F894E98136
:10060000FA8191818881809589238183E981FA81AA
:10061000928188818095892382837894DF91CF911C
:100620001F910F91FF90EF90DF900895EF92FF924E
:100630000F931F93CF93DF938C017B0140E065E51F
:100640000E94E202E70188E0E80EF11C699140E0B7
:10065000C8010E94E202CE15DF05C1F7DF91CF91FC
:100660001F910F91FF90EF900895FC019081018000
:10067000F281E02DF8948181292F209582238183B6
:1006800078943DE743E050E0315029F1DA011197C9
:10069000F1F780818923C1F3F894828182238283D8
:1006A0008181892B81837894ABE7B7E01197F1F7CB
:1006B000F894818182238183A3E1B1E01197F1F75E
:1006C0008081982381E009F080E07894E3E6F6E009
:1006D0003197F1F7089580E00895EF92FF920F931C
:1006E0001F93CF93DF937C018B01CCE2D2E08D810D
:1006F0009E810E943503B7018D819E810E94160361
:1007000040E06EEB8D819E810E94E2028D819E8190
:100710000E949702F80180838D819E810E9497023A
:10072000F80181838D819E810E949702F801828366
:100730008D819E810E949702F80183838D819E8125
:100740000E949702F80184838D819E810E94970206
:10075000F80185838D819E810E949702F80186832E
:100760008D819E810E949702F80187838D819E81F1
:100770000E949702F80180878D819E81DF91CF9141
:100780001F910F91FF90EF900C943503CF93DF935F
:10079000CDB7DEB729970FB6F894DEBF0FBECDBF39
:1007A000BE016F5F7F4F0E946D0368E0CE0101962E
:1007B0000E9467029985891306C08D818F33A9F045
:1007C00020F48F31A1F080E007C08F3521F08F3702
:1007D000D1F78CE001C08BE029960FB6F894DEBF0C
:1007E0000FBECDBFDF91CF9108958AE0F5CF89E0AC
:1007F000F3CFBF92CF92DF92EF92FF920F931F93AE
:10080000CF93DF93EC01B62EC72EED84EE2081F05E
:100810001B861D861C8680E02396EB2DFC2D9F01F8
:10082000285F3F4F999191932E173F07D9F707C043
:100830000E94350381110DC01B861D861C86DF9129
:10084000CF911F910F91FF90EF90DF90CF90BF90CD
:10085000089540E060EFCE010E94E202D12C01E059
:1008600011E0CE010E947302F82ECE010E947302A5
:1008700091E0F9120EC0813049F5113448F2EB864F
:10088000E11002C081E08D878B81882309F281E02D
:10089000C3CFED2DF0E0F8120FC08B851817A0F430
:1008A000DE01AE0FBF1F13968C91802379F4F12CDB
:1008B000193008F41C87E12EEC0FFD1F8381902F67
:1008C0009095892383830AC08113F1CFFE01ED0D3A
:1008D000F11D8381802B8383FF24F3946F2DCE0140
:1008E0000E94B3021F5F000F11F4D39401E087E070
:1008F0008D1508F0B6CFC1CFFC0101900020E9F7BB
:100900003197AF01481B590BBC018FE891E00C9463
:1009100003018F929F92AF92BF920F931F93CF9339
:10092000DF93CDB7DEB7A1970FB6F894DEBF0FBE49
:10093000CDBF19A2423008F44AE08E010F5D1F4F6F
:10094000842E912CB12CA12CA50194010E94150B91
:10095000E62FB901CA01EA30F4F4E05DD801EE9364
:100960008D01232B242B252B79F790E080E0109725
:1009700019F0CD010E947C04A1960FB6F894DEBF59
:100980000FBECDBFDF91CF911F910F91BF90AF9060
:100990009F908F900895E95CE1CF1F920F920FB660
:1009A0000F9211242F933F934F935F936F937F93F5
:1009B0008F939F93AF93BF93EF93FF938FE891E053
:1009C0000E948101FF91EF91BF91AF919F918F9113
:1009D0007F916F915F914F913F912F910F900FBE3B
:1009E0000F901F9018951F920F920FB60F9211241F
:1009F0002F938F939F93EF93FF93E0919F01F0913B
:100A0000A0018081E091A501F091A60182FD1BC0AB
:100A100090818091A8018F5F8F732091A901821727
:100A200041F0E091A801F0E0E157FE4F958F8093EF
:100A3000A801FF91EF919F918F912F910F900FBE81
:100A40000F901F9018958081F4CF1F920F920FB6D0
:100A50000F9211242F933F938F939F93AF93BF9344
:100A60008091870190918801A0918901B0918A01BC
:100A70003091860123E0230F2D3758F50196A11DF3
:100A8000B11D209386018093870190938801A093E4
:100A90008901B0938A0180918B0190918C01A09182
:100AA0008D01B0918E010196A11DB11D80938B0126
:100AB00090938C01A0938D01B0938E01BF91AF9163
:100AC0009F918F913F912F910F900FBE0F901F908C
:100AD000189526E8230F0296A11DB11DD2CFCF9302
:100AE000DF93109292011092910188EE93E0A0E0C2
:100AF000B0E08093930190939401A0939501B093FB
:100B0000960184E091E09093900180938F0185ECB1
:100B100090E090939C0180939B0184EC90E09093F3
:100B20009E0180939D0180EC90E09093A0018093C2
:100B30009F0181EC90E09093A2018093A10182EC4F
:100B400090E09093A4018093A30186EC90E09093B1
:100B5000A6018093A5011092A8011092A9011092FC
:100B6000AA011092AB0141EA51E0FA0164918DE8CB
:100B700091E0FC0124912223C1F030E0220F331FC9
:100B8000F901EE58FE4FA591B491F901E859FE4FD5
:100B9000C591D4917FB7F8943C91262F20953223AC
:100BA0003C933881232328837FBFFA0144914093EB
:100BB0003F02FC018491E82FF0E0EE0FFF1FE458A4
:100BC000FE4F859194919093410280934002109240
:100BD0004A0210924C0210924B021092490210925B
:100BE000480210924702109246021092450210925B
:100BF0004402109243021092420282E091E09093EC
:100C00003E0280933D028FE392E090933202809304
:100C100031021092300210922C0289E080932D0252
:100C200081E080932E0280932F02DF91CF9108956F
:100C3000CF93DF93CDB7DEB761970FB6F894DEBFE1
:100C40000FBECDBF789484B5826084BD84B58160C9
:100C500084BD85B5826085BD85B5816085BD809187
:100C60006E00816080936E001092810080918100FF
:100C700082608093810080918100816080938100F7
:100C8000809180008160809380008091B1008460B9
:100C90008093B1008091B00081608093B00080911A
:100CA0007A00846080937A0080917A0082608093D9
:100CB0007A0080917A00816080937A0080917A0036
:100CC000806880937A001092C100E0919F01F091BA
:100CD000A00182E08083E0919B01F0919C01108251
:100CE000E0919D01F0919E018FEC80831092A7010D
:100CF000E091A301F091A40186E08083E091A1013D
:100D0000F091A201808180618083E091A101F09146
:100D1000A201808188608083E091A101F091A2010D
:100D2000808180688083E091A101F091A20180819F
:100D30008F7D808382E191E00E947C0488E391E0D2
:100D40000E947C04E0913102F091320213861586F4
:100D500014861286118610861782168215821482D6
:100D600013821092300201E0BE01665F7F4F8091D6
:100D70003102909132020E94F903882309F45BC08A
:100D800067E0CE010A960E94670299898913ECCF29
:100D900080912C02811128C0809131029091320201
:100DA0000E943503BE01665F7F4F809131029091B2
:100DB00032020E94160340E064EB80913102909170
:100DC00032020E94E20280913102909132020E942E
:100DD0007302182F80913102909132020E943503E4
:100DE000111102C000932C02BE016F5F7F4FCE0134
:100DF0000A960E946D0310912D028A85803109F4B4
:100E0000D4C1CE010A960E94C603811750F4809186
:100E10002D0280932D02809130028F5F80933002EB
:100E2000A3CF8A85803111F489E0F3CFCE010A96F1
:100E30000E94C603EECF00E010E08BE391E00E9439
:100E40007C0480913102909132020E94350340E08F
:100E50006CEC80913102909132020E94E20240914A
:100E60002C0264E480913102909132020E94E202ED
:100E700080912E02882389F080912D028A3009F416
:100E800084C08B3009F486C0893009F088C06EE5D3
:100E900070E080E090E00E94350286E591E00E94DB
:100EA0007C0488E391E00E947C048BE591E00E9441
:100EB0007C04E0913102F09132021386158614868B
:100EC000128611861086178216821582148213826A
:100ED000BE01665F7F4F80913102909132020E9485
:100EE000F903882329F067E0CE010A960E94670281
:100EF000BE016F5F7F4FCE010A960E946D0368E0CE
:100F0000CE0101960E9467029985891328C1A980A4
:100F1000BA808A85823209F447C0883209F444C015
:100F2000803109F049C0F8848F812F2D281B330BA5
:100F3000B901072E000C880B990B0E94EE092B01BA
:100F40003C016F2D70E090E080E00E94EC099B0175
:100F5000AC01C301B2010E944B096B017C01B501D8
:100F600075956795072E000C880B990B0E94EE096A
:100F700020E030E040E85EE30E94D9089B01AC012C
:100F8000C701B6010E94DA0841C06CEB70E080E056
:100F900090E081CF67E771E080E090E07CCF6EEE7B
:100FA00072E080E090E077CF8D818F3309F43FC00D
:100FB000E8F48F3109F44BC0A7019601C701B601CF
:100FC0000E94100B46015701882309F4D0C089E71D
:100FD00091E00E947C040115110529F00E946D0129
:100FE00081110E9400006401750127CF8F3589F0BF
:100FF0008F3711F7B501BB0C880B990B0E94EE09D6
:1010000020E030E040E85DE30E94A30A6B017C0130
:10101000D3CFB50175956795072E000C880B990BFA
:101020000E94EE0920E030E040E05EE3EDCFB50144
:101030007595679575956795072E000C880B990B2C
:101040000E94EE0920E030E040E85EE3DDCFB5012C
:1010500023E0759567952A95E1F7072E000C880B1C
:10106000990B0E94EE0920E030E040E05FE3CCCF36
:101070002FEF3FEF4FE75FE4C701B6010E949E0AE2
:1010800018161CF481E891E08DC02FEF3FEF4FE779
:101090005FECC701B6010E94460987FDF3CF20E04F
:1010A00030E0A901C701B6010E94460987FF09C0C7
:1010B0006DE28FE891E00E94A301F7FAF094F7F84F
:1010C000F0942AE037ED43EA5BE3C701B6010E94E2
:1010D000DA082B013C010E94BD096B017C010E94D2
:1010E000EC099B01AC01C301B2010E94D9082B019C
:1010F0003C014AE0C701B6010E9489046EE28FE814
:1011000091E00E94A30120E030E040E251E4C301FD
:10111000B2010E94A30A2B013C010E94BD096B0190
:10112000F12CE12C4AE0C701B6010E948904C701F5
:10113000B6010E94EC099B01AC01C301B2010E94FF
:10114000D90820E030E040E251E40E94A30A0E9466
:10115000BD0990E080E04AE00E9489043CCF46014E
:101160005701C12CD12C8EEFE82E82ECF82E2601EF
:101170003701E89477F82FEF3FEF4FE75FE7C301C0
:10118000B2010E94100B811173CF2FEF3FEF4FE799
:101190005FE7C301B2010E94460918160CF068CF40
:1011A0008DE791E00E947C0416CF1A3008F02FCE14
:1011B0003BCE5058BB27AA270E94F1080C94640A22
:1011C0000E94560A38F00E945D0A20F039F49F3FD1
:1011D00019F426F40C94530A0EF4E095E7FB0C94F2
:1011E0004D0AE92F0E94750A58F3BA176207730770
:1011F0008407950720F079F4A6F50C94970A0EF46D
:10120000E0950B2EBA2FA02D0B01B90190010C0116
:10121000CA01A0011124FF27591B99F0593F50F42E
:10122000503E68F11A16F040A22F232F342F442786
:10123000585FF3CF469537952795A795F04053957E
:10124000C9F77EF41F16BA0B620B730B840BBAF04E
:101250009150A1F0FF0FBB1F661F771F881FC2F7B9
:101260000EC0BA0F621F731F841F48F487957795CD
:101270006795B795F7959E3F08F0B0CF9395880F87
:1012800008F09927EE0F9795879508950E94290AEF
:1012900008F481E008950E945F090C94640A0E949A
:1012A0005D0A58F00E94560A40F029F45F3F29F089
:1012B0000C944D0A51110C94980A0C94530A0E94F4
:1012C000750A68F39923B1F3552391F3951B550BD8
:1012D000BB27AA2762177307840738F09F5F5F4F09
:1012E000220F331F441FAA1FA9F335D00E2E3AF048
:1012F000E0E832D091505040E695001CCAF72BD060
:10130000FE2F29D0660F771F881FBB1F26173707B0
:101310004807AB07B0E809F0BB0B802DBF01FF27E2
:1013200093585F4F3AF09E3F510578F00C944D0A68
:101330000C94980A5F3FE4F3983ED4F38695779532
:101340006795B795F7959F5FC9F7880F911D96959B
:10135000879597F90895E1E0660F771F881FBB1FF7
:10136000621773078407BA0720F0621B730B840BA4
:10137000BA0BEE1F88F7E09508950E947D0A88F069
:101380009F5798F0B92F9927B751B0F0E1F0660F49
:10139000771F881F991F1AF0BA95C9F714C0B1308A
:1013A00091F00E94970AB1E008950C94970A672F74
:1013B000782F8827B85F39F0B93FCCF386957795B9
:1013C0006795B395D9F73EF49095809570956195A2
:1013D0007F4F8F4F9F4F0895E89409C097FB3EF4CD
:1013E00090958095709561957F4F8F4F9F4F992372
:1013F000A9F0F92F96E9BB279395F69587957795F0
:101400006795B795F111F8CFFAF4BB0F11F460FFAF
:101410001BC06F5F7F4F8F4F9F4F16C0882311F007
:1014200096E911C0772321F09EE8872F762F05C01B
:10143000662371F096E8862F70E060E02AF09A95B6
:10144000660F771F881FDAF7880F9695879597F9AB
:101450000895990F0008550FAA0BE0E8FEEF161645
:101460001706E807F907C0F012161306E407F50798
:1014700098F0621B730B840B950B39F40A2661F00C
:10148000232B242B252B21F408950A2609F4A140AF
:10149000A6958FEF811D811D089597F99F6780E8BC
:1014A00070E060E008959FEF80EC089500240A94B6
:1014B0001616170618060906089500240A9412162F
:1014C0001306140605060895092E0394000C11F462
:1014D000882352F0BB0F40F4BF2B11F460FF04C00F
:1014E0006F5F7F4F8F4F9F4F089557FD9058440F68
:1014F000551F59F05F3F71F04795880F97FB991F73
:1015000061F09F3F79F0879508951216130614062F
:10151000551FF2CF4695F1DF08C0161617061806BC
:10152000991FF1CF86957105610508940895E89497
:10153000BB2766277727CB0197F908950E94290AD0
:1015400008F48FEF08950E94B60A0C94640A0E9472
:10155000560A38F00E945D0A20F0952311F00C9491
:101560004D0A0C94530A11240C94980A0E94750A8F
:1015700070F3959FC1F3950F50E0551F629FF001E6
:10158000729FBB27F00DB11D639FAA27F00DB11DFF
:10159000AA1F649F6627B00DA11D661F829F222788
:1015A000B00DA11D621F739FB00DA11D621F839F0F
:1015B000A00D611D221F749F3327A00D611D231FE5
:1015C000849F600D211D822F762F6A2F11249F5733
:1015D00050409AF0F1F088234AF0EE0FFF1FBB1F36
:1015E000661F771F881F91505040A9F79E3F5105F5
:1015F00080F00C944D0A0C94980A5F3FE4F3983EF7
:10160000D4F3869577956795B795F795E7959F5F9E
:10161000C1F7FE2B880F911D9695879597F9089530
:101620000E94290A880B990B0895A1E21A2EAA1B81
:10163000BB1BFD010DC0AA1FBB1FEE1FFF1FA21782
:10164000B307E407F50720F0A21BB30BE40BF50B7F
:10165000661F771F881F991F1A9469F76095709508
:10166000809590959B01AC01BD01CF010895EE0FCF
:0E167000FF1F0590F491E02D0994F894FFCF30
:10167E0000000000A30103013001F00161013F01F0
:10168E00530144616C6C61732054656D70657261B9
:10169E007475726520494320436F6E74726F6C20AF
:1016AE004C696272617279000D0A0052657175653E
:1016BE007374696E672074656D706572617475728E
:1016CE0065732E2E2E00444F4E450054656D706589
:1016DE0072617475726520666F72204465766963F7
:1016EE006520312069733A20006E616E00696E6666
:0616FE00006F766600009B
:00000001FF
