:100000000C9458000C9480000C9480000C94800098
:100010000C9480000C9480000C9480000C94800060
:100020000C9480000C9480000C9480000C94800050
:100030000C9480000C9480000C9480000C94800040
:100040000C946E030C9480000C943C030C941603E7
:100050000C9480000C9480000C9480000C94800020
:100060000C94B8030C9480000000000025002800C8
:100070002B00040404040404040402020202020229
:10008000030303030303010204081020408001025C
:1000900004081020010204081020000000080002DB
:1000A0000100000304070000000000000000D70466
:1000B00011241FBECFEFD8E0DEBFCDBF11E0A0E01E
:1000C000B1E0EAE8FDE002C005900D92AE39B1075B
:1000D000D9F723E0AEE9B1E001C01D92A430B20728
:1000E000E1F710E0C8E5D0E004C02197FE010E94CE
:1000F000BD06C735D107C9F70E9410050C94C30689
:100100000C94000090E0FC01E656FF4F2491FC01A6
:10011000EA57FF4F3491FC01EE58FF4FE491EE2374
:10012000B1F0222339F02330E9F090F4213001F1CD
:10013000223011F1F0E0EE0FFF1FE859FF4FA591BB
:10014000B4918FB7F894EC913E2B3C938FBF0895F8
:100150002730A9F02830C9F0243061F78091800061
:100160008F7D03C0809180008F7780938000E2CFE5
:1001700084B58F7784BDDECF84B58F7DFBCF809132
:10018000B0008F778093B000D5CF8091B0008F7D85
:10019000F9CF08950895AF92BF92CF92DF92EF9278
:1001A000FF920F931F93CF93DF936C017B018B0121
:1001B000040F151FEB015E01AE18BF08C017D10771
:1001C00059F06991D601ED91FC910190F081E02DFB
:1001D000C6010995892B79F7C501DF91CF911F9150
:1001E0000F91FF90EF90DF90CF90BF90AF90089568
:1001F000FC01538D448D252F30E0842F90E0821B2D
:10020000930B541710F0CF96089501970895FC01B1
:10021000918D828D981761F0A28DAE0FBF2FB11D09
:100220005D968C91928D9F5F9F73928F90E0089561
:100230008FEF9FEF0895FC01918D828D981731F01B
:10024000828DE80FF11D858D90E008958FEF9FEF6F
:100250000895FC01918D228D892F90E0805C9F4F45
:10026000821B91098F73992708958BE592E00E9474
:10027000290121E0892B09F420E0822F089580E0F4
:1002800090E0892B29F00E94350181110C94000027
:100290000895FC01A48DA80FB92FB11DA35ABF4F1B
:1002A0002C91848D90E001968F739927848FA68975
:1002B000B7892C93A089B1898C91837080648C93C9
:1002C000938D848D981306C00288F389E02D808178
:1002D0008F7D80830895EF92FF920F931F93CF93AA
:1002E000DF93EC0181E0888F9B8D8C8D98131AC071
:1002F000E889F989808185FF15C09FB7F894EE8958
:10030000FF896083E889F9898081837080648083B4
:100310009FBF81E090E0DF91CF911F910F91FF90FF
:10032000EF900895F62E0B8D10E00F5F1F4F0F73A7
:100330001127E02E8C8D8E110CC00FB607FCFACF62
:10034000E889F989808185FFF5CFCE010E944901B6
:10035000F1CFEB8DEC0FFD2FF11DE35AFF4FF08233
:100360009FB7F8940B8FEA89FB8980818062CFCF99
:10037000CF93DF93EC01888D8823B9F0AA89BB89DC
:10038000E889F9898C9185FD03C0808186FD0DC0C7
:100390000FB607FCF7CF8C9185FFF2CF808185FFE8
:1003A000EDCFCE010E944901E9CFDF91CF910895B1
:1003B0003FB7F8948091060290910702A09108023D
:1003C000B091090226B5A89B05C02F3F19F00196F0
:1003D000A11DB11D3FBFBA2FA92F982F8827BC019F
:1003E000CD01620F711D811D911D42E0660F771FC7
:1003F000881F991F4A95D1F7089585ED8093BC0019
:100400008091BC0084FDFCCF1092360208952091AB
:10041000DE01260F3327331F21323105ECF4209102
:100420003602FC0190E080E0243069F082E008951B
:10043000A091DE012191AC0142545E4FA40FB52F73
:10044000B11D2C930196861798F38091DE01680FF9
:100450006093DE0180E0089581E008950895E091C1
:100460000F0280910E02E81730F4F0E0E256FE4FE2
:10047000808190E008958FEF9FEF089590910F0293
:1004800080910E022FEF3FEF981748F4E92FF0E02C
:10049000E256FE4F208130E09F5F90930F02C9012A
:1004A000089580910E0290910F02891B990B089577
:1004B000CF92DF92EF92FF920F931F93CF93DF9330
:1004C0007C01CB018A0120913702222389F0EB01C4
:1004D0006B01C40ED51ECC15DD0569F06991D701FD
:1004E000ED91FC910190F081E02DC7010995F3CFCA
:1004F000642F0E940702C801DF91CF911F910F91D5
:10050000FF90EF90DF90CF900895CF93DF931F92ED
:10051000CDB7DEB76983209137022223F9F020910D
:100520005A02203258F021E030E0FC01338322836C
:1005300090E080E00F90DF91CF9108958091380294
:10054000E82FF0E0E75CFD4F998190838F5F809307
:10055000380280935A0281E090E0ECCF61E0CE0156
:1005600001960E940702F7CF90E080E00895FC0119
:1005700001900020E9F73197AF01481B590BBC01EE
:100580008BE592E00C94CB008F929F92AF92BF923A
:100590000F931F93CF93DF93CDB7DEB7A1970FB61D
:1005A000F894DEBF0FBECDBF19A2423008F44AE076
:1005B0008E010F5D1F4F842E912CB12CA12CA50113
:1005C00094010E949B06E62FB901CA01EA30F4F4B7
:1005D000E05DD801EE938D01232B242B252B79F799
:1005E00090E080E0109719F0CD010E94B702A1962B
:1005F0000FB6F894DEBF0FBECDBFDF91CF911F9134
:100600000F91BF90AF909F908F900895E95CE1CFDC
:10061000CF93DF930E94B702EC0184E291E00E9445
:10062000B7028C0F9D1FDF91CF9108951F920F92FB
:100630000FB60F9211242F933F934F935F936F93B5
:100640007F938F939F93AF93BF93EF93FF938BE52C
:1006500092E00E944901FF91EF91BF91AF919F916C
:100660008F917F916F915F914F913F912F910F905B
:100670000FBE0F901F9018951F920F920FB60F92FA
:1006800011242F938F939F93EF93FF93E0916B022D
:10069000F0916C028081E0917102F091720282FD12
:1006A0001BC09081809174028F5F8F7320917502BF
:1006B000821741F0E0917402F0E0E55AFD4F958F0A
:1006C00080937402FF91EF919F918F912F910F90E2
:1006D0000FBE0F901F9018958081F4CF1F920F923C
:1006E0000FB60F9211242F933F938F939F93AF9345
:1006F000BF938091020290910302A0910402B091F5
:1007000005023091010223E0230F2D3758F50196A1
:10071000A11DB11D20930102809302029093030258
:10072000A0930402B0930502809106029091070203
:10073000A0910802B09109020196A11DB11D8093FC
:10074000060290930702A0930802B0930902BF919A
:10075000AF919F918F913F912F910F900FBE0F906E
:100760001F90189526E8230F0296A11DB11DD2CF28
:100770001F920F920FB60F9211242F933F934F9316
:100780005F936F937F938F939F93AF93BF93EF93F9
:10079000FF938091B900887F803609F44AC0F0F554
:1007A000883209F4A7C018F5803109F49BC0B8F469
:1007B000882309F4F9C0883009F494C0FF91EF91BF
:1007C000BF91AF919F918F917F916F915F914F9169
:1007D0003F912F910F900FBE0F901F901895883169
:1007E00009F488C0803251F78093340214C08034F9
:1007F00009F49DC040F48033B9F38833F9F680934F
:10080000340285ECB0C0803509F485C0883509F420
:1008100096C0883499F60E94FD01D0CF883909F43A
:100820008CC038F5883729F050F4883611F08037BD
:1008300029F683E0809336021092000257C0883870
:1008400009F47BC0803919F0803809F0B7CF809166
:100850000002803208F071C0E091000281E08E0F4A
:10086000809300028091BB00F0E0E052FE4F808355
:100870003DC0803B39F0E0F4803A09F479C0883A11
:1008800009F09CCF84E0809336021092DF01109231
:10089000DE01E0910C02F0910D0209958091DE01DC
:1008A00081110FC081E08093DE011092BE0109C06A
:1008B000803C09F4A6CF883C09F4A3CF883B09F01B
:1008C0007DCFE091DF0181E08E0F8093DF01F0E0CA
:1008D000E254FE4F80818093BB009091DF018091B4
:1008E000DE0129C0809111028093BB0085EC8093CA
:1008F000BC0064CF9091330280913202981758F572
:10090000E091330281E08E0F80933302F0E0EE5EDF
:10091000FD4F8081E9CFE091330281E08E0F80931B
:1009200033028091BB00F0E0EE5EFD4F808390913A
:100930003302809132029817C8F285E8D8CFE0914F
:10094000330281E08E0F809333028091BB00F0E090
:10095000EE5EFD4F80838091350281115CCF81E096
:100960008093100284EA8093BC001092360226CF56
:1009700085EC8093BC001092360280910002803298
:1009800030F4E0910002F0E0E052FE4F10826091FE
:10099000000270E0E0910A02F0910B0280EE91E01B
:1009A0000995109200020ACF1092340234CFEBE581
:1009B000F2E01382128288EE93E0A0E0B0E084833C
:1009C0009583A683B78324E031E03183208325EC2F
:1009D00030E03587248724EC30E03787268720EC09
:1009E00030E0318B208B21EC30E0338B228B22ECFA
:1009F00030E0358B248B26EC30E0378B268B118E44
:100A0000128E138E148EE8EFF2E01382128284832A
:100A10009583A683B78386E191E0918380830895CF
:100A2000789484B5826084BD84B5816084BD85B5C9
:100A3000826085BD85B5816085BD80916E008160D5
:100A400080936E001092810080918100826080937B
:100A5000810080918100816080938100809180007D
:100A60008160809380008091B10084608093B100A8
:100A70008091B00081608093B00080917A008460A2
:100A800080937A0080917A00826080937A008091CE
:100A90007A00816080937A0080917A0080688093E8
:100AA0007A001092C10010920F0210920E02109262
:100AB000380210925A021092360281E08093350279
:100AC0001092100282E10E94820083E10E94820063
:100AD0008091B9008E7F8093B9008091B9008D7F9D
:100AE0008093B90088E48093B80085E48093BC00CB
:100AF00089EC90E090930D0280930C028AEC90E0D8
:100B000090930B0280930A02E0916B02F0916C02C9
:100B100082E08083E0916702F09168021082E091A8
:100B20006902F0916A028FEC808310927302E09167
:100B30006F02F091700286E08083E0916D02F09187
:100B40006E02808180618083E0916D02F0916E027F
:100B5000808188608083E0916D02F0916E028081D7
:100B600080688083E0916D02F0916E0280818F7DBC
:100B7000808387E291E00E940803BB24B39422E0C3
:100B8000A22E99249A9435EE832E45EC342EC0E0A3
:100B9000D0E084E391E00E940803C12CD12C7601BF
:100BA000C39410E000E05C2CB0923702C09259026E
:100BB0001092380210925A02809136028111FCCFB5
:100BC000A0923602B0923502909234021092330213
:100BD000109232021092110290911102852D880F0D
:100BE000892B8093110280911002813009F082C01C
:100BF00010921002809111028093BB008091BC0082
:100C000083FDF8CF3092BC00809136028230E1F350
:100C1000809134028F3F09F470C080913402803299
:100C200009F46DC080913402803309F46AC084E015
:100C30001092380210925A0210923702811163C04A
:100C400080E491E00E94B7022FE0251520F08FE5A7
:100C500091E00E94B70240E1C701B6010E94C402C0
:100C600081E691E00E9408030F5F1F4F2FEFC21A29
:100C7000D20AE20AF20A8FE7C816D104E104F104AD
:100C800009F091CF81E891E0012B11F087E991E023
:100C90000E9408030E94D8016B017C0188E8482E5D
:100CA00083E1582E612C712C0E94D8016C197D09AA
:100CB0008E099F09683E734081059105A8F321E0E4
:100CC000421A51086108710888EEC80E83E0D81EE8
:100CD000E11CF11C411451046104710429F72097AF
:100CE00009F457CF0E943501882309F452CF0E949E
:100CF00000004FCF8092BC0087CF80E099CF82E088
:100D000097CF83E095CF843009F0B0CF85E691E0AE
:100D10000E94B7028FE0851520F08FE591E00E94D8
:100D2000B70240E1C701B6010E94C40284E291E02B
:100D30000E94B7029BCFA1E21A2EAA1BBB1BFD018A
:100D40000DC0AA1FBB1FEE1FFF1FA217B307E407AA
:100D5000F50720F0A21BB30BE40BF50B661F771F02
:100D6000881F991F1A9469F76095709580959095E2
:100D70009B01AC01BD01CF010895EE0FFF1F05904F
:0A0D8000F491E02D0994F894FFCFE0
:100D8A00000000006B01CB00F800B801290107013F
:100D9A001B010000000085025802B4022E02510213
:100DAA003E022F020D0A000A493243205363616E44
:100DBA006E6572005363616E6E696E672E2E2E0029
:100DCA004932432064657669636520666F756E648F
:100DDA002061742061646472657373203078003016
:100DEA000020202100556E6B6E6F776E206572723F
:100DFA006F72206174206164647265737320307845
:100E0A00004E6F204932432064657669636573201A
:0E0E1A00666F756E640A00646F6E650A0000F4
:107E0000112484B714BE81FFF0D085E080938100F7
:107E100082E08093C00088E18093C10086E0809377
:107E2000C20080E18093C4008EE0C9D0259A86E02C
:107E300020E33CEF91E0309385002093840096BBD3
:107E4000B09BFECF1D9AA8958150A9F7CC24DD24C4
:107E500088248394B5E0AB2EA1E19A2EF3E0BF2EE7
:107E6000A2D0813461F49FD0082FAFD0023811F036
:107E7000013811F484E001C083E08DD089C08234E0
:107E800011F484E103C0853419F485E0A6D080C0E4
:107E9000853579F488D0E82EFF2485D0082F10E0AE
:107EA000102F00270E291F29000F111F8ED06801E7
:107EB0006FC0863521F484E090D080E0DECF843638
:107EC00009F040C070D06FD0082F6DD080E0C81688
:107ED00080E7D80618F4F601B7BEE895C0E0D1E017
:107EE00062D089930C17E1F7F0E0CF16F0E7DF06D8
:107EF00018F0F601B7BEE89568D007B600FCFDCFD4
:107F0000A601A0E0B1E02C9130E011968C91119780
:107F100090E0982F8827822B932B1296FA010C0160
:107F200087BEE89511244E5F5F4FF1E0A038BF0790
:107F300051F7F601A7BEE89507B600FCFDCF97BE46
:107F4000E89526C08437B1F42ED02DD0F82E2BD052
:107F50003CD0F601EF2C8F010F5F1F4F84911BD097
:107F6000EA94F801C1F70894C11CD11CFA94CF0C13
:107F7000D11C0EC0853739F428D08EE10CD085E9AC
:107F80000AD08FE07ACF813511F488E018D01DD067
:107F900080E101D065CF982F8091C00085FFFCCF94
:107FA0009093C60008958091C00087FFFCCF809118
:107FB000C00084FD01C0A8958091C6000895E0E648
:107FC000F0E098E1908380830895EDDF803219F02E
:107FD00088E0F5DFFFCF84E1DECF1F93182FE3DFCA
:107FE0001150E9F7F2DF1F91089580E0E8DFEE27F6
:047FF000FF270994CA
:027FFE00040479
:0400000300007E007B
:00000001FF
