:100000000C9435000C945D000C945D000C945D0024
:100010000C945D000C945D000C945D000C945D00EC
:100020000C945D000C945D000C945D000C945D00DC
:100030000C945D000C945D000C945D000C945D00CC
:100040000C9434020C945D000C9402020C94DC01BC
:100050000C945D000C945D000C945D000C945D00AC
:100060000C945D000C945D00B90311241FBECFEF0A
:10007000D8E0DEBFCDBF21E0A0E2B1E001C01D921B
:10008000AA3CB207E1F711E0A0E0B1E0E8E9FCE04A
:1000900002C005900D92A032B107D9F710E0C5E378
:1000A000D0E004C02197FE010E945204C433D1075E
:1000B000C9F70E947E020C944A060C94000080E46A
:1000C00080937C0080917A00806480937A00809194
:1000D0007A0086FDFCCF8091780090917900089598
:1000E000AF92BF92CF92DF92EF92FF920F931F9346
:1000F000CF93DF936C017B018B01040F151FEB0184
:100100005E01AE18BF08C017D10759F06991D6013A
:10011000ED91FC910190F081E02DC6010995892BAC
:1001200079F7C501DF91CF911F910F91FF90EF906B
:10013000DF90CF90BF90AF900895FC01538D448D18
:10014000252F30E0842F90E0821B930B541710F082
:10015000CF96089501970895FC01918D828D98178F
:1001600061F0A28DAE0FBF2FB11D5D968C91928D67
:100170009F5F9F73928F90E008958FEF9FEF089598
:10018000FC01918D828D981731F0828DE80FF11D61
:10019000858D90E008958FEF9FEF0895FC01918D7C
:1001A000228D892F90E0805C9F4F821B91098F7375
:1001B0009927089589E291E00E94CE0021E0892BE1
:1001C00009F420E0822F089580E090E0892B29F047
:1001D0000E94DA0081110C9400000895FC01A48DA6
:1001E000A80FB92FB11DA35ABF4F2C91848D90E059
:1001F00001968F739927848FA689B7892C93A0893C
:10020000B1898C91837080648C93938D848D9813C5
:1002100006C00288F389E02D80818F7D8083089558
:10022000EF92FF920F931F93CF93DF93EC0181E046
:10023000888F9B8D8C8D98131AC0E889F9898081ED
:1002400085FF15C09FB7F894EE89FF896083E88920
:10025000F98980818370806480839FBF81E090E012
:10026000DF91CF911F910F91FF90EF900895F62E9F
:100270000B8D10E00F5F1F4F0F731127E02E8C8D39
:100280008E110CC00FB607FCFACFE889F98980817E
:1002900085FFF5CFCE010E94EE00F1CFEB8DEC0F84
:1002A000FD2FF11DE35AFF4FF0829FB7F8940B8F9B
:1002B000EA89FB8980818062CFCFCF93DF93EC0105
:1002C000888D8823B9F0AA89BB89E889F9898C913E
:1002D00085FD03C0808186FD0DC00FB607FCF7CFFA
:1002E0008C9185FFF2CF808185FFEDCFCE010E94FA
:1002F000EE00E9CFDF91CF9108953FB7F894809158
:10030000250190912601A0912701B091280126B5E1
:10031000A89B05C02F3F19F00196A11DB11D3FBF3D
:10032000BA2FA92F982F8827BC01CD01620F711D0C
:10033000811D911D42E0660F771F881F991F4A9506
:10034000D1F70895CF93DF93EC01888199810097CD
:1003500011F00E94F404198218821D821C821B82F3
:100360001A82DF91CF9108950F931F93CF93DF935C
:10037000EC0188819981009759F02A813B812617E9
:10038000370730F081E0DF91CF911F910F910895F1
:100390008B016F5F7F4F0E947D05009759F0998315
:1003A00088831B830A832C813D81232B59F7FC0111
:1003B0001082E8CF80E0E7CF1F920F920FB60F9226
:1003C00011242F933F934F935F936F937F938F935A
:1003D0009F93AF93BF93EF93FF9389E291E00E94C5
:1003E000EE00FF91EF91BF91AF919F918F917F911F
:1003F0006F915F914F913F912F910F900FBE0F9092
:100400001F9018951F920F920FB60F9211242F93E1
:100410008F939F93EF93FF93E0913901F0913A010D
:100420008081E0913F01F091400182FD1BC09081ED
:10043000809142018F5F8F7320914301821741F0B9
:10044000E0914201F0E0E75DFE4F958F809342011D
:10045000FF91EF919F918F912F910F900FBE0F9071
:100460001F9018958081F4CF1F920F920FB60F92B4
:1004700011242F933F938F939F93AF93BF938091BA
:10048000210190912201A0912301B091240130918A
:10049000200123E0230F2D3758F50196A11DB11D32
:1004A000209320018093210190932201A0932301A6
:1004B000B09324018091250190912601A0912701FC
:1004C000B09128010196A11DB11D80932501909343
:1004D0002601A0932701B0932801BF91AF919F916E
:1004E0008F913F912F910F900FBE0F901F901895F5
:1004F00026E8230F0296A11DB11DD2CFCF93DF9323
:10050000CDB7DEB768970FB6F894DEBF0FBECDBF8C
:10051000789484B5826084BD84B5816084BD85B5DE
:10052000826085BD85B5816085BD80916E008160EA
:1005300080936E0010928100809181008260809390
:100540008100809181008160809381008091800092
:100550008160809380008091B10084608093B100BD
:100560008091B00081608093B00080917A008460B7
:1005700080937A0080917A00826080937A008091E3
:100580007A00816080937A0080917A0080688093FD
:100590007A001092C100E0913901F0913A0182E0B5
:1005A0008083E0913501F09136011082E0913701AE
:1005B000F09138018FEC808310924101E0913D0170
:1005C000F0913E0186E08083E0913B01F0913C0197
:1005D000808180618083E0913B01F0913C018081CA
:1005E00088608083E0913B01F0913C0180818068CC
:1005F0008083E0913B01F0913C0180818F7D80837D
:100600008E010F5F1F4F90E0C92E90E0D92E0E94FF
:100610005F000E945F001C8A1B8A1E8A1D8A188E3A
:100620001F8A4AE0B8010E94E603F8010190002009
:10063000E9F731977F01E01AF10AB701CE0143963D
:100640000E94B40181117EC0CE0143960E94A20196
:100650001A8219821C821B821E821D8264E070E055
:10066000C8010E94B401811175C0C8010E94A20195
:10067000AB88BC88A114B10409F477C0EF88F88C6A
:10068000E114F104B1F08D819E81E80EF91EB701ED
:10069000C8010E94B401882309F467C029813A8106
:1006A0008D819E81B501820F931F0E944306FE82B9
:1006B000ED824D815E8169817A8189E291E00E94BB
:1006C000700042E050E06DE171E089E291E00E944B
:1006D000700089819A810E94F4048B899C890E9410
:1006E000F4040E947D012B013C0188EE882E83E0FA
:1006F000982EA12CB12C0E947D01641975098609E0
:100700009709683E734081059105A8F321E0821A9C
:100710009108A108B10888EE480E83E0581E611CBC
:10072000711C81149104A104B10429F7C114D104EE
:1007300009F46DCF0E94DA00882309F468CF0E9483
:10074000000065CFF88EEF8AB8018B899C890E94E2
:1007500043067ECF84E090E09E838D8368E171E064
:1007600089819A810E94430683CFC8010E94A20119
:10077000A0CFE9E2F1E01382128288EE93E0A0E0DC
:10078000B0E084839583A683B7838AE091E0918368
:10079000808385EC90E09587848784EC90E0978750
:1007A000868780EC90E0918B808B81EC90E0938B3E
:1007B000828B82EC90E0958B848B86EC90E0978B1B
:1007C000868B118E128E138E148E0895BB274A309D
:1007D00031F4992322F4BDE2909581959F4F0C94BA
:1007E000F203BB27FB015527AA27880F991FAA1FD1
:1007F000A41710F0A41B83955051B9F7A05DAA333C
:1008000008F0A95DA193009779F7B111B193119206
:10081000CB010C940B04DC01FC01672F7191772351
:10082000E1F7329704C07C916D9370836291AE17AB
:10083000BF07C8F308952F923F924F925F926F9235
:100840007F928F929F92AF92BF92CF92DF92EF9260
:10085000FF920F931F93CF93DF93CDB7DEB7CA1BE1
:10086000DB0B0FB6F894DEBF0FBECDBF09942A880C
:10087000398848885F846E847D848C849B84AA84B4
:10088000B984C884DF80EE80FD800C811B81AA8141
:10089000B981CE0FD11D0FB6F894DEBF0FBECDBF0C
:1008A000ED010895EE0FFF1F0590F491E02D0994DE
:1008B0000F931F93CF93DF938230910510F482E062
:1008C00090E0E091C801F091C90130E020E0B0E093
:1008D000A0E0309799F42115310509F44AC0281B8E
:1008E000390B24303105D8F58A819B81611571055A
:1008F00089F1FB0193838283FE0111C04081518104
:100900000281138148175907E0F04817590799F4F5
:10091000109761F012960C93129713961C933296CF
:10092000CF01DF91CF911F910F9108950093C801DE
:100930001093C901F4CF2115310551F04217530727
:1009400038F0A901DB019A01BD01DF01F801C1CF37
:10095000EF01F9CF9093C9018093C801CDCFFE017B
:10096000E20FF31F81939193225031093983288339
:10097000D7CF2091C6013091C701232B41F420919C
:100980000201309103013093C7012093C6012091E9
:100990000001309101012115310541F42DB73EB719
:1009A0004091040150910501241B350BE091C601D3
:1009B000F091C701E217F307A0F42E1B3F0B281795
:1009C000390778F0AC014E5F5F4F2417350748F0C8
:1009D0004E0F5F1F5093C7014093C60181939193BF
:1009E0009FCFF0E0E0E09CCFCF93DF930097E9F05A
:1009F000FC01329713821282A091C801B091C90103
:100A0000ED0130E020E01097A1F420813181820FC8
:100A1000931F2091C6013091C7012817390709F0AB
:100A200061C0F093C701E093C601DF91CF910895B3
:100A3000EA01CE17DF07E8F54A815B819E01411587
:100A40005105B1F7E901FB83EA8349915991C40F3C
:100A5000D51FEC17FD0761F4808191810296840F08
:100A6000951FE90199838883828193819B838A837F
:100A7000F0E0E0E012968D919C9113970097B9F504
:100A80002D913C911197CD010296820F931F2091D9
:100A9000C6013091C7012817390739F6309751F54B
:100AA0001092C9011092C801B093C701A093C6016A
:100AB000BCCFD383C28340815181840F951FC81757
:100AC000D90761F44E5F5F4F88819981480F591FA4
:100AD000518340838A819B819383828321153105D1
:100AE00009F0B0CFF093C901E093C8019ECFFD019A
:100AF000DC01C0CF13821282D7CFB0E0A0E0E3E8E0
:100B0000F5E00C941D048C01009751F4CB010E9478
:100B100058048C01C801CDB7DEB7E0E10C9439046C
:100B2000FC01E60FF71F9C0122503109E217F30781
:100B300008F49DC0D901CD91DC911197C617D70754
:100B400098F0C530D10530F3CE010497861797078A
:100B500008F3C61BD70B2297C193D1936D937C9357
:100B6000CF010E94F404D6CF5B01AC1ABD0A4C0140
:100B70008C0E9D1EA091C801B091C901512C412C31
:100B8000F12CE12C109731F58091C6019091C701AD
:100B90008815990509F05CC04616570608F058C03C
:100BA0008091000190910101009741F48DB79EB7AB
:100BB0004091040150910501841B950BE817F9073A
:100BC00008F055C0F093C701E093C601F9017183A5
:100BD0006083A0CF8D919C91119712966C90129783
:100BE00013967C901397A815B90559F56C0142E04E
:100BF000C40ED11CCA14DB0420F1AC014A195B09F4
:100C0000DA011296159780F06282738251834083D5
:100C1000D9016D937C93E114F10471F0D70113961F
:100C2000FC93EE93129776CF22968C0F9D1FF901BD
:100C300091838083F301EFCFF093C901E093C80162
:100C400069CF4816590608F42C017D01D3019ACFCB
:100C5000CB010E9458047C01009749F0AE01B80115
:100C60000E943A06C8010E94F404870153CF10E0A5
:100C700000E050CFFB01DC0102C001900D92415019
:100C80005040D8F70895FB01DC0101900D9200203F
:080C9000E1F70895F894FFCF8D
:100C98000000CA01800000000000100170009D00E3
:100CA8005D01CE00AC00C0004F54413D000D0A006C
:00000001FF
