:100000000C9458000C9480000C9480000C94800098
:100010000C9480000C9480000C9480000C94800060
:100020000C9480000C9480000C9480000C94800050
:100030000C9480000C9480000C9480000C94800040
:100040000C94D7020C9480000C9480000C948000D7
:100050000C9480000C9480000C9480000C94800020
:100060000C9421030C94800000000000250028005F
:100070002B00040404040404040402020202020229
:10008000030303030303010204081020408001025C
:1000900004081020010204081020000000080002DB
:1000A00001000003040700000000000000004004FD
:1000B00011241FBECFEFD8E0DEBFCDBF11E0A0E01E
:1000C000B1E0E8EFFAE002C005900D92AE33B1075F
:1000D000D9F722E0AEE3B1E001C01D92A431B2072E
:1000E000E1F710E0C8E5D0E004C02197FE010E94CE
:1000F0007405C735D107C9F70E9461040C947A05CD
:100100000C94000090E0FC01E656FF4F2491FC01A6
:10011000EA57FF4F3491FC01EE58FF4FE491EE2374
:10012000B1F0222339F02330E9F090F4213001F1CD
:10013000223011F1F0E0EE0FFF1FE859FF4FA591BB
:10014000B4918FB7F894EC913E2B3C938FBF0895F8
:100150002730A9F02830C9F0243061F78091800061
:100160008F7D03C0809180008F7780938000E2CFE5
:1001700084B58F7784BDDECF84B58F7DFBCF809132
:10018000B0008F778093B000D5CF8091B0008F7D85
:10019000F9CF08950895AF92BF92CF92DF92EF9278
:1001A000FF920F931F93CF93DF936C017B018B0121
:1001B000040F151FEB015E01AE18BF08C017D10771
:1001C00059F06991D601ED91FC910190F081E02DFB
:1001D000C6010995892B79F7C501DF91CF911F9150
:1001E0000F91FF90EF90DF90CF90BF90AF90089568
:1001F0003FB7F8948091EC019091ED01A091EE0150
:10020000B091EF0126B5A89B05C02F3F19F00196CC
:10021000A11DB11D3FBFBA2FA92F982F8827BC0160
:10022000CD01620F711D811D911D42E0660F771F88
:10023000881F991F4A95D1F708958F929F92AF9288
:10024000BF92CF92DF92EF92FF924B015C010E942E
:10025000F8006B017C010E94F8006C197D098E0981
:100260009F09683E734081059105A8F321E0821A39
:100270009108A108B10888EEC80E83E0D81EE11CE1
:10028000F11C81149104A104B10429F7FF90EF90AF
:10029000DF90CF90BF90AF909F908F90089585EDA5
:1002A0008093BC008091BC0084FDFCCF1092F601CD
:1002B00008952091A001260F3327331F21323105E5
:1002C000ECF42091F601FC0190E080E0243069F02C
:1002D00082E00895A091A0012191AC0140585E4FA9
:1002E000A40FB52FB11D2C930196861798F380911A
:1002F000A001680F6093A00180E0089581E0089557
:100300000895E091FA018091F901E81730F4F0E0E6
:10031000E05AFE4F808190E008958FEF9FEF08959F
:100320009091FA018091F9012FEF3FEF981748F46F
:10033000E92FF0E0E05AFE4F208130E09F5F90937C
:10034000FA01C90108958091F9019091FA01891B80
:10035000990B0895CF92DF92EF92FF920F931F9324
:10036000CF93DF937C01CB018A0120915F0122238F
:1003700089F0EB016B01C40ED51ECC15DD0569F0CB
:100380006991D701ED91FC910190F081E02DC701B9
:100390000995F3CF642F0E945901C801DF91CF91D5
:1003A0001F910F91FF90EF90DF90CF900895CF9322
:1003B000DF931F92CDB7DEB7698320915F012223BF
:1003C000F9F02091F701203258F021E030E0FC01F3
:1003D0003383228390E080E00F90DF91CF910895E6
:1003E0008091F801E82FF0E0E15CFE4F9981908365
:1003F0008F5F8093F8018093F70181E090E0ECCF6C
:1004000061E0CE0101960E945901F7CFCF93FC0124
:10041000C48121E020935F01C0933E011092F80156
:100420001092F7018485682B8BEF91E00E94D70131
:100430009091F701913208F03FC08091F60181114F
:10044000FCCF82E08093F60181E08093F5018FEF8D
:100450008093C3011092E5019093E401AFE3B1E012
:10046000E4ECF1E080E098132FC01092E601809157
:10047000E601CC0FC82BC093E6018091F4018130D6
:1004800039F51092F4018091E6018093BB008091D0
:10049000BC0083FDF8CF85EC8093BC008091F60111
:1004A0008230E1F38091C3018F3F31F08091C3012D
:1004B000803211F08091C3011092F8011092F7017F
:1004C00010925F01CF9108952D9121938F5FCBCF33
:1004D00085EEE2CF089590E080E008950F931F939A
:1004E000CF938C01C62F0E9406026C2F6460C80156
:1004F0000E9406026C2F6B7FC8010E94060283ECEB
:1005000090E00197F1F7CF911F910F9108950F930C
:100510001F93CF93DF938C01D62FC42F607F642B62
:100520000E946E0280E1D89FB00111246C2BC8019B
:10053000DF91CF911F910F910C946E02CF93DF93B7
:10054000CDB7DEB728970FB6F894DEBF0FBECDBF8C
:1005500098E0E0E0F1E0DE01119601900D929A95AD
:10056000E1F790910F02961708F46FEF262F30E015
:10057000220F331F41E050E04C0F5D1F240F351F49
:10058000F9016081680F606840E087E092E028969A
:100590000FB6F894DEBF0FBECDBFDF91CF910C94A4
:1005A000870241E00E94870281E090E008951F9257
:1005B0000F920FB60F9211242F933F938F939F9317
:1005C000AF93BF938091E8019091E901A091EA0176
:1005D000B091EB013091E70123E0230F2D3758F55F
:1005E0000196A11DB11D2093E7018093E80190932E
:1005F000E901A093EA01B093EB018091EC019091A5
:10060000ED01A091EE01B091EF010196A11DB11D88
:100610008093EC019093ED01A093EE01B093EF0174
:10062000BF91AF919F918F913F912F910F900FBEEE
:100630000F901F90189526E8230F0296A11DB11D5B
:10064000D2CF1F920F920FB60F9211242F933F9388
:100650004F935F936F937F938F939F93AF93BF93CA
:10066000EF93FF938091B900887F803609F44AC0E8
:10067000F0F5883209F4A7C018F5803109F49BC061
:10068000B8F4882309F4F9C0883009F494C0FF91C4
:10069000EF91BF91AF919F918F917F916F915F91FA
:1006A0004F913F912F910F900FBE0F901F90189573
:1006B000883109F488C0803251F78093C30114C097
:1006C000803409F49DC040F48033B9F38833F9F6DF
:1006D0008093C30185ECB0C0803509F485C08835AE
:1006E00009F496C0883499F60E944F01D0CF88391A
:1006F00009F48CC038F5883729F050F4883611F0A9
:10070000803729F683E08093F6011092C20157C02A
:10071000883809F47BC0803919F0803809F0B7CFE8
:100720008091C201803208F071C0E091C20181E085
:100730008E0F8093C2018091BB00F0E0EE55FE4F1A
:1007400080833DC0803B39F0E0F4803A09F479C001
:10075000883A09F09CCF84E08093F6011092A101C1
:100760001092A001E091F201F091F30109958091BE
:10077000A00181110FC081E08093A001109280013F
:1007800009C0803C09F4A6CF883C09F4A3CF883B7C
:1007900009F07DCFE091A10181E08E0F8093A1014E
:1007A000F0E0E058FE4F80818093BB009091A10162
:1007B0008091A00129C08091E6018093BB0085EC67
:1007C0008093BC0064CF9091E5018091E40198177B
:1007D00058F5E091E50181E08E0F8093E501F0E0AE
:1007E000EC53FE4F8081E9CFE091E50181E08E0F6F
:1007F0008093E5018091BB00F0E0EC53FE4F8083D5
:100800009091E5018091E4019817C8F285E8D8CF6E
:10081000E091E50181E08E0F8093E5018091BB00BE
:10082000F0E0EC53FE4F80838091F50181115CCFA5
:1008300081E08093F40184EA8093BC001092F60179
:1008400026CF85EC8093BC001092F6018091C20106
:10085000803230F4E091C201F0E0EE55FE4F10829C
:100860006091C20170E0E091F001F091F10182EA43
:1008700091E009951092C2010ACF1092C30134CFC2
:10088000EBEFF1E01382128288EE93E0A0E0B0E09B
:1008900084839583A683B7838CE091E091838083E2
:1008A000E7E0F2E0138212828EE191E0918380838F
:1008B000118687E2848380E1828782E083871486C1
:1008C0000895789484B5826084BD84B5816084BDC8
:1008D00085B5826085BD85B5816085BD80916E00DE
:1008E000816080936E00109281008091810082600F
:1008F000809381008091810081608093810080914C
:1009000080008160809380008091B100846080933A
:10091000B1008091B00081608093B00080917A0036
:10092000846080937A0080917A00826080937A005C
:1009300080917A00816080937A0080917A0080684B
:1009400080937A001092C1001092FA011092F9017E
:100950001092F8011092F7011092F60181E0809355
:10096000F5011092F40182E10E94820083E10E946D
:1009700082008091B9008E7F8093B9008091B90088
:100980008D7F8093B90088E48093B80085E48093DC
:10099000BC0089EC90E09093F3018093F2018AEC23
:1009A00090E09093F1018093F00110920C028091FD
:1009B0001202823018F098E090930C0280930F029C
:1009C00062E370E080E090E00E941D0160911302FC
:1009D00087E092E00E94060268EE73E080E090E01B
:1009E0000E941D0160E387E092E00E946E02CBE46A
:1009F000D6E4CE010197F1F760E387E092E00E9430
:100A00006E022197F1F760E387E092E00E946E02A8
:100A100083E592E00197F1F760E287E092E00E94BF
:100A20006E0260910C02606240E087E092E00E94FA
:100A3000870284E080930D0240E06CE087E092E062
:100A40000E94870240E061E087E092E00E94870216
:100A50008BE39FE10197F1F780911002882321F049
:100A600060E080E00E949E0282E080930E0240E0FF
:100A700066E087E092E00E94870240E062E087E063
:100A800092E00E9487028BE39FE10197F1F788E0F3
:100A90008093130260E087E092E00E94060260E02B
:100AA00081E00E949E024AE050E066E271E087E049
:100AB00092E00E94CB0061E083E00E949E024BE046
:100AC00050E061E371E087E092E00E94CB0060EDCE
:100AD00077E080E090E00E941D01C0E0D0E0209728
:100AE000F1F30E940000FBCFEE0FFF1F0590F49181
:080AF000E02D0994F894FFCFFA
:100AF800000040001400540000000000D701AA01C3
:100B08006B028001A3019001810100000000D10265
:100B1800CB006B026A0257656C636F6D6520546F7A
:0E0B2800004172636164652047616D650000E5
:00000001FF
