:100000000C945F010C9487010C9487010C94870178
:100010000C9487010C9487010C9487010C94870140
:100020000C9487010C9487010C9487010C94870130
:100030000C9487010C9487010C9487010C94870120
:100040000C94F0080C9487010C94BE080C9498084A
:100050000C9487010C9487010C9487010C94870100
:100060000C943A090C94870100407A10F35A00A0CE
:10007000724E18090010A5D4E80000E87648170071
:1000800000E40B54020000CA9A3B000000E1F505B1
:10009000000080969800000040420F000000A086FB
:1000A00001000000102700000000E803000000002D
:1000B0006400000000000A000000000001000000D1
:1000C00000002C76D888DC674F0823DFC1DFAE59EB
:1000D000E1B1B796E5E3E453C63AE651997696E87E
:1000E000E6C28426EB898C9B62ED407C6FFCEFBC02
:1000F0009C9F40F2BAA56FA5F490055A2AF75C932D
:100100006B6CF9676DC11BFCE0E40D47FEF520E662
:10011000B500D0ED902E0300943577050080841E45
:10012000080000204E0A000000C80C333333330FA0
:10013000986E12831141EF8D2114893BE65516CF3D
:10014000FEE6DB18D1844B381BF77C1D901DA4BB49
:10015000E424203284725E228100C9F124ECA1E5FE
:100160003D27005EBCE2613FDD83C29C7E20A3FD93
:100170001F419DC3217FFCA2401E5F01E3BD3E6085
:1001800082DC237D9FC1421CFEA0E1BF5D0380DEB7
:100190003C62BEE0025CDF81633D7C22C09E1D4369
:1001A000A1FF4618FAA427799BC584DA3866E5BB17
:1001B0005907DB856739BAE406581947A5FB782645
:1001C000C49A653BD987045AB8E6A7F91B45C69877
:1001D0007A24F8A6441A99C7257B3A6486D85B0529
:1001E000E7B98CD2306EEDB3510F4E10F2AC2F71D7
:1001F00093CD114FADF3702ECC92D38D6F31B2EC05
:100200000E50AFF1134DCE90722C6D33D18F0C5236
:10021000B0EE326C8ED0530DEFB1F0AE4C1291CFE8
:100220002D73CA947628ABF517490856B4EA693796
:10023000D58B5709EBB536688AD495CB2977F4AAC4
:100240004816E9B7550B88D6346A2B7597C94A14F6
:10025000F6A8742AC896154BA9F7B6E80A54D789A8
:100260006B3500000000240027002A000000000079
:10027000250028002B0000000008000201000003F8
:100280000407000000000000000000000000230040
:1002900026002900040404040404040402020202E7
:1002A0000202030303030303010204081020408039
:1002B0000102040810200102040810209E0A1124E3
:1002C0001FBECFEFD8E0DEBFCDBF23E0AAE1B2E092
:1002D00001C01D92AC3BB207E1F712E0A0E0B1E033
:1002E000ECEDFEE202C005900D92AA31B107D9F7FC
:1002F00011E0CFE5D1E004C02197FE010E94741502
:10030000CE35D107C9F70E944C0B0C946C170C9496
:10031000000008950895AF92BF92CF92DF92EF92BE
:10032000FF920F931F93CF93DF936C017B018B019F
:10033000040F151FEB015E01AE18BF08C017D107EF
:1003400059F06991D601ED91FC910190F081E02D79
:10035000C6010995892B79F7C501DF91CF911F91CE
:100360000F91FF90EF90DF90CF90BF90AF900895E6
:10037000FC01538D448D252F30E0842F90E0821BAB
:10038000930B541710F0CF96089501970895FC0130
:10039000918D828D981761F0A28DAE0FBF2FB11D88
:1003A0005D968C91928D9F5F9F73928F90E00895E0
:1003B0008FEF9FEF0895FC01918D828D981731F09A
:1003C000828DE80FF11D858D90E008958FEF9FEFEE
:1003D0000895FC01918D228D892F90E0805C9F4FC4
:1003E000821B91098F73992708958DED92E00E94E9
:1003F000E90121E0892B09F420E0822F089580E0B3
:1004000090E0892B29F00E94F50181110C940000E5
:100410000895FC01A48DA80FB92FB11DA35ABF4F99
:100420002C91848D90E001968F739927848FA689F3
:10043000B7892C93A089B1898C91837080648C9347
:10044000938D848D981306C00288F389E02D8081F6
:100450008F7D80830895EF92FF920F931F93CF9328
:10046000DF93EC0181E0888F9B8D8C8D98131AC0EF
:10047000E889F989808185FF15C09FB7F894EE89D6
:10048000FF896083E889F989808183708064808333
:100490009FBF81E090E0DF91CF911F910F91FF907E
:1004A000EF900895F62E0B8D10E00F5F1F4F0F7326
:1004B0001127E02E8C8D8E110CC00FB607FCFACFE1
:1004C000E889F989808185FFF5CFCE010E94090274
:1004D000F1CFEB8DEC0FFD2FF11DE35AFF4FF082B2
:1004E0009FB7F8940B8FEA89FB8980818062CFCF18
:1004F000CF93DF93EC01888D8823B9F0AA89BB895B
:10050000E889F9898C9185FD03C0808186FD0DC045
:100510000FB607FCF7CF8C9185FFF2CF808185FF66
:10052000EDCFCE010E940902E9CFDF91CF9108956E
:10053000833081F028F4813099F08230A9F0089559
:100540008730A9F08830C9F08430B1F48091800000
:100550008F7D03C0809180008F7780938000089505
:1005600084B58F7784BD089584B58F7DFBCF80914E
:10057000B0008F778093B00008958091B0008F7D98
:10058000F9CF1F93CF93DF93282F30E0F901EA587A
:10059000FD4F8491F901E855FD4FD491F901EC56D6
:1005A000FD4FC491CC23A9F0162F81110E9498020F
:1005B000EC2FF0E0EE0FFF1FE459FD4FA591B49131
:1005C0008FB7F894EC91111108C0D095DE23DC931D
:1005D0008FBFDF91CF911F910895DE2BF8CFCF937E
:1005E000DF9390E0FC01E855FD4F24918C569D4F20
:1005F000FC0184918823D1F090E0880F991FFC01C1
:10060000EE59FD4FA591B491FC01E459FD4FC59100
:10061000D49161110EC09FB7F8948C91E22FE095B0
:100620008E238C932881E223E8839FBFDF91CF91B3
:1006300008958FB7F894EC91E22BEC938FBFF6CF2F
:100640001F93CF93DF93182FEB0161E00E94EF021D
:10065000209739F460E0812FDF91CF911F910C94A6
:10066000C102CF3FD10511F461E0F5CFE12FF0E0F9
:10067000EA58FD4FE491E33031F140F4E130B1F05C
:10068000E230E1F0C038D1057CF7E4CFE73029F162
:10069000E83059F1E430B1F78091800080628093B6
:1006A0008000D0938B00C0938A0004C084B580681A
:1006B00084BDC7BDDF91CF911F91089584B580623D
:1006C00084BDC8BDF7CF8091800080688093800092
:1006D000D0938900C0938800EDCF8091B0008068EE
:1006E0008093B000C093B300E5CF8091B0008062EA
:1006F0008093B000C093B400DDCFBC01809186032D
:1007000090918703009719F0019751F00895809117
:1007100088030E94200360E0809189030C94C10249
:10072000809188030E94200370E060E0809189033B
:100730000C9420038E3008F08E5087708064809374
:100740007C0080917A00806480937A0080917A00A6
:1007500086FDFCCF809178009091790008953FB795
:10076000F8948091C8029091C902A091CA02B091F8
:10077000CB0226B5A89B05C02F3F19F00196A11DFD
:10078000B11D3FBFBA2FA92F982F8827BC01CD01DB
:10079000620F711D811D911D42E0660F771F881F3A
:1007A000991F4A95D1F708958F929F92AF92BF9269
:1007B000CF92DF92EF92FF924B015C010E94AF0358
:1007C0006B017C010E94AF036C197D098E099F09A2
:1007D000683E734081059105A8F321E0821A9108D3
:1007E000A108B10888EEC80E83E0D81EE11CF11CF8
:1007F00081149104A104B10429F7FF90EF90DF90D8
:10080000CF90BF90AF909F908F9008950895DC0196
:1008100080E0615038F0ED91E827F0E0EE59FE4FAE
:100820008491F7CF0895DC012C911196ED91FC9104
:10083000F8948181822B81839281322F309593238A
:10084000928387E090E00197F1F781818323818390
:1008500083E290E00197F1F790817894EFECF0E07B
:100860003197F1F7922381E009F480E00895EF9247
:10087000FF920F931F93CF93DF937C0108E010E06A
:10088000C0E0D1E0C7010E9413048111CD2BDD0F20
:1008900001501109B9F78C2FDF91CF911F910F9162
:1008A000FF90EF900895FC0190810180F281E02D8E
:1008B000292F209560FF14C0F894828182238283BF
:1008C0008181892B8183A3E2B0E01197F1F78281C6
:1008D000982B9283789487ED90E00197F1F7089533
:1008E000F8948281822382838181892B8183AFEF77
:1008F000B0E01197F1F78281982B928378948FE082
:1009000090E0EBCFDF92EF92FF920F931F93CF9384
:10091000DF93EC01D62EE42E08E010E0FF24F394E0
:1009200061E08D2D8F2109F460E0CE010E94530417
:10093000FF0C01501109A1F7E11010C0F894E981F2
:10094000FA8191818881809589238183E981FA8167
:10095000928188818095892382837894DF91CF91D9
:100960001F910F91FF90EF90DF900895EF92FF920B
:100970000F931F93CF93DF938C017B0140E065E5DC
:100980000E948204E70188E0E80EF11C699140E0D2
:10099000C8010E948204CE15DF05C1F7DF91CF9117
:1009A0001F910F91FF90EF900895FC0190810180BD
:1009B000F281E02DF8948181292F20958223818373
:1009C00078943DE743E050E0315029F1DA01119786
:1009D000F1F780818923C1F3F89482818223828395
:1009E0008181892B81837894ABE7B7E01197F1F788
:1009F000F894818182238183A3E1B1E01197F1F71B
:100A00008081982381E009F080E07894E3E6F6E0C5
:100A10003197F1F7089580E00895EF92FF920F93D8
:100A20001F93CF93DF937C018B01CAE8D3E08D81C4
:100A30009E810E94D504B7018D819E810E94B604DB
:100A400040E06EEB8D819E810E9482048D819E81AB
:100A50000E943704F80180838D819E810E943704B3
:100A6000F80181838D819E810E943704F801828381
:100A70008D819E810E943704F80183838D819E8140
:100A80000E943704F80184838D819E810E9437047F
:100A9000F80185838D819E810E943704F801868349
:100AA0008D819E810E943704F80187838D819E810C
:100AB0000E943704F80180878D819E81DF91CF915C
:100AC0001F910F91FF90EF900C94D504CF93DF937B
:100AD000CDB7DEB729970FB6F894DEBF0FBECDBFF6
:100AE000BE016F5F7F4F0E940D0568E0CE01019649
:100AF0000E9407049985891306C08D818F33A9F060
:100B000020F48F31A1F080E007C08F3521F08F37BE
:100B1000D1F78CE001C08BE029960FB6F894DEBFC8
:100B20000FBECDBFDF91CF9108958AE0F5CF89E068
:100B3000F3CFBF92CF92DF92EF92FF920F931F936A
:100B4000CF93DF93EC01B62EC72EED84EE2081F01B
:100B50001B861D861C8680E02396EB2DFC2D9F01B5
:100B6000285F3F4F999191932E173F07D9F707C000
:100B70000E94D50481110DC01B861D861C86DF9145
:100B8000CF911F910F91FF90EF90DF90CF90BF908A
:100B9000089540E060EFCE010E948204D12C01E074
:100BA00011E0CE010E941304F82ECE010E9413041E
:100BB00091E0F9120EC0813049F5113448F2EB860C
:100BC000E11002C081E08D878B81882309F281E0EA
:100BD000C3CFED2DF0E0F8120FC08B851817A0F4ED
:100BE000DE01AE0FBF1F13968C91802379F4F12C98
:100BF000193008F41C87E12EEC0FFD1F8381902F24
:100C00009095892383830AC08113F1CFFE01ED0DF6
:100C1000F11D8381802B8383FF24F3946F2DCE01FC
:100C20000E9453041F5F000F11F4D39401E087E08A
:100C30008D1508F0B6CFC1CF85ED8093BC008091B3
:100C4000BC0084FDFCCF1092D202089520917C025A
:100C5000260F3327331F21323105ECF42091D202C5
:100C6000FC0190E080E0243069F082E00895A091DA
:100C70007C022191AC01445A5D4FA40FB52FB11DE8
:100C80002C930196861798F380917C02680F6093ED
:100C90007C0280E0089581E00895E091D602809181
:100CA000D502E81730F4F0E0E45CFD4F808190E07D
:100CB00008958FEF9FEF08959091D6028091D5020D
:100CC0002FEF3FEF981748F4E92FF0E0E45CFD4F79
:100CD000208130E09F5F9093D602C90108958091F2
:100CE000D5029091D602891B990B0895CF92DF927D
:100CF000EF92FF920F931F93CF93DF937C01CB0171
:100D00008A0120913B02222389F0EB016B01C40E82
:100D1000D51ECC15DD0569F06991D701ED91FC91E7
:100D20000190F081E02DC7010995F3CF642F0E9457
:100D30002606C801DF91CF911F910F91FF90EF9090
:100D4000DF90CF900895CF93DF931F92CDB7DEB79A
:100D5000698320913B022223F9F02091D3022032B3
:100D600058F021E030E0FC013383228390E080E002
:100D70000F90DF91CF9108958091D402E82FF0E099
:100D8000E55EFD4F998190838F5F8093D4028093BD
:100D9000D30281E090E0ECCF61E0CE0101960E94A9
:100DA0002606F7CFCF93FC01C48121E020933B02BC
:100DB000C0931A021092D4021092D3028485682B39
:100DC0008AE793E00E94A3069091D302913208F043
:100DD0003FC08091D2028111FCCF82E08093D20289
:100DE00081E08093D1028FEF80939F021092C10225
:100DF0009093C002ABE1B2E0E0EAF2E080E0981349
:100E00002FC01092C2028091C202CC0FC82BC09397
:100E1000C2028091D002813039F51092D0028091C7
:100E2000C2028093BB008091BC0083FDF8CF85ECAB
:100E30008093BC008091D2028230E1F380919F02C6
:100E40008F3F31F080919F02803211F080919F029C
:100E50001092D4021092D30210923B02CF910895C7
:100E60002D9121938F5FCBCF85EEE2CF089590E057
:100E700080E00895FC0101900020E9F73197AF016F
:100E8000481B590BBC018BEA93E00C948B01CF9368
:100E9000DF93EC0188819981009711F00E9416166A
:100EA000198218821D821C821B821A82DF91CF91C7
:100EB00008950F931F93CF938C01C62F0E94D206E3
:100EC0006C2F6460C8010E94D2066C2F6B7FC80132
:100ED0000E94D20683EC90E00197F1F7CF911F9129
:100EE0000F9108950F931F93CF93DF938C01D62F0B
:100EF000C42F607F642B0E94590780E1D89FB00106
:100F000011246C2BC801DF91CF911F910F910C948C
:100F10005907CF93DF93CDB7DEB728970FB6F89474
:100F2000DEBF0FBECDBF98E0E8E0F1E0DE01119634
:100F300001900D929A95E1F79091B303961708F4FA
:100F40006FEF262F30E0220F331F41E050E04C0FAF
:100F50005D1F240F351FF9016081680F606840E054
:100F60008BEA93E028960FB6F894DEBF0FBECDBF94
:100F7000DF91CF910C94720741E00E94720781E0EB
:100F800090E008950F931F93CF93DF93EC01888136
:100F90009981009759F02A813B812617370730F055
:100FA00081E0DF91CF911F910F9108958B016F5FC9
:100FB0007F4F0E949F16009759F0998388831B8367
:100FC0000A832C813D81232B59F7FC011082E8CF45
:100FD00080E0E7CFEF92FF920F931F93CF93DF93C1
:100FE0006115710541F480E0DF91CF911F910F9160
:100FF000FF90EF90089541155105B1F07B01EC0190
:101000000C811D81040F151FB8010E94C20788239F
:1010100051F3288139818C819D81B701820F931F03
:101020000E9465171D830C8381E0DECFCF93DF9391
:10103000EC01FB0101900020E9F73197AF01461B5D
:10104000570B0E94EA07811103C0CE010E94470797
:10105000CE01DF91CF910895CF93DF93EC01FB0197
:1010600044815581608171810E94EA07811103C02A
:10107000CE010E944707CE01DF91CF910895EF92F4
:10108000FF920F931F93CF93DF93EC017B018A01B3
:10109000BA010E94C20781110BC0CE010E9447070E
:1010A000CE01DF91CF911F910F91FF90EF900895A6
:1010B0001D830C83B701888199810E946517F0CF49
:1010C000EF92FF920F931F93CF93DF93CDB7DEB7CD
:1010D00062970FB6F894DEBF0FBECDBF8C01CB0177
:1010E000F8011182108213821282158214824AE062
:1010F0009E012F5F3F4F7901B9010E949810F701BF
:1011000001900020E9F73197AF014E195F09B7014F
:10111000C8010E943F0862960FB6F894DEBF0FBE6A
:10112000CDBFDF91CF911F910F91FF90EF90089568
:101130001F920F920FB60F9211242F933F934F934C
:101140005F936F937F938F939F93AF93BF93EF932F
:10115000FF938DED92E00E940902FF91EF91BF9104
:10116000AF919F918F917F916F915F914F913F913F
:101170002F910F900FBE0F901F9018951F920F92F6
:101180000FB60F9211242F938F939F93EF93FF939A
:10119000E091ED02F091EE028081E091F302F09196
:1011A000F40282FD1BC090818091F6028F5F8F73E5
:1011B0002091F702821741F0E091F602F0E0E3524D
:1011C000FD4F958F8093F602FF91EF919F918F9144
:1011D0002F910F900FBE0F901F9018958081F4CF24
:1011E0001F920F920FB60F9211242F933F938F935C
:1011F0009F93AF93BF938091C4029091C502A09139
:10120000C602B091C7023091C30223E0230F2D37ED
:1012100058F50196A11DB11D2093C3028093C4020D
:101220009093C502A093C602B093C7028091C802F2
:101230009091C902A091CA02B091CB020196A11D62
:10124000B11D8093C8029093C902A093CA02B093C3
:10125000CB02BF91AF919F918F913F912F910F90B2
:101260000FBE0F901F90189526E8230F0296A11D20
:10127000B11DD2CF1F920F920FB60F9211242F9350
:101280003F934F935F936F937F938F939F93AF930E
:10129000BF93EF93FF938091B900887F803609F464
:1012A0004AC0F0F5883209F4A7C018F5803109F476
:1012B0009BC0B8F4882309F4F9C0883009F494C0BD
:1012C000FF91EF91BF91AF919F918F917F916F911E
:1012D0005F914F913F912F910F900FBE0F901F90F4
:1012E0001895883109F488C0803251F780939F02A5
:1012F00014C0803409F49DC040F48033B9F38833BE
:10130000F9F680939F0285ECB0C0803509F485C062
:10131000883509F496C0883499F60E941C06D0CF0F
:10132000883909F48CC038F5883729F050F48836AC
:1013300011F0803729F683E08093D20210929E024A
:1013400057C0883809F47BC0803919F0803809F01B
:10135000B7CF80919E02803208F071C0E0919E026A
:1013600081E08E0F80939E028091BB00F0E0E258F6
:10137000FD4F80833DC0803B39F0E0F4803A09F4B2
:1013800079C0883A09F09CCF84E08093D202109211
:101390007D0210927C02E091CE02F091CF0209957D
:1013A00080917C0281110FC081E080937C021092B9
:1013B0005C0209C0803C09F4A6CF883C09F4A3CFA5
:1013C000883B09F07DCFE0917D0281E08E0F809314
:1013D0007D02F0E0E45AFD4F80818093BB00909144
:1013E0007D0280917C0229C08091C2028093BB0063
:1013F00085EC8093BC0064CF9091C1028091C002C3
:10140000981758F5E091C10281E08E0F8093C102D8
:10141000F0E0E056FD4F8081E9CFE091C10281E02C
:101420008E0F8093C1028091BB00F0E0E056FD4F2B
:1014300080839091C1028091C0029817C8F285E81C
:10144000D8CFE091C10281E08E0F8093C1028091DC
:10145000BB00F0E0E056FD4F80838091D102811106
:101460005CCF81E08093D00284EA8093BC0010922C
:10147000D20226CF85EC8093BC001092D2028091DC
:101480009E02803230F4E0919E02F0E0E258FD4F7F
:10149000108260919E0270E0E091CC02F091CD024A
:1014A0008EE792E0099510929E020ACF10929F0259
:1014B00034CFCF92DF92EF92FF920F931F93E82FDA
:1014C000F92F05C0015011092109310961F19081FD
:1014D00096239417B9F305C0015011092109310968
:1014E00011F1908196239413F7CFC12CD12CE12CCC
:1014F000F12C0AC08FEFC81AD80AE80AF80A0C15AE
:101500001D052E053F0579F080818623841791F310
:101510006C2D7D2D8E2D9F2D1F910F91FF90EF90A3
:10152000DF90CF90089560E070E080E090E01F9140
:101530000F91FF90EF90DF90CF900895CF93DF93BE
:10154000EDEDF2E01382128288EE93E0A0E0B0E0CD
:1015500084839583A683B78324E131E0318320839C
:1015600025EC30E03587248724EC30E03787268768
:1015700020EC30E0318B208B21EC30E0338B228B60
:1015800022EC30E0358B248B26EC30E0378B268B39
:10159000118E128E138E148EEAE7F3E013821282FC
:1015A00084839583A683B78386E291E091838083C9
:1015B000EBEAF3E01382128288E391E09183808367
:1015C000118687E2848380E1828782E083871486A4
:1015D00060E087E00E94EF02EFEAF2E0E491ADE91B
:1015E000B3E0EC93EBE9F2E0E491F0E0EE0FFF1FE3
:1015F000E657FD4F8591949112969C938E93119787
:101600001B961C921B971D961C921D971C961C9254
:101610001C971A961C921A9719961C92199718964D
:101620001C92189717961C92179716961C9216974D
:1016300015961C92159714961C92149713961C924B
:101640001397EAE8F3E086E094E0928B818BB6830F
:10165000A5831482108289E0818381E08283838361
:10166000C6E8D3E081E090E09983888388E08A83AC
:1016700083E08B8361E088E00E94EF0261E08B8170
:101680000E94EF0260E08A810E94C10260E08B81CB
:10169000DF91CF910C94C102CF93DF93CDB7DEB72A
:1016A000EB970FB6F894DEBF0FBECDBF789484B52C
:1016B000826084BD84B5816084BD85B5826085BD4E
:1016C00085B5816085BD80916E00816080936E00DC
:1016D00010928100809181008260809381008091CE
:1016E000810081608093810080918000816080937F
:1016F00080008091B10084608093B1008091B0003F
:1017000081608093B00080917A00846080937A0039
:1017100080917A00826080937A0080917A00816063
:1017200080937A0080917A00806880937A0010928A
:10173000C10061E089E00E94EF0261E08AE00E945E
:10174000EF0261E08BE00E94EF0260E08CE00E941B
:10175000EF0261E08DE00E94EF0261E085E00E940F
:10176000EF0260E086E00E94EF02E091ED02F0916E
:10177000EE0282E08083E091E902F091EA021082B9
:10178000E091EB02F091EC028FEC80831092F50275
:10179000E091F102F091F20286E08083E091EF02A5
:1017A000F091F002808180618083E091EF02F091FE
:1017B000F002808188608083E091EF02F091F00276
:1017C000808180688083E091EF02F091F002808157
:1017D0008F7D80836FEF70E08AE00E942003E091AC
:1017E0008F03F09190031386158614861286118656
:1017F00010861782168215821482138210928E032D
:1018000001E0BE016E5D7F4F80918F039091900348
:101810000E949905882309F45BC067E0CE01829697
:101820000E94070499A58913ECCF80918A03811146
:1018300028C080918F03909190030E94D504BE012F
:101840006E5D7F4F80918F03909190030E94B6044C
:1018500040E064EB80918F03909190030E9482049A
:1018600080918F03909190030E941304182F809110
:101870008F03909190030E94D504111102C0009330
:101880008A03BE016F5F7F4FCE0182960E940D05D5
:1018900010918B038AA1803109F428C4CE0182966D
:1018A0000E946605811750F480918B0380938B030F
:1018B00080918E038F5F80938E03A3CF8AA18031A6
:1018C00011F489E0F3CFCE0182960E946605EECF37
:1018D0001092D6021092D5021092D4021092D30226
:1018E0001092D20281E08093D1021092D00261E086
:1018F00082E10E94C10261E083E10E94C102809105
:10190000B9008E7F8093B9008091B9008D7F80935C
:10191000B90088E48093B80085E48093BC0089E82E
:1019200091E09093CF028093CE028AE891E0909369
:10193000CD028093CC021092B0038091B603823026
:1019400018F098E09093B0038093B30362E370E0E3
:1019500080E090E00E94D4036091B7038BEA93E0AB
:101960000E94D20668EE73E080E090E00E94D4030B
:1019700060E38BEA93E00E9459070BE416E4C80188
:101980000197F1F760E38BEA93E00E945907C801E1
:101990000197F1F760E38BEA93E00E94590783E532
:1019A00092E00197F1F760E28BEA93E00E94590719
:1019B0006091B003606240E08BEA93E00E9472079E
:1019C00084E08093B10340E06CE08BEA93E00E94F6
:1019D000720740E061E08BEA93E00E9472078BE3BC
:1019E0009FE10197F1F78091B403882321F060E033
:1019F00080E00E94890782E08093B20340E066E0C5
:101A00008BEA93E00E94720740E062E08BEA93E089
:101A10000E9472078BE39FE10197F1F788E08093C2
:101A2000B70360E08BEA93E00E94D20660E081E0B9
:101A30000E94890780E491E00E943A0761E083E018
:101A40000E9489078BE491E00E943A0713E0812EFF
:101A5000912C03E2602E712C80E10E949A0397FD85
:101A60000396BC0175956795759567957093DC0233
:101A70006093DB02809100010E9420038EE00E94AF
:101A80009A039093DA028093D902E2E8F2E084911B
:101A9000E4EBF2E0B490E0EAF2E0A490AA2009F4CA
:101AA000ABC081110E949802EA2DF0E0EE0FFF1FFB
:101AB000E657FD4FA591B4918C91B82291E080E05A
:101AC00009F490E0A92EB82E80918F039091900395
:101AD0000E94D50440E06CEC80918F0390919003BC
:101AE0000E94820440918A0364E480918F03909164
:101AF00090030E94820480918C03882389F0809156
:101B00008B038A3009F47BC08B3009F47DC08930A7
:101B100009F07FC06EE570E080E090E00E94D403A1
:101B2000E0918F03F0919003138615861486128638
:101B30001186108617821682158214821382BE01C6
:101B40006E5D7F4F80918F03909190030E94990565
:101B5000882329F067E0CE0182960E940704BE0127
:101B60006F5F7F4FCE0182960E940D0568E0CE0127
:101B700001960E940704998589139FC049805A8065
:101B80008AA1823209F44AC0883209F447C0803100
:101B900009F04AC018858F81212F281B330BB9010A
:101BA000072E000C880B990B0E9406136B017C0119
:101BB000612F70E090E080E00E9404139B01AC0173
:101BC000C701B6010E94C7146B017C01B201759573
:101BD0006795072E000C880B990B0E94061320E0D6
:101BE00030E040E85EE30E945A149B01AC01C7015B
:101BF000B6010E945B142DC0B12CA12C65CF6CEBFB
:101C000070E080E090E08ACF67E771E080E090E0EC
:101C100085CF6EEE72E080E090E080CF8D818F33D3
:101C200059F138F48F31C1F12F2C3E2C4D2C5C2C06
:101C30004AC08F3599F08F37B9F7B201550C880B30
:101C4000990B0E94061320E030E040E85DE30E941B
:101C50006513F62EE72ED82EC92EE6CFB201759564
:101C60006795072E000C880B990B0E94061320E045
:101C700030E040E05EE3EBCFB20175956795759576
:101C80006795072E000C880B990B0E94061320E025
:101C900030E040E85EE3DBCFB20143E07595679545
:101CA0004A95E1F7072E000C880B990B0E9406134A
:101CB00020E030E040E05FE3CACF212C312C9EEFE2
:101CC000492E22EC522E60E085E00E94C102C40140
:101CD0000197F1F761E085E00E94C102C30101971D
:101CE000F1F760E085E00E94C102EEEAF2E0649163
:101CF000EAE9F2E0E491F0E0EE0FFF1FE657FD4F56
:101D00008591949100E412E42FE030E0462F0E9488
:101D1000590A611571058105910529F06F5F7F4FA3
:101D20008F4F9F4F9F700E94061326E933E44BE0CC
:101D30005DE30E94651320E030E040E05FE30E9435
:101D400065130E9439157093D8026093D702B501CC
:101D5000CE0182960E9460086091D7027091D802ED
:101D6000CE018A960E94600819AA18AA1BAA1AAA6C
:101D70001DAA1CAA8E010F5F1F4F22E044E0B10193
:101D8000C2010E947A10009709F4C2C0FC010190C0
:101D90000020E9F73197AF01481B590BBC01CE0178
:101DA000C0960E943F086091D9027091DA02CE017C
:101DB00001960E9460081FAA1EAA19AE18AE1BAE9B
:101DC0001AAE48E050E067E571E0CE01C6960E9489
:101DD0003F08BE016F5F7F4FCE01C6960E942C0860
:101DE00060E671E00E941608BE01605D7F4F0E94B0
:101DF0002C0869E671E00E941608BE01665D7F4FFF
:101E00000E942C0866E771E00E941608BE016E5D14
:101E10007F4F0E942C0862E871E00E941608FC01C6
:101E200044815581608171818DED92E00E948B012A
:101E300042E050E060E871E08DED92E00E948B019D
:101E40008EA99FA90E94161689819A810E94161652
:101E500088A999A90E9416168AA59BA50E94161604
:101E60008AA19BA10E9416168091D9029091DA0254
:101E700045970CF452C060E080E00E94890783E837
:101E800091E00E943A0761E080E00E94890781E9C1
:101E900091E00E943A0768EE73E080E090E00E94D3
:101EA000D40370E060E08AE00E9420036091DB02CE
:101EB0007091DC0289E00E94200361E08DE00E94C5
:101EC000C10289E00E949A0390930101809300016E
:101ED00004E610E068E873E180E090E00E94D4033B
:101EE00060E080E00E94890783EA91E00E943A075F
:101EF0000150110979F780E090E0892B09F4ACCD0D
:101F00000E94F501882309F4A7CD0E940000A4CD0A
:101F1000CE01C0960E94470746CFAB2809F041C0CA
:101F200060E080E00E94890783E891E00E943A0720
:101F300061E080E00E94890783EB91E00E943A070C
:101F400068EE73E080E090E00E94D40370E060E00F
:101F50008AE00E9420036091DB027091DC0289E03C
:101F60000E94200361E08DE00E94C10289E00E948E
:101F70009A03909301018093000104E610E068E861
:101F800073E180E090E00E94D40360E080E00E9472
:101F9000890783EA91E00E943A070150110979F715
:101FA000AACF20E030E04CE052E4B101C2010E942F
:101FB0006F1518160CF084C068EE73E080E090E0B6
:101FC0000E94D4030091DB021091DC02B8018AE088
:101FD0000E942003B80189E00E94200368EE73E0AC
:101FE00080E090E00E94D40380E890E00E947D03AE
:101FF00020E030E040E252E4B101C2010E946F15DE
:1020000018160CF045C060E080E00E94890783E864
:1020100091E00E943A0761E080E00E94890785EC28
:1020200091E00E943A0790E080E00E947D0368EE14
:1020300073E080E090E00E94D40370E060E08AE00A
:102040000E9420036091DB027091DC0289E00E9413
:10205000200361E08DE00E94C10289E00E949A03A2
:10206000909301018093000104E610E068E873E1B9
:1020700080E090E00E94D40360E080E00E94890745
:1020800083EA91E00E943A070150110979F733CFB2
:102090008091D7029091D8020F970CF02CCF60E07E
:1020A00080E00E94890785ED91E00E943A0761E097
:1020B00080E00E94890788EE91E00E943A071BCFDA
:1020C0008091D7029091D8020F970CF014CF60E066
:1020D00080E00E94890788EF91E00E943A0761E062
:1020E00080E00E94890788E092E0E7CF1A3008F08C
:1020F000DBCBE7CBEF920F931F93CF93DF93E801F6
:1021000034E047FD34E1042E000C550B57FF03C0AB
:10211000519541955109E32E022F242FAE010E94C3
:10212000BD10CE01DF91CF911F910F91EF900895D7
:10213000BB274A3031F4992322F4BDE29095819572
:102140009F4F0C94A410BB27FB015527AA27880F8B
:10215000991FAA1FA41710F0A41B83955051B9F71B
:10216000A05DAA3308F0A95DA193009779F7B1119A
:10217000B1931192CB010C94F412A9E0B0E0E3EC1E
:10218000F0E10C9429146A01F22EB02E102FFBE31B
:10219000AF2EA01608F41BE31F5F012F27E0AE014E
:1021A0004F5F5F4F0E941C12BC018981982F99706C
:1021B000913009F43FC09BE2E1FC04C09E2D917078
:1021C000E0FC3AC05E2D5071E82FE87083FF46C0F6
:1021D00084E0911101C083E0EF2DE81B8F1508F01A
:1021E000E0E0D6018E2F20E2552351F1992329F00A
:1021F000D6019C93C60101966C0196012D5F3F4F5D
:10220000E2FE24C08EE4D6018C9391E411969C9357
:10221000119712968C93D9018E2F90E281111BC0D9
:10222000E20FF32FF11D10828EEF9FEF2996ECE065
:102230000C9445149DE2C6CF90E2C4CF2D938150FB
:102240008111FCCFCE0ED11CE0E0D0CF8EE6D601BE
:102250008C9391E6DBCF9D938150E0CF482F447063
:1022600082FF3DC084E0911101C083E08F1510F41E
:10227000EF2DE81BD6018E2F20E2552309F199237B
:1022800029F0D6019C93C60101966C0196012D5F41
:102290003F4FE2FE1BC089E4D6018C938EE4119679
:1022A0008C93119786E412968C93D9018E2F90E22D
:1022B000882309F4B5CF9D938150FACF2D93815097
:1022C0008111FCCFCE0ED11CE0E0D9CF89E6D6013A
:1022D0008C938EE611968C93119786E6E4CF9B0142
:1022E00077FF02C030E020E0A1E0B0E0911102C031
:1022F000B0E0A0E0F9013196AE0FBF1F8B2C912CFE
:10230000BB2009F461C05401EFEFAE1ABE0AAA0D5A
:10231000BB1DFA161B0619F014F04F2D4A1B511164
:1023200088C0E3FC59C07601A42FB0E2A1114FC0D0
:10233000C40ED11C992309F45BC040E0D60111966C
:10234000F60190836D01552309F448C0012F060F53
:102350009A81582F507184FF03C0913309F40150C2
:1023600010160CF047C0093008F008E0EEE2FE2E2F
:102370005B01A01AB10885019194819491082F3FC7
:10238000320729F4D601FC92F60131966F016217EB
:10239000730794F1021713077CF5DB01A21BB30B43
:1023A000AA24A394B12CAC0EBD1EAA0DBB1D119680
:1023B0008C9121503109D601119628153905F4F078
:1023C000F60180836D01DBCFB12CA12CA0CFF701EA
:1023D000B1937F01A150AACF9111B0CFD601942F14
:1023E00050E302C05D9391509111FCCFC40ED11CFB
:1023F00040E0ACCF01E0BACF80E3DBCF62177307D8
:1024000031F4963388F4953311F4552369F0F601CD
:102410008083FD01842F90E2811108C0A40FB11DBB
:102420001C9290E080E002CF81E3F1CF9193815044
:10243000F3CF911183CF8ACF283008F027E03327DC
:10244000DA01990F311D87FD9160009661057105D4
:1024500039F432602E5F3D9330E32A95E1F7089519
:102460009F3F30F080387105610509F03C5F3C5FAB
:102470003D93913008F08068911DDF93CF931F93B7
:102480000F93FF92EF92192F987F9695E92F9695CB
:102490009695E90FFF27EE53FF4F99273327EE2438
:1024A000FF24A701E70105900894079428F4360F4C
:1024B000E71EF81E491F511D660F771F881F991FC1
:1024C0000694A1F70590079428F4E70EF81E491F1B
:1024D000561FC11D770F881F991F661F0694A1F70D
:1024E0000590079428F4F80E491F561FC71FD11DE9
:1024F000880F991F661F771F0694A1F70590079410
:1025000020F4490F561FC71FD81F990F661F771F4A
:10251000881F0694A9F784911095177041F0D695FD
:10252000C79557954795F794E7941A95C1F7E8E64C
:10253000F0E068941590159135916591959105900D
:102540007FE27395E118F10A430B560BC90BD009D2
:10255000C0F7E10CF11E431F561FC91FD01D7EF4AA
:10256000703311F48A95E6CFE894015030F0080FEB
:102570000AF40027021708F4202F2395022F7A333C
:1025800028F079E37D932A95E9F710C07D932A9589
:1025900089F6069497956795379517951794E118DE
:1025A000F10A430B560BC90BD00998F023957E9185
:1025B00073957A3308F070E37C932013B8F77E911B
:1025C00070617D9330F0839571E37D9370E32A957C
:1025D000E1F71124EF90FF900F911F91CF91DF91C0
:1025E000992787FD90950895DC01FC01672F719173
:1025F0007723E1F7329704C07C916D9370836291E9
:10260000AE17BF07C8F30895E89409C097FB3EF4DE
:1026100090958095709561957F4F8F4F9F4F99232F
:10262000A9F0F92F96E9BB279395F69587957795AD
:102630006795B795F111F8CFFAF4BB0F11F460FF6D
:102640001BC06F5F7F4F8F4F9F4F16C0882311F0C5
:1026500096E911C0772321F09EE8872F762F05C0D9
:10266000662371F096E8862F70E060E02AF09A9574
:10267000660F771F881FDAF7880F9695879597F969
:102680000895990F0008550FAA0BE0E8FEEF161603
:102690001706E807F907C0F012161306E407F50756
:1026A00098F0621B730B840B950B39F40A2661F0CA
:1026B000232B242B252B21F408950A2609F4A1406D
:1026C000A6958FEF811D811D08950E9478130C94AB
:1026D000E9130E94DB1338F00E94E21320F09523E7
:1026E00011F00C94D2130C94D81311240C941D14D3
:1026F0000E94FA1370F3959FC1F3950F50E0551F98
:10270000629FF001729FBB27F00DB11D639FAA2746
:10271000F00DB11DAA1F649F6627B00DA11D661F95
:10272000829F2227B00DA11D621F739FB00DA11DB6
:10273000621F839FA00D611D221F749F3327A00D70
:10274000611D231F849F600D211D822F762F6A2F0C
:1027500011249F5750409AF0F1F088234AF0EE0F71
:10276000FF1FBB1F661F771F881F91505040A9F79E
:102770009E3F510580F00C94D2130C941D145F3FC2
:10278000E4F3983ED4F3869577956795B795F795DA
:10279000E7959F5FC1F7FE2B880F911D9695879552
:1027A00097F9089597F99F6780E870E060E00895D1
:1027B0009FEF80EC089500240A9416161706180659
:1027C0000906089500240A94121613061406050635
:1027D0000895092E0394000C11F4882352F0BB0FC6
:1027E00040F4BF2B11F460FF04C06F5F7F4F8F4F29
:1027F0009F4F089557FD9058440F551F59F05F3F64
:1028000071F04795880F97FB991F61F09F3F79F012
:1028100087950895121613061406551FF2CF469594
:10282000F1DF08C0161617061806991FF1CF869516
:102830007105610508940895E894BB2766277727FA
:10284000CB0197F908952F923F924F925F926F922A
:102850007F928F929F92AF92BF92CF92DF92EF9230
:10286000FF920F931F93CF93DF93CDB7DEB7CA1BB1
:10287000DB0B0FB6F894DEBF0FBECDBF09942A88DC
:10288000398848885F846E847D848C849B84AA8484
:10289000B984C884DF80EE80FD800C811B81AA8111
:1028A000B981CE0FD11D0FB6F894DEBF0FBECDBFDC
:1028B000ED0108955058BB27AA270E9472140C946A
:1028C000E9130E94DB1338F00E94E21320F039F480
:1028D0009F3F19F426F40C94D8130EF4E095E7FB0F
:1028E0000C94D213E92F0E94FA1358F3BA17620717
:1028F00073078407950720F079F4A6F50C941C144F
:102900000EF4E0950B2EBA2FA02D0B01B90190010A
:102910000C01CA01A0011124FF27591B99F0593F4E
:1029200050F4503E68F11A16F040A22F232F342F96
:102930004427585FF3CF469537952795A795F040E4
:102940005395C9F77EF41F16BA0B620B730B840BF9
:10295000BAF09150A1F0FF0FBB1F661F771F881FB1
:10296000C2F70EC0BA0F621F731F841F48F4879509
:1029700077956795B795F7959E3F08F0B0CF9395FB
:10298000880F08F09927EE0F9795879508950E9474
:10299000DB140C94E9130E94E21358F00E94DB133D
:1029A00040F029F45F3F29F00C94D21351110C949C
:1029B0001D140C94D8130E94FA1368F39923B1F3F1
:1029C000552391F3951B550BBB27AA276217730755
:1029D000840738F09F5F5F4F220F331F441FAA1FE9
:1029E000A9F335D00E2E3AF0E0E832D091505040A5
:1029F000E695001CCAF72BD0FE2F29D0660F771F53
:102A0000881FBB1F261737074807AB07B0E809F038
:102A1000BB0B802DBF01FF2793585F4F3AF09E3FBD
:102A2000510578F00C94D2130C941D145F3FE4F31D
:102A3000983ED4F3869577956795B795F7959F5F00
:102A4000C9F7880F911D9695879597F90895E1E04C
:102A5000660F771F881FBB1F621773078407BA07AB
:102A600020F0621B730B840BBA0BEE1F88F7E09506
:102A700008950E9440156894B1110C941D14089596
:102A80000E94021488F09F5798F0B92F9927B751E8
:102A9000B0F0E1F0660F771F881F991F1AF0BA9502
:102AA000C9F714C0B13091F00E941C14B1E0089530
:102AB0000C941C14672F782F8827B85F39F0B93F22
:102AC000CCF3869577956795B395D9F73EF49095B5
:102AD0008095709561957F4F8F4F9F4F08950E940D
:102AE000411308F48FEF0895EE0FFF1F0590F49146
:102AF000E02D09940F931F93CF93DF9382309105BC
:102B000010F482E090E0E091BA03F091BB0330E072
:102B100020E0B0E0A0E0309799F42115310509F4E8
:102B20004AC0281B390B24303105D8F58A819B8196
:102B30006115710589F1FB0193838283FE0111C048
:102B4000408151810281138148175907E0F04817ED
:102B5000590799F4109761F012960C9312971396F7
:102B60001C933296CF01DF91CF911F910F91089561
:102B70000093BA031093BB03F4CF2115310551F034
:102B80004217530738F0A901DB019A01BD01DF01AB
:102B9000F801C1CFEF01F9CF9093BB038093BA0343
:102BA000CDCFFE01E20FF31F8193919322503109A3
:102BB00039832883D7CF2091B8033091B903232BD1
:102BC00041F420910401309105013093B903209321
:102BD000B80320910201309103012115310541F420
:102BE0002DB73EB74091060150910701241B350BCC
:102BF000E091B803F091B903E217F307A0F42E1B9C
:102C00003F0B2817390778F0AC014E5F5F4F241750
:102C1000350748F04E0F5F1F5093B9034093B80338
:102C2000819391939FCFF0E0E0E09CCFCF93DF932F
:102C30000097E9F0FC01329713821282A091BA0347
:102C4000B091BB03ED0130E020E01097A1F42081AA
:102C50003181820F931F2091B8033091B903281757
:102C6000390709F061C0F093B903E093B803DF912D
:102C7000CF910895EA01CE17DF07E8F54A815B811D
:102C80009E0141155105B1F7E901FB83EA834991A2
:102C90005991C40FD51FEC17FD0761F48081918114
:102CA0000296840F951FE90199838883828193811D
:102CB0009B838A83F0E0E0E012968D919C911397BC
:102CC0000097B9F52D913C911197CD010296820F95
:102CD000931F2091B8033091B9032817390739F6AB
:102CE000309751F51092BB031092BA03B093B90319
:102CF000A093B803BCCFD383C28340815181840F9A
:102D0000951FC817D90761F44E5F5F4F888199817D
:102D1000480F591F518340838A819B81938382830B
:102D20002115310509F0B0CFF093BB03E093BA034E
:102D30009ECFFD01DC01C0CF13821282D7CFB0E05D
:102D4000A0E0E5EAF6E10C9425148C01009751F41B
:102D5000CB010E947A158C01C801CDB7DEB7E0E146
:102D60000C944114FC01E60FF71F9C01225031091D
:102D7000E217F30708F49DC0D901CD91DC911197BA
:102D8000C617D70798F0C530D10530F3CE010497A8
:102D90008617970708F3C61BD70B2297C193D193C9
:102DA0006D937C93CF010E941616D6CF5B01AC1AAF
:102DB000BD0A4C018C0E9D1EA091BA03B091BB03BD
:102DC000512C412CF12CE12C109731F58091B80356
:102DD0009091B9038815990509F05CC0461657060D
:102DE00008F058C08091020190910301009741F4CE
:102DF0008DB79EB74091060150910701841B950B3A
:102E0000E817F90708F055C0F093B903E093B80349
:102E1000F90171836083A0CF8D919C9111971296D7
:102E20006C90129713967C901397A815B90559F5D5
:102E30006C0142E0C40ED11CCA14DB0420F1AC01C9
:102E40004A195B09DA011296159780F06282738243
:102E500051834083D9016D937C93E114F10471F0A7
:102E6000D7011396FC93EE93129776CF22968C0F90
:102E70009D1FF90191838083F301EFCFF093BB0392
:102E8000E093BA0369CF4816590608F42C017D0176
:102E9000D3019ACFCB010E947A157C01009749F0AB
:102EA000AE01B8010E945C17C8010E941616870186
:102EB00053CF10E000E050CFFB01DC0102C00190D5
:102EC0000D9241505040D8F70895FB01DC0101906C
:0C2ED0000D920020E1F70895F894FFCF68
:102EDC000A000000BC0380000000400014005400F5
:102EEC00000000002B028B01B8017802E901C70138
:102EFC00DB0100000000A3067606370706046F0608
:102F0C005C064D0600000000BC078B013707360736
:102F1C0057656C636F6D6520546F0041726361641B
:102F2C00652047616D65005761746572203D200016
:102F3C002054656D70203D20002044697374616ECF
:102F4C006365203D200020466C616D65203D2000AE
:102F5C000D0A00202020416C657274202121212053
:102F6C0000576174657220446574656374656420F0
:102F7C00202000202020526573746172742021215E
:102F8C00212000466972652044657465637465642C
:102F9C002020202000486F7420446574656374659C
:102FAC006420202000537461747573203C20776179
:102FBC00726E696E67203E00426577617265203AD9
:102FCC0020486F7420202000537461747573203C6A
:102FDC002053616665203E00457665727974686998
:0A2FEC006E6720436C6561720000FF
:00000001FF
