:100000000C9462000C948A000C948A000C948A0070
:100010000C948A000C948A000C948A000C948A0038
:100020000C948A000C948A000C948A000C948A0028
:100030000C948A000C948A000C948A000C948A0018
:100040000C94D9040C948A000C94A7040C94810499
:100050000C948A000C948A000C948A000C948A00F8
:100060000C9423050C948A00000000002400270053
:100070002A0000000000250028002B0000000000DE
:1000800023002600290004040404040404040202DA
:100090000202020203030303030301020408102007
:1000A0004080010204081020010204081020000012
:1000B0000008000201000003040700000000000027
:1000C0000000420611241FBECFEFD8E0DEBFCDBF37
:1000D00011E0A0E0B1E0E8E0F1E102C005900D928E
:1000E000AC37B107D9F722E0ACE7B1E001C01D920F
:1000F000A33FB207E1F710E0C2E6D0E004C02197C9
:10010000FE010E947C08C136D107C9F70E948B0608
:100110000C9482080C94000008950895AF92BF9249
:10012000CF92DF92EF92FF920F931F93CF93DF93C3
:100130006C017B018B01040F151FEB015E01AE18F2
:10014000BF08C017D10759F06991D601ED91FC9114
:100150000190F081E02DC6010995892B79F7C50141
:10016000DF91CF911F910F91FF90EF90DF90CF9093
:10017000BF90AF900895FC01538D448D252F30E042
:10018000842F90E0821B930B541710F0CF960895A4
:1001900001970895FC01918D828D981761F0A28DD1
:1001A000AE0FBF2FB11D5D968C91928D9F5F9F7397
:1001B000928F90E008958FEF9FEF0895FC01918D4D
:1001C000828D981731F0828DE80FF11D858D90E0BA
:1001D00008958FEF9FEF0895FC01918D228D892F57
:1001E00090E0805C9F4F821B91098F73992708953F
:1001F0008DE392E00E94EC0021E0892B09F420E0DD
:10020000822F089580E090E0892B29F00E94F80069
:1002100081110C9400000895FC01A48DA80FB92F42
:10022000B11DA35ABF4F2C91848D90E001968F731E
:100230009927848FA689B7892C93A089B1898C913D
:10024000837080648C93938D848D981306C002888C
:10025000F389E02D80818F7D80830895EF92FF9256
:100260000F931F93CF93DF93EC0181E0888F9B8DD9
:100270008C8D98131AC0E889F989808185FF15C093
:100280009FB7F894EE89FF896083E889F9898081B6
:100290008370806480839FBF81E090E0DF91CF9185
:1002A0001F910F91FF90EF900895F62E0B8D10E0A7
:1002B0000F5F1F4F0F731127E02E8C8D8E110CC016
:1002C0000FB607FCFACFE889F989808185FFF5CF61
:1002D000CE010E940C01F1CFEB8DEC0FFD2FF11D33
:1002E000E35AFF4FF0829FB7F8940B8FEA89FB899E
:1002F00080818062CFCFCF93DF93EC01888D8823FC
:10030000B9F0AA89BB89E889F9898C9185FD03C078
:10031000808186FD0DC00FB607FCF7CF8C9185FF5D
:10032000F2CF808185FFEDCFCE010E940C01E9CF95
:10033000DF91CF910895833081F028F4813099F0D6
:100340008230A9F008958730A9F08830C9F0843050
:10035000B1F4809180008F7D03C0809180008F7701
:1003600080938000089584B58F7784BD089584B507
:100370008F7DFBCF8091B0008F778093B000089580
:100380008091B0008F7DF9CF1F93CF93DF93282FFB
:1003900030E0F901E255FF4F8491F901E656FF4F35
:1003A000D491F901EA57FF4FC491CC23A9F0162F3D
:1003B00081110E949B01EC2FF0E0EE0FFF1FEE5821
:1003C000FF4FA591B4918FB7F894EC91111108C02B
:1003D000D095DE23DC938FBFDF91CF911F910895DD
:1003E000DE2BF8CFCF93DF9390E0FC01E656FF4F72
:1003F00024918A579F4FFC0184918823D1F090E08B
:10040000880F991FFC01E859FF4FA591B491FC0199
:10041000EE58FF4FC591D49161110EC09FB7F8946B
:100420008C91E22FE0958E238C932881E223E88340
:100430009FBFDF91CF9108958FB7F894EC91E22B95
:10044000EC938FBFF6CF1F93CF93DF93182FEB0161
:1004500061E00E94F201209739F460E0812FDF9182
:10046000CF911F910C94C401CF3FD10511F461E0ED
:10047000F5CFE12FF0E0E255FF4FE491E33031F1A9
:1004800040F4E130B1F0E230E1F0C038D1057CF762
:10049000E4CFE73029F1E83059F1E430B1F7809149
:1004A0008000806280938000D0938B00C0938A008C
:1004B00004C084B5806884BDC7BDDF91CF911F9112
:1004C000089584B5806284BDC8BDF7CF8091800057
:1004D000806880938000D0938900C0938800EDCF1E
:1004E0008091B00080688093B000C093B300E5CFE6
:1004F0008091B00080628093B000C093B400DDCFE3
:100500008E3008F08E508770806480937C008091DC
:100510007A00806480937A0080917A0086FDFCCF17
:10052000809178009091790008953FB7F894809178
:100530002A0290912B02A0912C02B0912D0226B597
:10054000A89B05C02F3F19F00196A11DB11D3FBF0B
:10055000BA2FA92F982F8827BC01CD01620F711DDA
:10056000811D911D42E0660F771F881F991F4A95D4
:10057000D1F708958F929F92AF92BF92CF92DF9260
:10058000EF92FF924B015C010E9495026B017C018E
:100590000E9495026C197D098E099F09683E73407F
:1005A00081059105A8F321E0821A9108A108B108FC
:1005B00088EEC80E83E0D81EE11CF11C8114910462
:1005C000A104B10429F7FF90EF90DF90CF90BF9086
:1005D000AF909F908F90089585ED8093BC0080919F
:1005E000BC0084FDFCCF1092340208952091DE01FE
:1005F000260F3327331F21323105ECF420913402CA
:10060000FC0190E080E0243069F082E00895A09140
:10061000DE012191AC0142545E4FA40FB52FB11DF4
:100620002C930196861798F38091DE01680F6093F2
:10063000DE0180E0089581E008950895E091380298
:1006400080913702E81730F4F0E0E256FE4F8081E7
:1006500090E008958FEF9FEF089590913802809178
:1006600037022FEF3FEF981748F4E92FF0E0E256FA
:10067000FE4F208130E09F5F90933802C9010895BA
:100680008091370290913802891B990B0895CF927F
:10069000DF92EF92FF920F931F93CF93DF937C0132
:1006A000CB018A0120919D01222389F0EB016B018E
:1006B000C40ED51ECC15DD0569F06991D701ED9109
:1006C000FC910190F081E02DC7010995F3CF642FD3
:1006D0000E94F602C801DF91CF911F910F91FF9008
:1006E000EF90DF90CF900895CF93DF931F92CDB717
:1006F000DEB7698320919D012223F9F02091350214
:10070000203258F021E030E0FC013383228390E076
:1007100080E00F90DF91CF91089580913602E82F0D
:10072000F0E0E358FE4F998190838F5F809336020B
:100730008093350281E090E0ECCF61E0CE0101963C
:100740000E94F602F7CFCF93FC01C48121E02093F1
:100750009D01C0937C01109236021092350284856F
:10076000682B8AED92E00E947403909135029132D9
:1007700008F03FC0809134028111FCCF82E0809369
:10078000340281E0809333028FEF80930102109254
:10079000230290932202ADE7B1E0E2E0F2E080E0D4
:1007A00098132FC01092240280912402CC0FC82BE2
:1007B000C093240280913202813039F510923202C6
:1007C000809124028093BB008091BC0083FDF8CF10
:1007D00085EC8093BC00809134028230E1F38091FB
:1007E00001028F3F31F080910102803211F080913F
:1007F0000102109236021092350210929D01CF91A3
:1008000008952D9121938F5FCBCF85EEE2CF089590
:1008100090E080E00895FC0101900020E9F7319715
:10082000AF01481B590BBC0186EE92E00C948E0080
:100830000F931F93CF938C01C62F0E94A3036C2F9D
:100840006460C8010E94A3036C2F6B7FC8010E94E3
:10085000A30383EC90E00197F1F7CF911F910F91E3
:1008600008950F931F93CF93DF938C01D62FC42F3E
:10087000607F642B0E94180480E1D89FB00111248E
:100880006C2BC801DF91CF911F910F910C9418042C
:10089000CF93DF93CDB7DEB728970FB6F894DEBFBE
:1008A0000FBECDBF98E0E2E0F1E0DE0111960190CD
:1008B0000D929A95E1F79091EE02961708F46FEF7A
:1008C000262F30E0220F331F41E050E04C0F5D1F18
:1008D000240F351FF9016081680F606840E086EEE3
:1008E00092E028960FB6F894DEBF0FBECDBFDF9121
:1008F000CF910C94310441E00E94310481E090E0FA
:1009000008951F920F920FB60F9211242F933F93C9
:100910004F935F936F937F938F939F93AF93BF9307
:10092000EF93FF938DE392E00E940C01FF91EF9112
:10093000BF91AF919F918F917F916F915F914F91F7
:100940003F912F910F900FBE0F901F9018951F92FF
:100950000F920FB60F9211242F938F939F93EF93C3
:10096000FF93E0914D02F0914E028081E09153029D
:10097000F091540282FD1BC09081809156028F5FDE
:100980008F7320915702821741F0E0915602F0E0F8
:10099000E35CFD4F958F80935602FF91EF919F91FD
:1009A0008F912F910F900FBE0F901F9018958081FF
:1009B000F4CF1F920F920FB60F9211242F933F93F3
:1009C0008F939F93AF93BF938091260290912702BC
:1009D000A0912802B09129023091250223E0230F33
:1009E0002D3758F50196A11DB11D20932502809346
:1009F000260290932702A0932802B09329028091A7
:100A00002A0290912B02A0912C02B0912D02019606
:100A1000A11DB11D80932A0290932B02A0932C025A
:100A2000B0932D02BF91AF919F918F913F912F91E4
:100A30000F900FBE0F901F90189526E8230F029677
:100A4000A11DB11DD2CF1F920F920FB60F9211248C
:100A50002F933F934F935F936F937F938F939F93C6
:100A6000AF93BF93EF93FF938091B900887F803657
:100A700009F44AC0F0F5883209F4A7C018F58031AE
:100A800009F49BC0B8F4882309F4F9C0883009F44C
:100A900094C0FF91EF91BF91AF919F918F917F9102
:100AA0006F915F914F913F912F910F900FBE0F90DB
:100AB0001F901895883109F488C0803251F78093CF
:100AC000010214C0803409F49DC040F48033B9F3AE
:100AD0008833F9F68093010285ECB0C0803509F4C3
:100AE00085C0883509F496C0883499F60E94EC02D6
:100AF000D0CF883909F48CC038F5883729F050F404
:100B0000883611F0803729F683E080933402109202
:100B1000000257C0883809F47BC0803919F080384A
:100B200009F0B7CF80910002803208F071C0E091E7
:100B3000000281E08E0F809300028091BB00F0E004
:100B4000E052FE4F80833DC0803B39F0E0F4803AB4
:100B500009F479C0883A09F09CCF84E0809334028C
:100B60001092DF011092DE01E0913002F09131022B
:100B700009958091DE0181110FC081E08093DE0133
:100B80001092BE0109C0803C09F4A6CF883C09F44C
:100B9000A3CF883B09F07DCFE091DF0181E08E0F8C
:100BA0008093DF01F0E0E254FE4F80818093BB0030
:100BB0009091DF018091DE0129C080912402809311
:100BC000BB0085EC8093BC0064CF909123028091A0
:100BD0002202981758F5E091230281E08E0F80934E
:100BE0002302F0E0EE5FFD4F8081E9CFE091230228
:100BF00081E08E0F809323028091BB00F0E0EE5FD6
:100C0000FD4F808390912302809122029817C8F2B1
:100C100085E8D8CFE091230281E08E0F80932302F4
:100C20008091BB00F0E0EE5FFD4F80838091330246
:100C300081115CCF81E08093320284EA8093BC0012
:100C40001092340226CF85EC8093BC0010923402BF
:100C500080910002803230F4E0910002F0E0E05236
:100C6000FE4F10826091000270E0E0912E02F09140
:100C70002F0280EE91E00995109200020ACF1092A7
:100C8000010234CFEDE3F2E01382128288EE93E0AA
:100C9000A0E0B0E084839583A683B7832EE031E0A3
:100CA0003183208325EC30E03587248724EC30E045
:100CB0003787268720EC30E0318B208B21EC30E029
:100CC000338B228B22EC30E0358B248B26EC30E00A
:100CD000378B268B118E128E138E148EEAEDF2E076
:100CE0001382128284839583A683B78380E291E086
:100CF00091838083E6EEF2E01382128282E391E038
:100D000091838083118687E2848380E1828782E0F9
:100D1000838714860895789484B5826084BD84B5F1
:100D2000816084BD85B5826085BD85B5816085BDE6
:100D300080916E00816080936E001092810080919E
:100D40008100826080938100809181008160809326
:100D50008100809180008160809380008091B1004B
:100D600084608093B1008091B00081608093B00076
:100D700080917A00846080937A0080917A0082600A
:100D800080937A0080917A00816080937A008091CC
:100D90007A00806880937A001092C10061E089E057
:100DA0000E94F20161E08AE00E94F20161E08BE0C2
:100DB0000E94F20160E08CE00E94F20161E08DE0AF
:100DC0000E94F201E0914D02F0914E0282E0808398
:100DD000E0914902F0914A021082E0914B02F091B9
:100DE0004C028FEC808310925502E0915102F091F9
:100DF000520286E08083E0914F02F09150028081A0
:100E000080618083E0914F02F09150028081886080
:100E10008083E0914F02F09150028081806880834E
:100E2000E0914F02F091500280818F7D80836FEFBF
:100E300070E08AE00E94230210923802109237027A
:100E400010923602109235021092340281E08093A3
:100E500033021092320261E082E10E94C40161E03B
:100E600083E10E94C4018091B9008E7F8093B90014
:100E70008091B9008D7F8093B90088E48093B80099
:100E800085E48093BC008CE890E0909331028093DD
:100E900030028DE890E090932F0280932E02109202
:100EA000EB028091F102823018F098E09093EB020F
:100EB0008093EE0262E370E080E090E00E94BA026C
:100EC0006091F20286EE92E00E94A30368EE73E066
:100ED00080E090E00E94BA0260E386EE92E00E9419
:100EE0001804CBE4D6E4CE010197F1F760E386EE77
:100EF00092E00E9418042197F1F760E386EE92E0F9
:100F00000E94180483E592E00197F1F760E286EE13
:100F100092E00E9418046091EB02606240E086EE6D
:100F200092E00E94310484E08093EC0240E06CE0A7
:100F300086EE92E00E94310440E061E086EE92E0AD
:100F40000E9431048BE39FE10197F1F78091EF025A
:100F5000882321F060E080E00E94480482E08093D2
:100F6000ED0240E066E086EE92E00E94310440E04F
:100F700062E086EE92E00E9431048BE39FE10197EC
:100F8000F1F788E08093F20260E086EE92E00E9442
:100F9000A30360E081E00E9448048AE391E00E949C
:100FA0000B0461E083E00E94480485E491E00E9424
:100FB0000B040AEB10E026EAE22E20E0F22E32E9E2
:100FC000C32E30E0D32E40E0A42E40E0B42E80E1CA
:100FD0000E94800297FD0396BC01759567957595F3
:100FE000679570933C0260933B02809100010E94E0
:100FF00023028EE00E948002EC0190933A028093DB
:101000003902F8018491F7019490F60184908820C8
:1010100009F449C081110E949B01E82DF0E0EE0F18
:10102000FF1FE458FF4FA591B4918C919822D9F1FC
:101030002B976CF168EE73E080E090E00E94BA02BA
:1010400060E080E00E94480481E591E00E940B048A
:1010500061E080E00E9448048EE591E00E940B046C
:1010600070E060E08AE00E94230260913B02709190
:101070003C0289E00E94230261E08DE00E94C401ED
:1010800089E00E9480029093010180930001A114E5
:10109000B10409F49CCF0E94F800882309F497CF8B
:1010A0000E94000094CF2B972CF668EE73E080E04E
:1010B00090E00E94BA0260E080E00E94480481E56E
:1010C00091E00E940B0461E080E00E9448048DE6FC
:1010D00091E00E940B0470E060E08AE00E9423022D
:1010E00060913B0270913C0289E00E94230261E022
:1010F0008DE00E94C401CBCFEE0FFF1F0590F4914D
:08110000E02D0994F894FFCFE3
:101108000A000000400014005400000000002E01F6
:101118008E00BB007B01EC00CA00DE00000000006E
:101128007403470308041D0340032D031E03000036
:1011380000007B048E000804070457656C636F6D1C
:101148006520546F004172636164652047616D6575
:1011580000202020416C65727420212121005761F4
:1011680074657220446574656374656400466972C9
:0C117800652044657465637465640000C4
:107E0000112484B714BE81FFF0D085E080938100F7
:107E100082E08093C00088E18093C10086E0809377
:107E2000C20080E18093C4008EE0C9D0259A86E02C
:107E300020E33CEF91E0309385002093840096BBD3
:107E4000B09BFECF1D9AA8958150A9F7CC24DD24C4
:107E500088248394B5E0AB2EA1E19A2EF3E0BF2EE7
:107E6000A2D0813461F49FD0082FAFD0023811F036
:107E7000013811F484E001C083E08DD089C08234E0
:107E800011F484E103C0853419F485E0A6D080C0E4
:107E9000853579F488D0E82EFF2485D0082F10E0AE
:107EA000102F00270E291F29000F111F8ED06801E7
:107EB0006FC0863521F484E090D080E0DECF843638
:107EC00009F040C070D06FD0082F6DD080E0C81688
:107ED00080E7D80618F4F601B7BEE895C0E0D1E017
:107EE00062D089930C17E1F7F0E0CF16F0E7DF06D8
:107EF00018F0F601B7BEE89568D007B600FCFDCFD4
:107F0000A601A0E0B1E02C9130E011968C91119780
:107F100090E0982F8827822B932B1296FA010C0160
:107F200087BEE89511244E5F5F4FF1E0A038BF0790
:107F300051F7F601A7BEE89507B600FCFDCF97BE46
:107F4000E89526C08437B1F42ED02DD0F82E2BD052
:107F50003CD0F601EF2C8F010F5F1F4F84911BD097
:107F6000EA94F801C1F70894C11CD11CFA94CF0C13
:107F7000D11C0EC0853739F428D08EE10CD085E9AC
:107F80000AD08FE07ACF813511F488E018D01DD067
:107F900080E101D065CF982F8091C00085FFFCCF94
:107FA0009093C60008958091C00087FFFCCF809118
:107FB000C00084FD01C0A8958091C6000895E0E648
:107FC000F0E098E1908380830895EDDF803219F02E
:107FD00088E0F5DFFFCF84E1DECF1F93182FE3DFCA
:107FE0001150E9F7F2DF1F91089580E0E8DFEE27F6
:047FF000FF270994CA
:027FFE00040479
:0400000300007E007B
:00000001FF
