:100000000C945D000C9485000C9485000C94850084
:100010000C9485000C9485000C9485000C9485004C
:100020000C9485000C9485000C9485000C9485003C
:100030000C9485000C9485000C9485000C9485002C
:100040000C9438040C9485000C9406040C94E00382
:100050000C9485000C9485000C9485000C9485000C
:100060000C9482040C94850000000008000201003A
:100070000003040700000000000000000000000072
:10008000250028002B0000000000240027002A0083
:10009000040404040404040402020202020203032E
:1000A0000303030301020408102040800102040836
:1000B0001020010204081020A10511241FBECFEF5B
:1000C000D8E0DEBFCDBF11E0A0E0B1E0EEE6FFE09A
:1000D00002C005900D92A035B107D9F722E0A0E546
:1000E000B1E001C01D92A33CB207E1F710E0CDE5FD
:1000F000D0E004C02197FE010E94AF07CC35D107A4
:10010000C9F70E94EA050C94B5070C94000090E032
:10011000FC01EC55FF4F249180579F4FFC018491C7
:10012000882399F090E0880F991FFC01EA57FF4F50
:10013000A591B491FC01E458FF4F859194918FB73C
:10014000F894EC91E22BEC938FBF089508950895F5
:10015000AF92BF92CF92DF92EF92FF920F931F93D5
:10016000CF93DF936C017B018B01040F151FEB0113
:100170005E01AE18BF08C017D10759F06991D601CA
:10018000ED91FC910190F081E02DC6010995892B3C
:1001900079F7C501DF91CF911F910F91FF90EF90FB
:1001A000DF90CF90BF90AF900895FC01538D448DA8
:1001B000252F30E0842F90E0821B930B541710F012
:1001C000CF96089501970895FC01918D828D98171F
:1001D00061F0A28DAE0FBF2FB11D5D968C91928DF7
:1001E0009F5F9F73928F90E008958FEF9FEF089528
:1001F000FC01918D828D981731F0828DE80FF11DF1
:10020000858D90E008958FEF9FEF0895FC01918D0B
:10021000228D892F90E0805C9F4F821B91098F7304
:10022000992708958DE092E00E94060121E0892B34
:1002300009F420E0822F089580E090E0892B29F0D6
:100240000E94120181110C9400000895FC01A48DFC
:10025000A80FB92FB11DA35ABF4F2C91848D90E0E8
:1002600001968F739927848FA689B7892C93A089CB
:10027000B1898C91837080648C93938D848D981355
:1002800006C00288F389E02D80818F7D80830895E8
:10029000EF92FF920F931F93CF93DF93EC0181E0D6
:1002A000888F9B8D8C8D98131AC0E889F98980817D
:1002B00085FF15C09FB7F894EE89FF896083E889B0
:1002C000F98980818370806480839FBF81E090E0A2
:1002D000DF91CF911F910F91FF90EF900895F62E2F
:1002E0000B8D10E00F5F1F4F0F731127E02E8C8DC9
:1002F0008E110CC00FB607FCFACFE889F98980810E
:1003000085FFF5CFCE010E942601F1CFEB8DEC0FDA
:10031000FD2FF11DE35AFF4FF0829FB7F8940B8F2A
:10032000EA89FB8980818062CFCFCF93DF93EC0194
:10033000888D8823B9F0AA89BB89E889F9898C91CD
:1003400085FD03C0808186FD0DC00FB607FCF7CF89
:100350008C9185FFF2CF808185FFEDCFCE010E9489
:100360002601E9CFDF91CF91089590E0FC01E85993
:10037000FF4F2491FC01EC55FF4F3491FC01E057F5
:10038000FF4FE491EE23C9F0222339F0233001F12D
:10039000A8F4213019F1223029F1F0E0EE0FFF1F0F
:1003A000E458FF4FA591B4918FB7F894EC91611187
:1003B00026C030953E233C938FBF08952730A9F087
:1003C0002830C9F0243049F7809180008F7D03C028
:1003D000809180008F7780938000DFCF84B58F7706
:1003E00084BDDBCF84B58F7DFBCF8091B0008F774C
:1003F0008093B000D2CF8091B0008F7DF9CF3E2B9B
:10040000DACF3FB7F8948091FE019091FF01A0915F
:100410000002B091010226B5A89B05C02F3F19F03C
:100420000196A11DB11D3FBFBA2FA92F982F882774
:10043000BC01CD01620F711D811D911D42E0660F4F
:10044000771F881F991F4A95D1F708958F929F9221
:10045000AF92BF92CF92DF92EF92FF924B015C017D
:100460000E9401026B017C010E9401026C197D094E
:100470008E099F09683E734081059105A8F321E02C
:10048000821A9108A108B10888EEC80E83E0D81E30
:10049000E11CF11C81149104A104B10429F7FF901F
:1004A000EF90DF90CF90BF90AF909F908F90089586
:1004B00085ED8093BC008091BC0084FDFCCF109240
:1004C000080208952091B201260F3327331F2132ED
:1004D0003105ECF420910802FC0190E080E024302A
:1004E00069F082E00895A091B2012191AC014E56CD
:1004F0005E4FA40FB52FB11D2C930196861798F36C
:100500008091B201680F6093B20180E0089581E0AC
:1005100008950895E0910C0280910B02E81730F4E1
:10052000F0E0EE58FE4F808190E008958FEF9FEF4E
:10053000089590910C0280910B022FEF3FEF9817D6
:1005400048F4E92FF0E0EE58FE4F208130E09F5F45
:1005500090930C02C901089580910B0290910C02B6
:10056000891B990B0895CF92DF92EF92FF920F9320
:100570001F93CF93DF937C01CB018A0120917101FE
:10058000222389F0EB016B01C40ED51ECC15DD05CD
:1005900069F06991D701ED91FC910190F081E02D16
:1005A000C7010995F3CF642F0E946202C801DF9151
:1005B000CF911F910F91FF90EF90DF90CF90089512
:1005C000CF93DF931F92CDB7DEB76983209171017E
:1005D0002223F9F020910902203258F021E030E086
:1005E000FC013383228390E080E00F90DF91CF9174
:1005F000089580910A02E82FF0E0EF5AFE4F9981AA
:1006000090838F5F80930A028093090281E090E0DB
:10061000ECCF61E0CE0101960E946202F7CFCF934A
:10062000FC01C48121E020937101C093500110921C
:100630000A02109209028485682B8AEA92E00E94DD
:10064000E00290910902913208F03FC080910802C7
:100650008111FCCF82E08093080281E08093070241
:100660008FEF8093D5011092F7019093F601A1E5E9
:10067000B1E0E6EDF1E080E098132FC01092F801B0
:100680008091F801CC0FC82BC093F801809106022D
:10069000813039F5109206028091F8018093BB00F9
:1006A0008091BC0083FDF8CF85EC8093BC008091E5
:1006B00008028230E1F38091D5018F3F31F08091C3
:1006C000D501803211F08091D50110920A0210926A
:1006D000090210927101CF9108952D9121938F5F9E
:1006E000CBCF85EEE2CF089590E080E008950F93A0
:1006F0001F93CF938C01C62F0E940F036C2F646051
:10070000C8010E940F036C2F6B7FC8010E940F036A
:1007100083EC90E00197F1F7CF911F910F9108952D
:100720000F931F93CF93DF938C01D62FC42F607F3D
:10073000642B0E94770380E1D89FB00111246C2BB9
:10074000C801DF91CF911F910F910C947703CF9344
:10075000DF93CDB7DEB728970FB6F894DEBF0FBE94
:10076000CDBF98E0E0E0F1E0DE01119601900D923E
:100770009A95E1F79091BE02961708F46FEF262F35
:1007800030E0220F331F41E050E04C0F5D1F240F7B
:10079000351FF9016081680F606840E086EB92E0E8
:1007A00028960FB6F894DEBF0FBECDBFDF91CF9174
:1007B0000C94900341E00E94900381E090E0089542
:1007C0001F920F920FB60F9211242F933F934F93C6
:1007D0005F936F937F938F939F93AF93BF93EF93A9
:1007E000FF938DE092E00E942601FF91EF91BF916F
:1007F000AF919F918F917F916F915F914F913F91B9
:100800002F910F900FBE0F901F9018951F920F926F
:100810000FB60F9211242F938F939F93EF93FF9313
:10082000E0911D02F0911E028081E0912302F0917F
:10083000240282FD1BC09081809126028F5F8F73FE
:1008400020912702821741F0E0912602F0E0E35F59
:10085000FD4F958F80932602FF91EF919F918F918D
:100860002F910F900FBE0F901F9018958081F4CF9D
:100870001F920F920FB60F9211242F933F938F93D5
:100880009F93AF93BF938091FA019091FB01A09148
:10089000FC01B091FD013091F90123E0230F2D37C8
:1008A00058F50196A11DB11D2093F9018093FA011D
:1008B0009093FB01A093FC01B093FD018091FE0198
:1008C0009091FF01A0910002B09101020196A11D3B
:1008D000B11D8093FE019093FF01A0930002B0939D
:1008E0000102BF91AF919F918F913F912F910F90F6
:1008F0000FBE0F901F90189526E8230F0296A11D9A
:10090000B11DD2CF1F920F920FB60F9211242F93C9
:100910003F934F935F936F937F938F939F93AF9387
:10092000BF93EF93FF938091B900887F803609F4DD
:100930004AC0F0F5883209F4A7C018F5803109F4EF
:100940009BC0B8F4882309F4F9C0883009F494C036
:10095000FF91EF91BF91AF919F918F917F916F9197
:100960005F914F913F912F910F900FBE0F901F906D
:100970001895883109F488C0803251F78093D501E9
:1009800014C0803409F49DC040F48033B9F3883337
:10099000F9F68093D50185ECB0C0803509F485C0A7
:1009A000883509F496C0883499F60E945802D0CF51
:1009B000883909F48CC038F5883729F050F4883626
:1009C00011F0803729F683E0809308021092D40159
:1009D00057C0883809F47BC0803919F0803809F095
:1009E000B7CF8091D401803208F071C0E091D4017A
:1009F00081E08E0F8093D4018091BB00F0E0EC5435
:100A0000FE4F80833DC0803B39F0E0F4803A09F42A
:100A100079C0883A09F09CCF84E080930802109254
:100A2000B3011092B201E0910402F0910502099520
:100A30008091B20181110FC081E08093B2011092C8
:100A4000920109C0803C09F4A6CF883C09F4A3CFE9
:100A5000883B09F07DCFE091B30181E08E0F809358
:100A6000B301F0E0EE56FE4F80818093BB00909181
:100A7000B3018091B20129C08091F8018093BB003D
:100A800085EC8093BC0064CF9091F7018091F601D2
:100A9000981758F5E091F70181E08E0F8093F701E8
:100AA000F0E0EA52FE4F8081E9CFE091F70181E06A
:100AB0008E0F8093F7018091BB00F0E0EA52FE4F69
:100AC00080839091F7018091F6019817C8F285E82C
:100AD000D8CFE091F70181E08E0F8093F7018091EC
:100AE000BB00F0E0EA52FE4F808380910702811143
:100AF0005CCF81E08093060284EA8093BC00109270
:100B0000080226CF85EC8093BC00109208028091E9
:100B1000D401803230F4E091D401F0E0EC54FE4F87
:100B200010826091D40170E0E0910202F091030222
:100B300084EB91E009951092D4010ACF1092D5016F
:100B400034CFEDE0F2E01382128288EE93E0A0E071
:100B5000B0E084839583A683B7832CE031E03183B2
:100B6000208325EC30E03587248724EC30E037877C
:100B7000268720EC30E0318B208B21EC30E0338B6A
:100B8000228B22EC30E0358B248B26EC30E0378B47
:100B9000268B118E128E138E148EEAEAF2E01382E7
:100BA000128284839583A683B7838EE191E091833B
:100BB0008083E6EBF2E01382128280E391E091837E
:100BC0008083118687E2848380E1828782E0838745
:100BD00014860895789484B5826084BD84B581605C
:100BE00084BD85B5826085BD85B5816085BD8091F8
:100BF0006E00816080936E00109281008091810070
:100C00008260809381008091810081608093810067
:100C1000809180008160809380008091B100846029
:100C20008093B1008091B00081608093B00080918A
:100C30007A00846080937A0080917A008260809349
:100C40007A0080917A00816080937A0080917A00A6
:100C5000806880937A001092C10089E00E9487002A
:100C60008AE00E9487008BE00E948700E0911D02CD
:100C7000F0911E0282E08083E0911902F0911A0245
:100C80001082E0911B02F0911C028FEC8083109285
:100C90002502E0912102F091220286E08083E0911A
:100CA0001F02F0912002808180618083E0911F0209
:100CB000F0912002808188608083E0911F02F09192
:100CC0002002808180688083E0911F02F0912002E1
:100CD00080818F7D80838AE00E94870061E08AE0C6
:100CE0000E94B50110920C0210920B0210920A029F
:100CF000109209021092080281E08093070210927C
:100D0000060261E082E10E94B50161E083E10E9498
:100D1000B5018091B9008E7F8093B9008091B900B0
:100D20008D7F8093B90088E48093B80085E4809338
:100D3000BC0086EA90E0909305028093040287EA63
:100D400090E090930302809302021092BB02809184
:100D5000C102823018F098E09093BB028093BE02EB
:100D600062E370E080E090E00E9426026091C2029F
:100D700086EB92E00E940F0368EE73E080E090E063
:100D80000E94260260E386EB92E00E947703CBE4A8
:100D9000D6E4CE010197F1F760E386EB92E00E9482
:100DA00077032197F1F760E386EB92E00E947703E7
:100DB00083E592E00197F1F760E286EB92E00E9412
:100DC00077036091BB02606240E086EB92E00E9494
:100DD000900384E08093BC0240E06CE086EB92E0FC
:100DE0000E94900340E061E086EB92E00E94900355
:100DF0008BE39FE10197F1F78091BF02882321F0F7
:100E000060E080E00E94A70382E08093BD0240E0A2
:100E100066E086EB92E00E94900340E062E086EBA1
:100E200092E00E9490038BE39FE10197F1F788E045
:100E30008093C20260E086EB92E00E940F0360E0C4
:100E400081E00E94A7034AE050E068E371E086EB8E
:100E500092E00E94A80061E083E00E94A7034BE0BB
:100E600050E063E471E086EB92E00E94A80092E417
:100E7000D92E02E710E020E0E22E20E0F22ED09200
:100E80007C0080917A00806480937A0080917A005F
:100E900086FDFCCF80917800C0917900DC2FC82FAF
:100EA000D7FD2396D595C795D595C7958AE00E941D
:100EB0008700209771F460E08AE00E94B501E11498
:100EC000F104E9F20E9412018823C9F20E94000095
:100ED000D6CFCF3FD10511F461E0EECFF801849178
:100EE000833019F140F48130B1F08230C9F0C0385C
:100EF000D10594F7E0CF873011F1883041F184308B
:100F0000B1F780918000806280938000D0938B0045
:100F1000C0938A00D4CF84B5806884BDC7BDCFCFCD
:100F200084B5806284BDC8BDCACF809180008068CE
:100F300080938000D0938900C0938800C0CF8091B7
:100F4000B00080688093B000C093B300B8CF8091A8
:100F5000B00080628093B000C093B400B0CFEE0FB9
:0E0F6000FF1F0590F491E02D0994F894FFCF47
:100F6E000000400014005400000000004801A800DA
:100F7E00D50095010601E400F80000000000E00233
:100F8E00B30274038902AC0299028A0200000000C7
:100F9E00DA03A8007403730357656C636F6D6520E5
:100FAE00546F004172636164652047616D65000096
:00000001FF
