:100000000C94E2000C940A010C940A010C940A016D
:100010000C940A010C940A010C940A010C940A0134
:100020000C940A010C940A010C940A010C940A0124
:100030000C940A010C940A010C940A010C940A0114
:100040000C946E070C940A010C943C070C94160750
:100050000C940A010C940A010C940A010C940A01F4
:100060000C94B8070C940A01005EBCE2613FDD838A
:10007000C29C7E20A3FD1F419DC3217FFCA2401E88
:100080005F01E3BD3E6082DC237D9FC1421CFEA078
:10009000E1BF5D0380DE3C62BEE0025CDF81633D68
:1000A0007C22C09E1D43A1FF4618FAA427799BC558
:1000B00084DA3866E5BB5907DB856739BAE4065848
:1000C0001947A5FB7826C49A653BD987045AB8E638
:1000D000A7F91B45C6987A24F8A6441A99C7257B28
:1000E0003A6486D85B05E7B98CD2306EEDB3510F18
:1000F0004E10F2AC2F7193CD114FADF3702ECC9208
:10010000D38D6F31B2EC0E50AFF1134DCE90722CF7
:100110006D33D18F0C52B0EE326C8ED0530DEFB1E7
:10012000F0AE4C1291CF2D73CA947628ABF51749D7
:100130000856B4EA6937D58B5709EBB536688AD4C7
:1001400095CB2977F4AA4816E9B7550B88D6346AB7
:100150002B7597C94A14F6A8742AC896154BA9F7A7
:10016000B6E80A54D7896B35000000002400270048
:100170002A0000000000250028002B0000000008D5
:10018000000201000003040700000000000000005E
:1001900000000000230026002900040404040404D5
:1001A0000404020202020202030303030303010226
:1001B00004081020408001020408102001020408F5
:1001C0001020D70811241FBECFEFD8E0DEBFCDBF6F
:1001D00011E0A0E0B1E0E4E3FEE102C005900D9281
:1001E000A838B107D9F723E0A8E8B1E001C01D9213
:1001F000A032B207E1F710E0C2EED0E004C02197D0
:10020000FE010E94120FC13ED107C9F70E94680982
:100210000C94180F0C94000008950895AF92BF92AB
:10022000CF92DF92EF92FF920F931F93CF93DF93C2
:100230006C017B018B01040F151FEB015E01AE18F1
:10024000BF08C017D10759F06991D601ED91FC9113
:100250000190F081E02DC6010995892B79F7C50140
:10026000DF91CF911F910F91FF90EF90DF90CF9092
:10027000BF90AF900895FC01538D448D252F30E041
:10028000842F90E0821B930B541710F0CF960895A3
:1002900001970895FC01918D828D981761F0A28DD0
:1002A000AE0FBF2FB11D5D968C91928D9F5F9F7396
:1002B000928F90E008958FEF9FEF0895FC01918D4C
:1002C000828D981731F0828DE80FF11D858D90E0B9
:1002D00008958FEF9FEF0895FC01918D228D892F56
:1002E00090E0805C9F4F821B91098F73992708953E
:1002F00089E492E00E946C0121E0892B09F420E05E
:10030000822F089580E090E0892B29F00E947801E7
:1003100081110C9400000895FC01A48DA80FB92F41
:10032000B11DA35ABF4F2C91848D90E001968F731D
:100330009927848FA689B7892C93A089B1898C913C
:10034000837080648C93938D848D981306C002888B
:10035000F389E02D80818F7D80830895EF92FF9255
:100360000F931F93CF93DF93EC0181E0888F9B8DD8
:100370008C8D98131AC0E889F989808185FF15C092
:100380009FB7F894EE89FF896083E889F9898081B5
:100390008370806480839FBF81E090E0DF91CF9184
:1003A0001F910F91FF90EF900895F62E0B8D10E0A6
:1003B0000F5F1F4F0F731127E02E8C8D8E110CC015
:1003C0000FB607FCFACFE889F989808185FFF5CF60
:1003D000CE010E948C01F1CFEB8DEC0FFD2FF11DB2
:1003E000E35AFF4FF0829FB7F8940B8FEA89FB899D
:1003F00080818062CFCFCF93DF93EC01888D8823FB
:10040000B9F0AA89BB89E889F9898C9185FD03C077
:10041000808186FD0DC00FB607FCF7CF8C9185FF5C
:10042000F2CF808185FFEDCFCE010E948C01E9CF14
:10043000DF91CF910895833081F028F4813099F0D5
:100440008230A9F008958730A9F08830C9F084304F
:10045000B1F4809180008F7D03C0809180008F7700
:1004600080938000089584B58F7784BD089584B506
:100470008F7DFBCF8091B0008F778093B00008957F
:100480008091B0008F7DF9CF1F93CF93DF93282FFA
:1004900030E0F901E458FE4F8491F901E255FE4F36
:1004A000D491F901E656FE4FC491CC23A9F0162F42
:1004B00081110E941B02EC2FF0E0EE0FFF1FEE589F
:1004C000FE4FA591B4918FB7F894EC91111108C02B
:1004D000D095DE23DC938FBFDF91CF911F910895DC
:1004E000DE2BF8CFCF93DF9390E0FC01E255FE4F77
:1004F000249186569E4FFC0184918823D1F090E090
:10050000880F991FFC01E859FE4FA591B491FC0199
:10051000EE58FE4FC591D49161110EC09FB7F8946B
:100520008C91E22FE0958E238C932881E223E8833F
:100530009FBFDF91CF9108958FB7F894EC91E22B94
:10054000EC938FBFF6CF1F93CF93DF93182FEB0160
:1005500061E00E947202209739F460E0812FDF9100
:10056000CF911F910C944402CF3FD10511F461E06B
:10057000F5CFE12FF0E0E458FE4FE491E33031F1A4
:1005800040F4E130B1F0E230E1F0C038D1057CF761
:10059000E4CFE73029F1E83059F1E430B1F7809148
:1005A0008000806280938000D0938B00C0938A008B
:1005B00004C084B5806884BDC7BDDF91CF911F9111
:1005C000089584B5806284BDC8BDF7CF8091800056
:1005D000806880938000D0938900C0938800EDCF1D
:1005E0008091B00080688093B000C093B300E5CFE5
:1005F0008091B00080628093B000C093B400DDCFE2
:100600008E3008F08E508770806480937C008091DB
:100610007A00806480937A0080917A0086FDFCCF16
:10062000809178009091790008953FB7F894809177
:10063000360290913702A0913802B091390226B566
:10064000A89B05C02F3F19F00196A11DB11D3FBF0A
:10065000BA2FA92F982F8827BC01CD01620F711DD9
:10066000811D911D42E0660F771F881F991F4A95D3
:10067000D1F708958F929F92AF92BF92CF92DF925F
:10068000EF92FF924B015C010E9415036B017C010C
:100690000E9415036C197D098E099F09683E7340FD
:1006A00081059105A8F321E0821A9108A108B108FB
:1006B00088EEC80E83E0D81EE11CF11C8114910461
:1006C000A104B10429F7FF90EF90DF90CF90BF9085
:1006D000AF909F908F9008950895DC0180E0615065
:1006E00038F0ED91E827F0E0E859FF4F8491F7CF1B
:1006F0000895DC012C911196ED91FC91F894818183
:10070000822B81839281322F30959323928387E0CD
:1007100090E00197F1F781818323818383E290E068
:100720000197F1F790817894EFECF0E03197F1F7D1
:10073000922381E009F480E00895EF92FF920F93F5
:100740001F93CF93DF937C0108E010E0C0E0D1E07D
:10075000C7010E9479038111CD2BDD0F01501109D2
:10076000B9F78C2FDF91CF911F910F91FF90EF90F0
:100770000895FC0190810180F281E02D292F2095C0
:1007800060FF14C0F8948281822382838181892B47
:100790008183A3E2B0E01197F1F78281982B9283D5
:1007A000789487ED90E00197F1F70895F8948281AD
:1007B000822382838181892B8183AFEFB0E01197FF
:1007C000F1F78281982B928378948FE090E0EBCFC1
:1007D000DF92EF92FF920F931F93CF93DF93EC0181
:1007E000D62EE42E08E010E0FF24F39461E08D2D76
:1007F0008F2109F460E0CE010E94B903FF0C015083
:100800001109A1F7E11010C0F894E981FA819181F2
:100810008881809589238183E981FA819281888109
:100820008095892382837894DF91CF911F910F91D6
:10083000FF90EF90DF900895EF92FF920F931F9338
:10084000CF93DF938C017B0140E065E50E94E803D4
:10085000E70188E0E80EF11C699140E0C8010E94C0
:10086000E803CE15DF05C1F7DF91CF911F910F91FE
:10087000FF90EF900895FC0190810180F281E02DBE
:10088000F8948181292F20958223818378943DE7F4
:1008900043E050E0315029F1DA011197F1F78081FE
:1008A0008923C1F3F8948281822382838181892BF9
:1008B00081837894ABE7B7E01197F1F7F8948181E1
:1008C00082238183A3E1B1E01197F1F7808198231E
:1008D00081E009F080E07894E3E6F6E03197F1F703
:1008E000089580E00895EF92FF920F931F93CF93A6
:1008F000DF937C018B01C2EFD2E08D819E810E944B
:100900003B04B7018D819E810E941C0440E06EEB88
:100910008D819E810E94E8038D819E810E949D03AE
:10092000F80180838D819E810E949D03F80181835F
:100930008D819E810E949D03F80182838D819E811D
:100940000E949D03F80183838D819E810E949D03F7
:10095000F80184838D819E810E949D03F801858327
:100960008D819E810E949D03F80186838D819E81E9
:100970000E949D03F80187838D819E810E949D03C3
:10098000F80180878D819E81DF91CF911F910F911A
:10099000FF90EF900C943B04CF93DF93CDB7DEB77D
:1009A00029970FB6F894DEBF0FBECDBFBE016F5FB3
:1009B0007F4F0E94730468E0CE0101960E946D0390
:1009C0009985891306C08D818F33A9F020F48F316A
:1009D000A1F080E007C08F3521F08F37D1F78CE090
:1009E00001C08BE029960FB6F894DEBF0FBECDBFD5
:1009F000DF91CF9108958AE0F5CF89E0F3CFBF92E0
:100A0000CF92DF92EF92FF920F931F93CF93DF93DA
:100A1000EC01B62EC72EED84EE2081F01B861D86DC
:100A20001C8680E02396EB2DFC2D9F01285F3F4F15
:100A3000999191932E173F07D9F707C00E943B0465
:100A400081110DC01B861D861C86DF91CF911F91E1
:100A50000F91FF90EF90DF90CF90BF90089540E00E
:100A600060EFCE010E94E803D12C01E011E0CE013D
:100A70000E947903F82ECE010E94790391E0F912C9
:100A80000EC0813049F5113448F2EB86E11002C006
:100A900081E08D878B81882309F281E0C3CFED2D22
:100AA000F0E0F8120FC08B851817A0F4DE01AE0F2E
:100AB000BF1F13968C91802379F4F12C193008F420
:100AC0001C87E12EEC0FFD1F8381902F90958923C9
:100AD00083830AC08113F1CFFE01ED0DF11D8381E7
:100AE000802B8383FF24F3946F2DCE010E94B903E2
:100AF0001F5F000F11F4D39401E087E08D1508F01B
:100B0000B6CFC1CF85ED8093BC008091BC0084FD41
:100B1000FCCF1092400208952091EA01260F33275E
:100B2000331F21323105ECF420914002FC0190E0AA
:100B300080E0243069F082E00895A091EA012191DB
:100B4000AC0146535E4FA40FB52FB11D2C930196F7
:100B5000861798F38091EA01680F6093EA0180E0BC
:100B6000089581E00895E091440280914302E817DE
:100B700030F4F0E0E655FE4F808190E008958FEF6D
:100B80009FEF089590914402809143022FEF3FEF31
:100B9000981748F4E92FF0E0E655FE4F208130E049
:100BA0009F5F90934402C901089580914302909100
:100BB0004402891B990B0895CF92DF92EF92FF9226
:100BC0000F931F93CF93DF937C01CB018A01209178
:100BD000A901222389F0EB016B01C40ED51ECC15AF
:100BE000DD0569F06991D701ED91FC910190F081EB
:100BF000E02DC7010995F3CF642F0E948C05C80131
:100C0000DF91CF911F910F91FF90EF90DF90CF90E8
:100C10000895CF93DF931F92CDB7DEB769832091FC
:100C2000A9012223F9F020914102203258F021E05D
:100C300030E0FC013383228390E080E00F90DF916D
:100C4000CF91089580914202E82FF0E0E757FE4FE0
:100C5000998190838F5F809342028093410281E06B
:100C600090E0ECCF61E0CE0101960E948C05F7CFB9
:100C7000CF93FC01C48121E02093A901C093880196
:100C800010924202109241028485682B86EE92E017
:100C90000E94090690914102913208F03FC0809174
:100CA00040028111FCCF82E08093400281E080937A
:100CB0003F028FEF80930D0210922F0290932E022D
:100CC000A9E8B1E0EEE0F2E080E098132FC01092C6
:100CD000300280913002CC0FC82BC093300280913B
:100CE0003E02813039F510923E02809130028093AD
:100CF000BB008091BC0083FDF8CF85EC8093BC00E5
:100D0000809140028230E1F380910D028F3F31F0FB
:100D100080910D02803211F080910D0210924202FA
:100D2000109241021092A901CF9108952D91219323
:100D30008F5FCBCF85EEE2CF089590E080E00895FD
:100D4000FC0101900020E9F73197AF01481B590BD6
:100D5000BC0183E193E00C940E010F931F93CF939A
:100D60008C01C62F0E9438066C2F6460C8010E9457
:100D700038066C2F6B7FC8010E94380683EC90E028
:100D80000197F1F7CF911F910F9108950F931F9342
:100D9000CF93DF938C01D62FC42F607F642B0E94EA
:100DA000AD0680E1D89FB00111246C2BC801DF9102
:100DB000CF911F910F910C94AD06CF93DF93CDB7D8
:100DC000DEB728970FB6F894DEBF0FBECDBF98E010
:100DD000E2E0F1E0DE01119601900D929A95E1F7C3
:100DE00090911B03961708F46FEF262F30E0220F27
:100DF000331F41E050E04C0F5D1F240F351FF901F8
:100E00006081680F606840E083E193E028960FB648
:100E1000F894DEBF0FBECDBFDF91CF910C94C60614
:100E200041E00E94C60681E090E008951F920F9273
:100E30000FB60F9211242F933F934F935F936F93AD
:100E40007F938F939F93AF93BF93EF93FF9389E427
:100E500092E00E948C01FF91EF91BF91AF919F9121
:100E60008F917F916F915F914F913F912F910F9053
:100E70000FBE0F901F9018951F920F920FB60F92F2
:100E800011242F938F939F93EF93FF93E091590237
:100E9000F0915A028081E0915F02F091600282FD40
:100EA0001BC09081809162028F5F8F7320916302DB
:100EB000821741F0E0916202F0E0E75BFD4F958F11
:100EC00080936202FF91EF919F918F912F910F90EC
:100ED0000FBE0F901F9018958081F4CF1F920F9234
:100EE0000FB60F9211242F933F938F939F93AF933D
:100EF000BF938091320290913302A0913402B0915D
:100F000035023091310223E0230F2D3758F5019639
:100F1000A11DB11D209331028093320290933302C0
:100F2000A0933402B093350280913602909137023B
:100F3000A0913802B09139020196A11DB11D809394
:100F4000360290933702A0933802B0933902BF91D2
:100F5000AF919F918F913F912F910F900FBE0F9066
:100F60001F90189526E8230F0296A11DB11DD2CF20
:100F70001F920F920FB60F9211242F933F934F930E
:100F80005F936F937F938F939F93AF93BF93EF93F1
:100F9000FF938091B900887F803609F44AC0F0F54C
:100FA000883209F4A7C018F5803109F49BC0B8F461
:100FB000882309F4F9C0883009F494C0FF91EF91B7
:100FC000BF91AF919F918F917F916F915F914F9161
:100FD0003F912F910F900FBE0F901F901895883161
:100FE00009F488C0803251F780930D0214C0803418
:100FF00009F49DC040F48033B9F38833F9F6809347
:101000000D0285ECB0C0803509F485C0883509F43F
:1010100096C0883499F60E948205D0CF883909F4A9
:101020008CC038F5883729F050F4883611F08037B5
:1010300029F683E08093400210920C0257C0883852
:1010400009F47BC0803919F0803809F0B7CF80915E
:101050000C02803208F071C0E0910C0281E08E0F2A
:1010600080930C028091BB00F0E0E451FE4F80833E
:101070003DC0803B39F0E0F4803A09F479C0883A09
:1010800009F09CCF84E0809340021092EB01109213
:10109000EA01E0913C02F0913D0209958091EA015C
:1010A00081110FC081E08093EA011092CA0109C04A
:1010B000803C09F4A6CF883C09F4A3CF883B09F013
:1010C0007DCFE091EB0181E08E0F8093EB01F0E0AA
:1010D000E653FE4F80818093BB009091EB0180919D
:1010E000EA0129C0809130028093BB0085EC809397
:1010F000BC0064CF90912F0280912E02981758F572
:10110000E0912F0281E08E0F80932F02F0E0E25FEA
:10111000FD4F8081E9CFE0912F0281E08E0F809317
:101120002F028091BB00F0E0E25FFD4F8083909141
:101130002F0280912E029817C8F285E8D8CFE0914F
:101140002F0281E08E0F80932F028091BB00F0E090
:10115000E25FFD4F808380913F0281115CCF81E08F
:1011600080933E0284EA8093BC001092400226CF16
:1011700085EC8093BC001092400280910C0280327A
:1011800030F4E0910C02F0E0E451FE4F10826091E7
:101190000C0270E0E0913A02F0913B028CEE91E09B
:1011A000099510920C020ACF10920D0234CFE9E497
:1011B000F2E01382128288EE93E0A0E0B0E0848334
:1011C0009583A683B7832EE031E03183208325EC1D
:1011D00030E03587248724EC30E03787268720EC01
:1011E00030E0318B208B21EC30E0338B228B22ECF2
:1011F00030E0358B248B26EC30E0378B268B118E3C
:10120000128E138E148EE6EEF2E013821282848325
:101210009583A683B78380E291E091838083E3E1A5
:10122000F3E01382128282E391E09183808311863E
:1012300087E2848380E1828782E08387148660E08E
:1012400087E00E947202E5EBF1E0E491A5E0B3E0F3
:10125000EC93E1EAF1E0E491F0E0EE0FFF1FE057DC
:10126000FE4F8591949112969C938E9311971B96A5
:101270001C921B971D961C921D971C961C921C97E6
:101280001A961C921A9719961C92199718961C92E6
:10129000189717961C92179716961C9216971596E4
:1012A0001C92159714961C92149713961C921397E0
:1012B000E2EFF2E08CE693E0928B818BB683A5831C
:1012C0001482108289E0818381E082838383089580
:1012D000CF93DF93CDB7DEB761970FB6F894DEBF3B
:1012E0000FBECDBF789484B5826084BD84B5816023
:1012F00084BD85B5826085BD85B5816085BD8091E1
:101300006E00816080936E00109281008091810058
:101310008260809381008091810081608093810050
:10132000809180008160809380008091B100846012
:101330008093B1008091B00081608093B000809173
:101340007A00846080937A0080917A008260809332
:101350007A0080917A00816080937A0080917A008F
:10136000806880937A001092C10061E089E00E9459
:10137000720261E08AE00E94720261E08BE00E94EA
:10138000720260E08CE00E94720261E08DE00E94D7
:101390007202E0915902F0915A0282E08083E0915A
:1013A0005502F09156021082E0915702F0915802D6
:1013B0008FEC808310926102E0915D02F0915E02F9
:1013C00086E08083E0915B02F0915C028081806125
:1013D0008083E0915B02F0915C0280818860808371
:1013E000E0915B02F0915C02808180688083E091F3
:1013F0005B02F0915C0280818F7D80836FEF70E0F3
:101400008AE00E94A302E091F702F091F8021386AD
:10141000158614861286118610861782168215820A
:10142000148213821092F60201E0BE01665F7F4FC4
:101430008091F7029091F8020E94FF04882309F43A
:101440005BC067E0CE010A960E946D0399898913FB
:10145000ECCF8091F202811128C08091F702909127
:10146000F8020E943B04BE01665F7F4F8091F70245
:101470009091F8020E941C0440E064EB8091F70216
:101480009091F8020E94E8038091F7029091F8028F
:101490000E947903182F8091F7029091F8020E9420
:1014A0003B04111102C00093F202BE016F5F7F4F37
:1014B000CE010A960E9473041091F3028A8580314E
:1014C00009F4A9C2CE010A960E94CC04811750F4F7
:1014D0008091F3028093F3028091F6028F5F8093F4
:1014E000F602A3CF8A85803111F489E0F3CFCE01D3
:1014F0000A960E94CC04EECF10924402109243024E
:1015000010924202109241021092400281E08093B8
:101510003F0210923E0261E082E10E94440261E0DB
:1015200083E10E9444028091B9008E7F8093B900CC
:101530008091B9008D7F8093B90088E48093B800D2
:1015400085E48093BC008CE091E090933D02809311
:101550003C028DE091E090933B0280933A0210921E
:10156000180380911E03823018F098E090931803BE
:1015700080931B0362E370E080E090E00E943A03F6
:1015800060911F0383E193E00E94380668EE73E0E8
:1015900080E090E00E943A0360E383E193E00E94E0
:1015A000AD060BE416E4C8010197F1F760E383E1AF
:1015B00093E00E94AD06C8010197F1F760E383E173
:1015C00093E00E94AD0683E592E00197F1F760E2B7
:1015D00083E193E00E94AD0660911803606240E0F1
:1015E00083E193E00E94C60684E08093190340E003
:1015F0006CE083E193E00E94C60640E061E083E195
:1016000093E00E94C6068BE39FE10197F1F780917A
:101610001C03882321F060E080E00E94DD0682E068
:1016200080931A0340E066E083E193E00E94C606DF
:1016300040E062E083E193E00E94C6068BE39FE115
:101640000197F1F788E080931F0360E083E193E066
:101650000E94380660E081E00E94DD068AE391E0A6
:101660000E94A00661E083E00E94DD0685E491E02F
:101670000E94A00660E0662E60E0762E80E10E9467
:10168000000397FD03966C01D594C794D594C79435
:10169000D0924802C0924702B601809100010E9498
:1016A000A3028EE00E9400034C01909346028093B7
:1016B0004502E8E8F1E08491EAEBF1E00491E6EA22
:1016C000F1E01491B12CA12C112399F081110E9409
:1016D0001B02E12FF0E0EE0FFF1FE057FE4FA59138
:1016E000B4918C91082391E080E009F490E0A92E58
:1016F000B82E8091F7029091F8020E943B0440E0DE
:101700006CEC8091F7029091F8020E94E8034091FE
:10171000F20264E48091F7029091F8020E94E803DB
:101720008091F402882389F08091F3028A3009F4D1
:1017300078C08B3009F47AC0893009F07CC06EE53E
:1017400070E080E090E00E943A03E091F702F091AF
:10175000F802138615861486128611861086178263
:101760001682158214821382BE01665F7F4F8091BC
:10177000F7029091F8020E94FF04882329F067E0A5
:10178000CE010A960E946D03BE016F5F7F4FCE01AE
:101790000A960E94730468E0CE0101960E946D03D0
:1017A000998589139CC009811A818A85823209F43E
:1017B00047C0883209F444C0803109F047C0F8843A
:1017C0008F812F2D281B330BB901072E000C880B9E
:1017D000990B0E94F00D1B012C016F2D70E090E021
:1017E00080E00E94EE0D9B01AC01C201B1010E949C
:1017F0007C0D1B012C01B80175956795072E000C17
:10180000880B990B0E94F00D20E030E040E85EE389
:101810000E940F0D9B01AC01C201B1010E94100D8D
:101820002AC06CEB70E080E090E08DCF67E771E05C
:1018300080E090E088CF6EEE72E080E090E083CFB1
:101840008D818F3359F138F48F31C1F12F2C3E2C1B
:10185000052D142D48C08F3599F08F37B9F7B80191
:10186000110F880B990B0E94F00D20E030E040E84A
:101870005DE30E94810EF62EE72E582E492EE6CF0C
:10188000B80175956795072E000C880B990B0E947F
:10189000F00D20E030E040E05EE3EBCFB80175955D
:1018A000679575956795072E000C880B990B0E941C
:1018B000F00D20E030E040E85EE3DBCFB80193E0DC
:1018C000759567959A95E1F7072E000C880B990B93
:1018D0000E94F00D20E030E040E05FE3CACF212C11
:1018E000312C0EEF12EC3BE083169104CCF168EE44
:1018F00073E080E090E00E943A0360E080E00E94A4
:10190000DD0681E591E00E94A00661E080E00E9492
:10191000DD068EE591E00E94A00670E060E08AE0BE
:101920000E94A302609147027091480289E00E94E0
:10193000A30261E08DE00E94440289E00E9400035E
:1019400090930101809300016114710409F496CE13
:101950000E947801882309F491CE0E9400008ECE67
:10196000AB28A9F468EE73E080E090E00E943A03AF
:1019700060E080E00E94DD0681E591E00E94A00623
:1019800061E080E00E94DD068DE691E0C4CF20E0BA
:1019900030E04CE052E4B101C8010E947C0E181600
:1019A0009CF6B6018AE00E94A302B60189E00E947B
:1019B000A30220E030E040E252E4B101C8010E94FD
:1019C0007C0E18160CF0C0CF68EE73E080E090E05B
:1019D0000E943A0360E080E00E94DD0681E591E02C
:1019E0000E94A00661E080E00E94DD068BE791E0A6
:1019F0000E94A00670E060E08AE00E94A30260916D
:101A000047027091480289E00E94A30261E08DE0E4
:101A10000E94440299CF1A3008F05ACD66CD505832
:101A2000BB27AA270E94270D0C94420E0E94340E59
:101A300038F00E943B0E20F039F49F3F19F426F451
:101A40000C94310E0EF4E095E7FB0C942B0EE92F6D
:101A50000E94530E58F3BA1762077307840795075D
:101A600020F079F4A6F50C94750E0EF4E0950B2E8B
:101A7000BA2FA02D0B01B90190010C01CA01A001E0
:101A80001124FF27591B99F0593F50F4503E68F13B
:101A90001A16F040A22F232F342F4427585FF3CF7C
:101AA000469537952795A795F0405395C9F77EF44D
:101AB0001F16BA0B620B730B840BBAF09150A1F096
:101AC000FF0FBB1F661F771F881FC2F70EC0BA0F1C
:101AD000621F731F841F48F4879577956795B795A4
:101AE000F7959E3F08F0B0CF9395880F08F099279F
:101AF000EE0F9795879508950E94900D0C94420ED5
:101B00000E943B0E58F00E94340E40F029F45F3FD3
:101B100029F00C942B0E51110C94760E0C94310E6E
:101B20000E94530E68F39923B1F3552391F3951B4B
:101B3000550BBB27AA2762177307840738F09F5FEE
:101B40005F4F220F331F441FAA1FA9F335D00E2E5B
:101B50003AF0E0E832D091505040E695001CCAF7C8
:101B60002BD0FE2F29D0660F771F881FBB1F26178B
:101B700037074807AB07B0E809F0BB0B802DBF0162
:101B8000FF2793585F4F3AF09E3F510578F00C9431
:101B90002B0E0C94760E5F3FE4F3983ED4F38695BB
:101BA00077956795B795F7959F5FC9F7880F911D52
:101BB0009695879597F90895E1E0660F771F881F3E
:101BC000BB1F621773078407BA0720F0621B730BF1
:101BD000840BBA0BEE1F88F7E0950895E89409C0CE
:101BE00097FB3EF490958095709561957F4F8F4F50
:101BF0009F4F9923A9F0F92F96E9BB279395F69566
:101C0000879577956795B795F111F8CFFAF4BB0FE3
:101C100011F460FF1BC06F5F7F4F8F4F9F4F16C047
:101C2000882311F096E911C0772321F09EE8872FD1
:101C3000762F05C0662371F096E8862F70E060E08D
:101C40002AF09A95660F771F881FDAF7880F969506
:101C5000879597F9089597F99F6780E870E060E0AD
:101C600008959FEF80EC089500240A941616170635
:101C700018060906089500240A941216130614067D
:101C800005060895092E0394000C11F4882352F0E0
:101C9000BB0F40F4BF2B11F460FF04C06F5F7F4F98
:101CA0008F4F9F4F089557FD9058440F551F59F07F
:101CB0005F3F71F04795880F97FB991F61F09F3F39
:101CC00079F087950895121613061406551FF2CF62
:101CD0004695F1DF08C0161617061806991FF1CFB2
:101CE00086957105610508940895E894BB276627D9
:101CF0007727CB0197F908950E94EE0E08F48FEF35
:101D000008950E94940E0C94420E0E94340E38F0F6
:101D10000E943B0E20F0952311F00C942B0E0C9496
:101D2000310E11240C94760E0E94530E70F3959F81
:101D3000C1F3950F50E0551F629FF001729FBB27C2
:101D4000F00DB11D639FAA27F00DB11DAA1F649F5E
:101D50006627B00DA11D661F829F2227B00DA11D11
:101D6000621F739FB00DA11D621F839FA00D611D97
:101D7000221F749F3327A00D611D231F849F600DB8
:101D8000211D822F762F6A2F11249F5750409AF0E1
:101D9000F1F088234AF0EE0FFF1FBB1F661F771F6D
:101DA000881F91505040A9F79E3F510580F00C9438
:101DB0002B0E0C94760E5F3FE4F3983ED4F3869599
:101DC00077956795B795F795E7959F5FC1F7FE2BD8
:101DD000880F911D9695879597F90895990F00089A
:101DE000550FAA0BE0E8FEEF16161706E807F907ED
:101DF000C0F012161306E407F50798F0621B730B88
:101E0000840B950B39F40A2661F0232B242B252B08
:101E100021F408950A2609F4A140A6958FEF811DAB
:101E2000811D0895EE0FFF1F0590F491E02D099498
:041E3000F894FFCF54
:101E34000A00000040001400540000000000AE013D
:101E44000E013B01FB016C014A015E010000000030
:101E54000906DC059D066C03D505C205B305000023
:101E6400000010070E019D069C0657656C636F6D9C
:101E74006520546F004172636164652047616D653C
:101E840000202020416C65727420212121005761BB
:101E94007465722044657465637465640046697290
:101EA4006520446574656374656400486F742044F8
:081EB400657465637465640048
:107E0000112484B714BE81FFF0D085E080938100F7
:107E100082E08093C00088E18093C10086E0809377
:107E2000C20080E18093C4008EE0C9D0259A86E02C
:107E300020E33CEF91E0309385002093840096BBD3
:107E4000B09BFECF1D9AA8958150A9F7CC24DD24C4
:107E500088248394B5E0AB2EA1E19A2EF3E0BF2EE7
:107E6000A2D0813461F49FD0082FAFD0023811F036
:107E7000013811F484E001C083E08DD089C08234E0
:107E800011F484E103C0853419F485E0A6D080C0E4
:107E9000853579F488D0E82EFF2485D0082F10E0AE
:107EA000102F00270E291F29000F111F8ED06801E7
:107EB0006FC0863521F484E090D080E0DECF843638
:107EC00009F040C070D06FD0082F6DD080E0C81688
:107ED00080E7D80618F4F601B7BEE895C0E0D1E017
:107EE00062D089930C17E1F7F0E0CF16F0E7DF06D8
:107EF00018F0F601B7BEE89568D007B600FCFDCFD4
:107F0000A601A0E0B1E02C9130E011968C91119780
:107F100090E0982F8827822B932B1296FA010C0160
:107F200087BEE89511244E5F5F4FF1E0A038BF0790
:107F300051F7F601A7BEE89507B600FCFDCF97BE46
:107F4000E89526C08437B1F42ED02DD0F82E2BD052
:107F50003CD0F601EF2C8F010F5F1F4F84911BD097
:107F6000EA94F801C1F70894C11CD11CFA94CF0C13
:107F7000D11C0EC0853739F428D08EE10CD085E9AC
:107F80000AD08FE07ACF813511F488E018D01DD067
:107F900080E101D065CF982F8091C00085FFFCCF94
:107FA0009093C60008958091C00087FFFCCF809118
:107FB000C00084FD01C0A8958091C6000895E0E648
:107FC000F0E098E1908380830895EDDF803219F02E
:107FD00088E0F5DFFFCF84E1DECF1F93182FE3DFCA
:107FE0001150E9F7F2DF1F91089580E0E8DFEE27F6
:047FF000FF270994CA
:027FFE00040479
:0400000300007E007B
:00000001FF
