:100000000C94E2000C940A010C940A010C940A016D
:100010000C940A010C940A010C940A010C940A0134
:100020000C940A010C940A010C940A010C940A0124
:100030000C940A010C940A010C940A010C940A0114
:100040000C948B070C940A010C9459070C943307F9
:100050000C940A010C940A010C940A010C940A01F4
:100060000C94D5070C940A01005EBCE2613FDD836D
:10007000C29C7E20A3FD1F419DC3217FFCA2401E88
:100080005F01E3BD3E6082DC237D9FC1421CFEA078
:10009000E1BF5D0380DE3C62BEE0025CDF81633D68
:1000A0007C22C09E1D43A1FF4618FAA427799BC558
:1000B00084DA3866E5BB5907DB856739BAE4065848
:1000C0001947A5FB7826C49A653BD987045AB8E638
:1000D000A7F91B45C6987A24F8A6441A99C7257B28
:1000E0003A6486D85B05E7B98CD2306EEDB3510F18
:1000F0004E10F2AC2F7193CD114FADF3702ECC9208
:10010000D38D6F31B2EC0E50AFF1134DCE90722CF7
:100110006D33D18F0C52B0EE326C8ED0530DEFB1E7
:10012000F0AE4C1291CF2D73CA947628ABF51749D7
:100130000856B4EA6937D58B5709EBB536688AD4C7
:1001400095CB2977F4AA4816E9B7550B88D6346AB7
:100150002B7597C94A14F6A8742AC896154BA9F7A7
:10016000B6E80A54D7896B35000000002400270048
:100170002A0000000000250028002B0000000008D5
:10018000000201000003040700000000000000005E
:1001900000000000230026002900040404040404D5
:1001A0000404020202020202030303030303010226
:1001B00004081020408001020408102001020408F5
:1001C0001020390911241FBECFEFD8E0DEBFCDBF0C
:1001D00011E0A0E0B1E0EEECF0E202C005900D927B
:1001E000AA3CB107D9F723E0AAECB1E001C01D9207
:1001F000A836B207E1F710E0C2EED0E004C02197C4
:10020000FE010E945F10C13ED107C9F70E94E709B5
:100210000C9465100C94000008950895AF92BF925D
:10022000CF92DF92EF92FF920F931F93CF93DF93C2
:100230006C017B018B01040F151FEB015E01AE18F1
:10024000BF08C017D10759F06991D601ED91FC9113
:100250000190F081E02DC6010995892B79F7C50140
:10026000DF91CF911F910F91FF90EF90DF90CF9092
:10027000BF90AF900895FC01538D448D252F30E041
:10028000842F90E0821B930B541710F0CF960895A3
:1002900001970895FC01918D828D981761F0A28DD0
:1002A000AE0FBF2FB11D5D968C91928D9F5F9F7396
:1002B000928F90E008958FEF9FEF0895FC01918D4C
:1002C000828D981731F0828DE80FF11D858D90E0B9
:1002D00008958FEF9FEF0895FC01918D228D892F56
:1002E00090E0805C9F4F821B91098F73992708953E
:1002F0008DE892E00E946C0121E0892B09F420E056
:10030000822F089580E090E0892B29F00E947801E7
:1003100081110C9400000895FC01A48DA80FB92F41
:10032000B11DA35ABF4F2C91848D90E001968F731D
:100330009927848FA689B7892C93A089B1898C913C
:10034000837080648C93938D848D981306C002888B
:10035000F389E02D80818F7D80830895EF92FF9255
:100360000F931F93CF93DF93EC0181E0888F9B8DD8
:100370008C8D98131AC0E889F989808185FF15C092
:100380009FB7F894EE89FF896083E889F9898081B5
:100390008370806480839FBF81E090E0DF91CF9184
:1003A0001F910F91FF90EF900895F62E0B8D10E0A6
:1003B0000F5F1F4F0F731127E02E8C8D8E110CC015
:1003C0000FB607FCFACFE889F989808185FFF5CF60
:1003D000CE010E948C01F1CFEB8DEC0FFD2FF11DB2
:1003E000E35AFF4FF0829FB7F8940B8FEA89FB899D
:1003F00080818062CFCFCF93DF93EC01888D8823FB
:10040000B9F0AA89BB89E889F9898C9185FD03C077
:10041000808186FD0DC00FB607FCF7CF8C9185FF5C
:10042000F2CF808185FFEDCFCE010E948C01E9CF14
:10043000DF91CF910895833081F028F4813099F0D5
:100440008230A9F008958730A9F08830C9F084304F
:10045000B1F4809180008F7D03C0809180008F7700
:1004600080938000089584B58F7784BD089584B506
:100470008F7DFBCF8091B0008F778093B00008957F
:100480008091B0008F7DF9CF1F93CF93DF93282FFA
:1004900030E0F901E458FE4F8491F901E255FE4F36
:1004A000D491F901E656FE4FC491CC23A9F0162F42
:1004B00081110E941B02EC2FF0E0EE0FFF1FEE589F
:1004C000FE4FA591B4918FB7F894EC91111108C02B
:1004D000D095DE23DC938FBFDF91CF911F910895DC
:1004E000DE2BF8CFCF93DF9390E0FC01E255FE4F77
:1004F000249186569E4FFC0184918823D1F090E090
:10050000880F991FFC01E859FE4FA591B491FC0199
:10051000EE58FE4FC591D49161110EC09FB7F8946B
:100520008C91E22FE0958E238C932881E223E8833F
:100530009FBFDF91CF9108958FB7F894EC91E22B94
:10054000EC938FBFF6CF1F93CF93DF93182FEB0160
:1005500061E00E947202209739F460E0812FDF9100
:10056000CF911F910C944402CF3FD10511F461E06B
:10057000F5CFE12FF0E0E458FE4FE491E33031F1A4
:1005800040F4E130B1F0E230E1F0C038D1057CF761
:10059000E4CFE73029F1E83059F1E430B1F7809148
:1005A0008000806280938000D0938B00C0938A008B
:1005B00004C084B5806884BDC7BDDF91CF911F9111
:1005C000089584B5806284BDC8BDF7CF8091800056
:1005D000806880938000D0938900C0938800EDCF1D
:1005E0008091B00080688093B000C093B300E5CFE5
:1005F0008091B00080628093B000C093B400DDCFE2
:10060000BC018091360390913703009719F0019750
:1006100051F00895809138030E94A30260E0809118
:1006200039030C944402809138030E94A30270E0C5
:1006300060E0809139030C94A3028E3008F08E5054
:100640008770806480937C0080917A0080648093BE
:100650007A0080917A0086FDFCCF8091780090919D
:10066000790008953FB7F8948091780290917902CB
:10067000A0917A02B0917B0226B5A89B05C02F3FBE
:1006800019F00196A11DB11D3FBFBA2FA92F982FB8
:100690008827BC01CD01620F711D811D911D42E0B3
:1006A000660F771F881F991F4A95D1F708958F927B
:1006B0009F92AF92BF92CF92DF92EF92FF924B0147
:1006C0005C010E9432036B017C010E9432036C19B1
:1006D0007D098E099F09683E734081059105A8F345
:1006E00021E0821A9108A108B10888EEC80E83E0C3
:1006F000D81EE11CF11C81149104A104B10429F756
:10070000FF90EF90DF90CF90BF90AF909F908F9031
:1007100008950895DC0180E0615038F0ED91E827FC
:10072000F0E0E859FF4F8491F7CF0895DC012C9158
:100730001196ED91FC91F8948181822B81839281B5
:10074000322F30959323928387E090E00197F1F761
:1007500081818323818383E290E00197F1F7908187
:100760007894EFECF0E03197F1F7922381E009F40F
:1007700080E00895EF92FF920F931F93CF93DF9342
:100780007C0108E010E0C0E0D1E0C7010E949603C0
:100790008111CD2BDD0F01501109B9F78C2FDF919D
:1007A000CF911F910F91FF90EF900895FC019081E0
:1007B0000180F281E02D292F209560FF14C0F8946C
:1007C0008281822382838181892B8183A3E2B0E0AD
:1007D0001197F1F78281982B9283789487ED90E0BE
:1007E0000197F1F70895F8948281822382838181B1
:1007F000892B8183AFEFB0E01197F1F78281982BBD
:10080000928378948FE090E0EBCFDF92EF92FF92AB
:100810000F931F93CF93DF93EC01D62EE42E08E0C5
:1008200010E0FF24F39461E08D2D8F2109F460E046
:10083000CE010E94D603FF0C01501109A1F7E1106F
:1008400010C0F894E981FA8191818881809589238B
:100850008183E981FA8192818881809589238283CD
:100860007894DF91CF911F910F91FF90EF90DF90DF
:100870000895EF92FF920F931F93CF93DF938C0114
:100880007B0140E065E50E940504E70188E0E80E91
:10089000F11C699140E0C8010E940504CE15DF05F6
:1008A000C1F7DF91CF911F910F91FF90EF900895C5
:1008B000FC0190810180F281E02DF8948181292F43
:1008C00020958223818378943DE743E050E03150C6
:1008D00029F1DA011197F1F780818923C1F3F894A6
:1008E0008281822382838181892B81837894ABE703
:1008F000B7E01197F1F7F894818182238183A3E116
:10090000B1E01197F1F78081982381E009F080E050
:100910007894E3E6F6E03197F1F7089580E00895E2
:10092000EF92FF920F931F93CF93DF937C018B0184
:10093000CAE3D3E08D819E810E945804B7018D8166
:100940009E810E94390440E06EEB8D819E810E9461
:1009500005048D819E810E94BA03F80180838D81F8
:100960009E810E94BA03F80181838D819E810E943D
:10097000BA03F80182838D819E810E94BA03F80137
:1009800083838D819E810E94BA03F80184838D81C7
:100990009E810E94BA03F80185838D819E810E9409
:1009A000BA03F80186838D819E810E94BA03F80103
:1009B00087838D819E810E94BA03F80180878D8193
:1009C0009E81DF91CF911F910F91FF90EF900C943A
:1009D0005804CF93DF93CDB7DEB729970FB6F894BD
:1009E000DEBF0FBECDBFBE016F5F7F4F0E94900480
:1009F00068E0CE0101960E948A039985891306C09A
:100A00008D818F33A9F020F48F31A1F080E007C0F1
:100A10008F3521F08F37D1F78CE001C08BE029961C
:100A20000FB6F894DEBF0FBECDBFDF91CF91089512
:100A30008AE0F5CF89E0F3CFBF92CF92DF92EF92B9
:100A4000FF920F931F93CF93DF93EC01B62EC72E27
:100A5000ED84EE2081F01B861D861C8680E02396A7
:100A6000EB2DFC2D9F01285F3F4F999191932E17FD
:100A70003F07D9F707C00E94580481110DC01B869B
:100A80001D861C86DF91CF911F910F91FF90EF90F3
:100A9000DF90CF90BF90089540E060EFCE010E94BC
:100AA0000504D12C01E011E0CE010E949603F82E3E
:100AB000CE010E94960391E0F9120EC0813049F5F3
:100AC000113448F2EB86E11002C081E08D878B8102
:100AD000882309F281E0C3CFED2DF0E0F8120FC0BA
:100AE0008B851817A0F4DE01AE0FBF1F13968C91F3
:100AF000802379F4F12C193008F41C87E12EEC0FD7
:100B0000FD1F8381902F9095892383830AC08113D1
:100B1000F1CFFE01ED0DF11D8381802B8383FF2436
:100B2000F3946F2DCE010E94D6031F5F000F11F4C6
:100B3000D39401E087E08D1508F0B6CFC1CF85EDE5
:100B40008093BC008091BC0084FDFCCF1092820297
:100B5000089520912C02260F3327331F21323105AF
:100B6000ECF420918202FC0190E080E0243069F0F6
:100B700082E00895A0912C022191AC01445F5D4F69
:100B8000A40FB52FB11D2C930196861798F3809171
:100B90002C02680F60932C0280E0089581E0089594
:100BA000E091860280918502E81730F4F0E0E4518C
:100BB000FE4F808190E008958FEF9FEF0895909110
:100BC0008602809185022FEF3FEF981748F4E92FB6
:100BD000F0E0E451FE4F208130E09F5F9093860269
:100BE000C90108958091850290918602891B990B15
:100BF0000895CF92DF92EF92FF920F931F93CF93BE
:100C0000DF937C01CB018A012091EB01222389F043
:100C1000EB016B01C40ED51ECC15DD0569F06991A1
:100C2000D701ED91FC910190F081E02DC70109956C
:100C3000F3CF642F0E94A905C801DF91CF911F91C6
:100C40000F91FF90EF90DF90CF900895CF93DF93B7
:100C50001F92CDB7DEB769832091EB012223F9F013
:100C600020918302203258F021E030E0FC013383F0
:100C7000228390E080E00F90DF91CF9108958091E2
:100C80008402E82FF0E0E553FE4F998190838F5F57
:100C9000809384028093830281E090E0ECCF61E056
:100CA000CE0101960E94A905F7CFCF93FC01C48124
:100CB00021E02093EB01C093CA01109284021092AC
:100CC00083028485682B8AE293E00E942606909135
:100CD0008302913208F03FC0809182028111FCCFE3
:100CE00082E08093820281E0809381028FEF809383
:100CF0004F021092710290937002ABECB1E0E0E50C
:100D0000F2E080E098132FC010927202809172027C
:100D1000CC0FC82BC093720280918002813039F5CC
:100D200010928002809172028093BB008091BC007F
:100D300083FDF8CF85EC8093BC00809182028230E5
:100D4000E1F380914F028F3F31F080914F0280326A
:100D500011F080914F02109284021092830210923F
:100D6000EB01CF9108952D9121938F5FCBCF85EE2D
:100D7000E2CF089590E080E00895FC01019000200A
:100D8000E9F73197AF01481B590BBC018BE593E0A4
:100D90000C940E010F931F93CF938C01C62F0E94CA
:100DA00055066C2F6460C8010E9455066C2F6B7F3E
:100DB000C8010E94550683EC90E00197F1F7CF91AE
:100DC0001F910F9108950F931F93CF93DF938C0181
:100DD000D62FC42F607F642B0E94CA0680E1D89F63
:100DE000B00111246C2BC801DF91CF911F910F919D
:100DF0000C94CA06CF93DF93CDB7DEB728970FB612
:100E0000F894DEBF0FBECDBF98E0E2E0F1E0DE0176
:100E1000119601900D929A95E1F7909163039617C0
:100E200008F46FEF262F30E0220F331F41E050E02F
:100E30004C0F5D1F240F351FF9016081680F60683A
:100E400040E08BE593E028960FB6F894DEBF0FBE26
:100E5000CDBFDF91CF910C94E30641E00E94E30601
:100E600081E090E008951F920F920FB60F92112427
:100E70002F933F934F935F936F937F938F939F93A2
:100E8000AF93BF93EF93FF938DE892E00E948C01A4
:100E9000FF91EF91BF91AF919F918F917F916F9152
:100EA0005F914F913F912F910F900FBE0F901F9028
:100EB00018951F920F920FB60F9211242F938F93B4
:100EC0009F93EF93FF93E0919D02F0919E028081AA
:100ED000E091A302F091A40282FD1BC09081809159
:100EE000A6028F5F8F732091A702821741F0E091D5
:100EF000A602F0E0E357FD4F958F8093A602FF9185
:100F0000EF919F918F912F910F900FBE0F901F9097
:100F100018958081F4CF1F920F920FB60F92112473
:100F20002F933F938F939F93AF93BF9380917402BE
:100F300090917502A0917602B09177023091730280
:100F400023E0230F2D3758F50196A11DB11D2093E5
:100F500073028093740290937502A0937602B0930B
:100F600077028091780290917902A0917A02B091F3
:100F70007B020196A11DB11D8093780290937902A6
:100F8000A0937A02B0937B02BF91AF919F918F9112
:100F90003F912F910F900FBE0F901F90189526E84C
:100FA000230F0296A11DB11DD2CF1F920F920FB633
:100FB0000F9211242F933F934F935F936F937F93DF
:100FC0008F939F93AF93BF93EF93FF938091B9005B
:100FD000887F803609F44AC0F0F5883209F4A7C04A
:100FE00018F5803109F49BC0B8F4882309F4F9C0DE
:100FF000883009F494C0FF91EF91BF91AF919F9118
:101000008F917F916F915F914F913F912F910F90B1
:101010000FBE0F901F901895883109F488C0803258
:1010200051F780934F0214C0803409F49DC040F4FE
:101030008033B9F38833F9F680934F0285ECB0C062
:10104000803509F485C0883509F496C0883499F64E
:101050000E949F05D0CF883909F48CC038F58837B5
:1010600029F050F4883611F0803729F683E0809318
:10107000820210924E0257C0883809F47BC0803932
:1010800019F0803809F0B7CF80914E02803208F015
:1010900071C0E0914E0281E08E0F80934E028091EC
:1010A000BB00F0E0E25DFD4F80833DC0803B39F046
:1010B000E0F4803A09F479C0883A09F09CCF84E0E2
:1010C0008093820210922D0210922C02E0917E02F7
:1010D000F0917F02099580912C0281110FC081E06F
:1010E00080932C0210920C0209C0803C09F4A6CF18
:1010F000883C09F4A3CF883B09F07DCFE0912D0215
:1011000081E08E0F80932D02F0E0E45FFD4F80813F
:101110008093BB0090912D0280912C0229C0809178
:1011200072028093BB0085EC8093BC0064CF9091E9
:10113000710280917002981758F5E091710281E078
:101140008E0F80937102F0E0E05BFD4F8081E9CF6C
:10115000E091710281E08E0F809371028091BB005B
:10116000F0E0E05BFD4F808390917102809170020E
:101170009817C8F285E8D8CFE091710281E08E0F10
:10118000809371028091BB00F0E0E05BFD4F8083B3
:101190008091810281115CCF81E08093800284EA9A
:1011A0008093BC001092820226CF85EC8093BC0015
:1011B0001092820280914E02803230F4E0914E0211
:1011C000F0E0E25DFD4F108260914E0270E0E09130
:1011D0007C02F0917D028EE292E0099510924E021F
:1011E0000ACF10924F0234CFCF92DF92EF92FF924C
:1011F0000F931F93E82FF92F05C001501109210902
:10120000310961F1908196239417B9F305C001501B
:1012100011092109310911F1908196239413F7CF17
:10122000C12CD12CE12CF12C0AC08FEFC81AD80A9E
:10123000E80AF80A0C151D052E053F0579F0808196
:101240008623841791F36C2D7D2D8E2D9F2D1F915C
:101250000F91FF90EF90DF90CF90089560E070E0E5
:1012600080E090E01F910F91FF90EF90DF90CF9082
:101270000895CF93DF93EDE8F2E01382128288EEB7
:1012800093E0A0E0B0E084839583A683B7832EE04B
:1012900031E03183208325EC30E03587248724EC4E
:1012A00030E03787268720EC30E0318B208B21EC33
:1012B00030E0338B228B22EC30E0358B248B26EC14
:1012C00030E0378B268B118E128E138E148EEAE24D
:1012D000F3E01382128284839583A683B78380E22E
:1012E00091E091838083EBE5F3E01382128282E345
:1012F00091E091838083118687E2848380E18287F5
:1013000082E08387148660E087E00E947202E5EB4A
:10131000F1E0E491ADE4B3E0EC93E1EAF1E0E491D3
:10132000F0E0EE0FFF1FE057FE4F8591949112966B
:101330009C938E9311971B961C921B971D961C9243
:101340001D971C961C921C971A961C921A97199618
:101350001C92199718961C92189717961C9217971B
:1013600016961C92169715961C92159714961C9219
:10137000149713961C921397EAE3F3E089E893E03D
:10138000928B818BB683A5831482108289E081833E
:1013900081E082838383C6E3D3E081E090E0998398
:1013A000888388E08A8383E08B8361E088E00E9401
:1013B000720261E08B810E94720260E08A810E9469
:1013C000440260E08B81DF91CF910C944402CF9373
:1013D000DF93CDB7DEB761970FB6F894DEBF0FBECF
:1013E000CDBF789484B5826084BD84B5816084BDAE
:1013F00085B5826085BD85B5816085BD80916E00B3
:10140000816080936E0010928100809181008260E3
:101410008093810080918100816080938100809120
:1014200080008160809380008091B100846080930F
:10143000B1008091B00081608093B00080917A000B
:10144000846080937A0080917A00826080937A0031
:1014500080917A00816080937A0080917A00806820
:1014600080937A001092C10061E089E00E947202CC
:1014700061E08AE00E94720261E08BE00E947202E9
:1014800060E08CE00E94720261E08DE00E947202D6
:1014900061E085E00E94720260E086E00E947202D4
:1014A000E0919D02F0919E0282E08083E09199029A
:1014B000F0919A021082E0919B02F0919C028FECD5
:1014C00080831092A502E091A102F091A20286E031
:1014D0008083E0919F02F091A002808180618083EF
:1014E000E0919F02F091A002808188608083E0916A
:1014F0009F02F091A002808180688083E0919F022A
:10150000F091A00280818F7D80836FEF70E08AE090
:101510000E94A302E0913F03F091400313861586D9
:1015200014861286118610861782168215821482FE
:10153000138210923E0301E0BE01665F7F4F8091EF
:101540003F03909140030E941C05882309F45BC06F
:1015500067E0CE010A960E948A0399898913ECCF2D
:1015600080913A03811128C080913F0390914003FC
:101570000E945804BE01665F7F4F80913F039091A7
:1015800040030E94390440E064EB80913F03909156
:1015900040030E94050480913F03909140030E9404
:1015A0009603182F80913F03909140030E945804A6
:1015B000111102C000933A03BE016F5F7F4FCE014D
:1015C0000A960E94900410913B038A85803109F4A9
:1015D00039C3CE010A960E94E904811750F4809124
:1015E0003B0380933B0380913E038F5F80933E03D8
:1015F000A3CF8A85803111F489E0F3CFCE010A961A
:101600000E94E904EECF1092860210928502109299
:101610008402109283021092820281E08093810200
:101620001092800261E082E10E94440261E083E165
:101630000E9444028091B9008E7F8093B90080910E
:10164000B9008D7F8093B90088E48093B80085E469
:101650008093BC008CE091E090937F0280937E02A7
:101660008DE091E090937D0280937C021092600364
:1016700080916603823018F098E090936003809325
:10168000630362E370E080E090E00E9457036091A2
:1016900067038BE593E00E94550668EE73E080E0F7
:1016A00090E00E94570360E38BE593E00E94CA0636
:1016B0000BE416E4C8010197F1F760E38BE593E0D2
:1016C0000E94CA06C8010197F1F760E38BE593E039
:1016D0000E94CA0683E592E00197F1F760E28BE58C
:1016E00093E00E94CA0660916003606240E08BE56F
:1016F00093E00E94E30684E08093610340E06CE0A5
:101700008BE593E00E94E30640E061E08BE593E027
:101710000E94E3068BE39FE10197F1F78091640358
:10172000882321F060E080E00E94FA0682E0809346
:10173000620340E066E08BE593E00E94E30640E050
:1017400062E08BE593E00E94E3068BE39FE1019763
:10175000F1F788E08093670360E08BE593E00E94F7
:10176000550660E081E00E94FA068AE391E00E945B
:10177000BD0661E083E00E94FA0685E491E00E94E4
:10178000BD0613E2212E312C00E0402E00E0502E49
:1017900080E10E941D0397FD0396BC017595679536
:1017A0007595679570938C0260938B028091000110
:1017B0000E94A3028EE00E941D0390938A028093F0
:1017C0008902E8E8F1E08491EAEBF1E01491E6EABD
:1017D000F1E00491912C812C002399F081110E9459
:1017E0001B02E02FF0E0EE0FFF1FE057FE4FA59128
:1017F000B4918C91182391E080E009F490E0892E57
:10180000982E80913F03909140030E94580440E03D
:101810006CEC80913F03909140030E94050440913D
:101820003A0364E480913F03909140030E940504D1
:1018300080913C03882389F080913B038A3009F42E
:1018400078C08B3009F47AC0893009F07CC06EE52D
:1018500070E080E090E00E945703E0913F03F09138
:101860004003138615861486128611861086178209
:101870001682158214821382BE01665F7F4F8091AB
:101880003F03909140030E941C05882329F067E0E4
:10189000CE010A960E948A03BE016F5F7F4FCE0180
:1018A0000A960E94900468E0CE0101960E948A0385
:1018B000998589139CC009811A818A85823209F42D
:1018C00047C0883209F444C0803109F047C0F88429
:1018D0008F812F2D281B330BB901072E000C880B8D
:1018E000990B0E943D0F5B016C016F2D70E090E041
:1018F00080E00E943B0F9B01AC01C601B5010E9434
:10190000930E6B017C01B80175956795072E000C4D
:10191000880B990B0E943D0F20E030E040E85EE329
:101920000E94260E9B01AC01C701B6010E94270E42
:101930002AC06CEB70E080E090E08DCF67E771E04B
:1019400080E090E088CF6EEE72E080E090E083CFA0
:101950008D818F3359F138F48F31C1F16F2C7E2C8A
:10196000AD2CBC2C4AC08F3599F08F37B9F7B80130
:10197000110F880B990B0E943D0F20E030E040E8EA
:101980005DE30E94CE0FF62EE72ED82EC92EE6CFAD
:10199000B80175956795072E000C880B990B0E946E
:1019A0003D0F20E030E040E05EE3EBCFB8017595FD
:1019B000679575956795072E000C880B990B0E940B
:1019C0003D0F20E030E040E85EE3DBCFB80143E0CC
:1019D000759567954A95E1F7072E000C880B990BD2
:1019E0000E943D0F20E030E040E05FE3CACF612C71
:1019F000712C9EEFA92E22ECB22E60E085E00E94B1
:101A0000440283E090E00197F1F761E085E00E94F5
:101A10004402C1010197F1F760E085E00E944402B1
:101A2000E4EBF1E06491E0EAF1E08491E82FF0E08A
:101A3000EE0FFF1FE057FE4F8591949100E412E4F2
:101A40002FE030E0462F0E94F408611571058105F2
:101A5000910529F06F5F7F4F8F4F9F4F9F700E94BE
:101A60003D0F26E933E44BE05DE30E94CE0F20E01A
:101A700030E040E05FE30E94CE0F0E94050F8B0133
:101A800070938802609387028091890290918A0204
:101A90000B97CCF168EE73E080E090E00E94570372
:101AA00060E080E00E94FA0681E591E00E94BD06B8
:101AB00061E080E00E94FA068EE591E00E94BD069A
:101AC00070E060E08AE00E94A30260918B02709156
:101AD0008C0289E00E94A30261E08DE00E94440232
:101AE00089E00E941D03909301018093000141143D
:101AF000510409F44DCE0E947801882309F448CEA0
:101B00000E94000045CE8928A9F468EE73E080E0C9
:101B100090E00E94570360E080E00E94FA0681E5B1
:101B200091E00E94BD0661E080E00E94FA068DE629
:101B300091E0C4CF20E030E04CE052E4B301C501B5
:101B40000E94C90F18160CF06AC068EE73E080E0BE
:101B500090E00E94570380908B0290908C02B40119
:101B60008AE00E94A302B40189E00E94A30268EE09
:101B700073E080E090E00E94570380E890E00E94CC
:101B8000000320E030E040E252E4B301C5010E94CE
:101B9000C90F18167CF590E080E00E94000368EE03
:101BA00073E080E090E00E94570360E080E00E94D4
:101BB000FA0681E591E00E94BD0661E080E00E94A6
:101BC000FA068BE791E00E94BD0690E080E00E945B
:101BD000000370E060E08AE00E94A30260918B0243
:101BE00070918C0289E00E94A30261E08DE00E9466
:101BF00044027DCF0F3011050CF079CF60E080E01A
:101C00000E94FA0688E891E00E94BD0661E080E04B
:101C10000E94FA068BE991E00E94BD0668CF0F3062
:101C200011050CF064CF60E080E00E94FA0688EABB
:101C300091E00E94BD0661E080E00E94FA0688EB18
:101C400091E0EACF1A3008F0CACCD6CC5058BB2766
:101C5000AA270E943E0E0C948F0F0E94810F38F02D
:101C60000E94880F20F039F49F3F19F426F40C9459
:101C70007E0F0EF4E095E7FB0C94780FE92F0E949D
:101C8000A00F58F3BA17620773078407950720F06F
:101C900079F4A6F50C94C20F0EF4E0950B2EBA2F32
:101CA000A02D0B01B90190010C01CA01A001112462
:101CB000FF27591B99F0593F50F4503E68F11A160E
:101CC000F040A22F232F342F4427585FF3CF46959F
:101CD00037952795A795F0405395C9F77EF41F16C1
:101CE000BA0B620B730B840BBAF09150A1F0FF0F8B
:101CF000BB1F661F771F881FC2F70EC0BA0F621F77
:101D0000731F841F48F4879577956795B795F79566
:101D10009E3F08F0B0CF9395880F08F09927EE0FFB
:101D20009795879508950E94A70E0C948F0F0E9497
:101D3000880F58F00E94810F40F029F45F3F29F08E
:101D40000C94780F51110C94C30F0C947E0F0E94C9
:101D5000A00F68F39923B1F3552391F3951B550B0D
:101D6000BB27AA2762177307840738F09F5F5F4F6E
:101D7000220F331F441FAA1FA9F335D00E2E3AF0AD
:101D8000E0E832D091505040E695001CCAF72BD0C5
:101D9000FE2F29D0660F771F881FBB1F2617370716
:101DA0004807AB07B0E809F0BB0B802DBF01FF2748
:101DB00093585F4F3AF09E3F510578F00C94780F9E
:101DC0000C94C30F5F3FE4F3983ED4F38695779568
:101DD0006795B795F7959F5FC9F7880F911D969501
:101DE000879597F90895E1E0660F771F881FBB1F5D
:101DF000621773078407BA0720F0621B730B840B0A
:101E0000BA0BEE1F88F7E09508950E940C0F6894B6
:101E1000B1110C94C30F08950E94A80F88F09F572A
:101E200098F0B92F9927B751B0F0E1F0660F771FFE
:101E3000881F991F1AF0BA95C9F714C0B13091F0F4
:101E40000E94C20FB1E008950C94C20F672F782F43
:101E50008827B85F39F0B93FCCF3869577956795B9
:101E6000B395D9F73EF490958095709561957F4F25
:101E70008F4F9F4F0895E89409C097FB3EF49095CB
:101E80008095709561957F4F8F4F9F4F9923A9F053
:101E9000F92F96E9BB279395F695879577956795E2
:101EA000B795F111F8CFFAF4BB0F11F460FF1BC026
:101EB0006F5F7F4F8F4F9F4F16C0882311F096E9B9
:101EC00011C0772321F09EE8872F762F05C0662367
:101ED00071F096E8862F70E060E02AF09A95660F20
:101EE000771F881FDAF7880F9695879597F90895D9
:101EF00097F99F6780E870E060E008959FEF80ECBD
:101F0000089500240A94161617061806090608955F
:101F100000240A9412161306140605060895092EC5
:101F20000394000C11F4882352F0BB0F40F4BF2B34
:101F300011F460FF04C06F5F7F4F8F4F9F4F089574
:101F400057FD9058440F551F59F05F3F71F047956A
:101F5000880F97FB991F61F09F3F79F0879508954F
:101F6000121613061406551FF2CF4695F1DF08C06E
:101F7000161617061806991FF1CF8695710561058B
:101F800008940895E894BB2766277727CB0197F933
:101F900008950E943B1008F48FEF08950E94E10F0E
:101FA0000C948F0F0E94810F38F00E94880F20F050
:101FB000952311F00C94780F0C947E0F11240C943F
:101FC000C30F0E94A00F70F3959FC1F3950F50E0CF
:101FD000551F629FF001729FBB27F00DB11D639FDB
:101FE000AA27F00DB11DAA1F649F6627B00DA11D81
:101FF000661F829F2227B00DA11D621F739FB00D27
:10200000A11D621F839FA00D611D221F749F332796
:10201000A00D611D231F849F600D211D822F762F2F
:102020006A2F11249F5750409AF0F1F088234AF00C
:10203000EE0FFF1FBB1F661F771F881F9150504078
:10204000A9F79E3F510580F00C94780F0C94C30FB4
:102050005F3FE4F3983ED4F3869577956795B795FF
:10206000F795E7959F5FC1F7FE2B880F911D969519
:10207000879597F90895990F0008550FAA0BE0E886
:10208000FEEF16161706E807F907C0F0121613063A
:10209000E407F50798F0621B730B840B950B39F47A
:1020A0000A2661F0232B242B252B21F408950A26E0
:1020B00009F4A140A6958FEF811D811D0895EE0FB3
:0E20C000FF1F0590F491E02D0994F894FFCFD6
:1020CE000A00000040001400540000000000AE01A1
:1020DE000E013B01FB016C014A015E010000000094
:1020EE002606F905BA068903F205DF05D0050000BC
:1020FE0000002D070E01BA06B90657656C636F6DA9
:10210E006520546F004172636164652047616D659F
:10211E0000202020416C657274202121210057611E
:10212E0074657220446574656374656400466972F3
:10213E006520446574656374656400486F7420445B
:10214E006574656374656400537461747573203CC3
:10215E00207761726E696E67203E0042657761720C
:10216E0065203A20486F7400537461747573203C77
:10217E002053616665203E00457665727974686904
:0A218E006E6720436C65617200006B
:00000001FF
