:100000000C945D000C947A000C947A000C947A00A5
:100010000C947A000C947A000C947A000C947A0078
:100020000C947A000C947A000C947A000C947A0068
:100030000C947A000C947A000C947A000C947A0058
:100040000C94DA010C947A000C947A000C947A00E7
:100050000C947A000C947A000C947A000C947A0038
:100060000C947A000C947A00000000080002010051
:100070000003040700000000000000000000000072
:10008000250028002B0000000000240027002A0083
:10009000040404040404040402020202020203032E
:1000A0000303030301020408102040800102040836
:1000B0001020010204081020920211241FBECFEF6D
:1000C000D8E0DEBFCDBF21E0A0E0B1E001C01D92CD
:1000D000AD30B207E1F710E0CDE5D0E004C02197E4
:1000E000FE010E94AE02CC35D107C9F70E9424025E
:1000F0000C94B4020C94000090E0FC01EC55FF4F0E
:10010000249180579F4FFC018491882399F090E0BF
:10011000880F991FFC01EA57FF4FA591B491FC018C
:10012000E458FF4F859194918FB7F894EC91E22BAE
:10013000EC938FBF089590E0FC01E859FF4F2491A4
:10014000FC01EC55FF4F3491FC01E057FF4FE49167
:10015000EE23C9F0222339F0233001F1A8F4213035
:1001600019F1223029F1F0E0EE0FFF1FE458FF4FA4
:10017000A591B4918FB7F894EC91611126C0309598
:100180003E233C938FBF08952730A9F02830C9F053
:10019000243049F7809180008F7D03C080918000DA
:1001A0008F7780938000DFCF84B58F7784BDDBCFDE
:1001B00084B58F7DFBCF8091B0008F778093B000A6
:1001C000D2CF8091B0008F7DF9CF3E2BDACF1F9335
:1001D000CF93DF93182FEB010E947C00209739F416
:1001E00060E0812FDF91CF911F910C949B00CF3F56
:1001F000D10511F461E0F5CFE12FF0E0E859FF4FB0
:10020000E491E33031F140F4E130B1F0E230E1F07B
:10021000C038D1057CF7E4CFE73029F1E83059F157
:10022000E430B1F780918000806280938000D093A9
:100230008B00C0938A0004C084B5806884BDC7BDAC
:10024000DF91CF911F91089584B5806284BDC8BDB0
:10025000F7CF80918000806880938000D0938900E0
:10026000C0938800EDCF8091B00080688093B0008B
:10027000C093B300E5CF8091B00080628093B0005E
:10028000C093B400DDCFCF93DF93EC0180910901DF
:1002900090910A01009729F00197C9F0DF91CF9161
:1002A000089580910B01D7FD0AC0BE010E94E700AE
:1002B00060E080910C01DF91CF910C949B00662748
:1002C00077276C1B7D0B0E94E70061E0F2CF8091E5
:1002D0000B01D7FD0BC0BE010E94E70070E060E09B
:1002E00080910C01DF91CF910C94E70070E060E009
:1002F0000E94E700662777276C1B7D0BF1CF3FB785
:10030000F8948091050190910601A0910701B091A8
:10031000080126B5A89B05C02F3F19F00196A11D25
:10032000B11D3FBFBA2FA92F982F8827BC01CD013F
:10033000620F711D811D911D42E0660F771F881F9E
:10034000991F4A95D1F708958F929F92AF92BF92CD
:10035000CF92DF92EF92FF920E947F014B015C01EE
:1003600088EEC82E83E0D82EE12CF12C0E947F016C
:10037000681979098A099B09683E734081059105CE
:10038000A8F321E0C21AD108E108F10888EE880E2E
:1003900083E0981EA11CB11CC114D104E104F10436
:1003A00029F7FF90EF90DF90CF90BF90AF909F9094
:1003B0008F9008951F920F920FB60F9211242F93D2
:1003C0003F938F939F93AF93BF938091010190913F
:1003D0000201A0910301B09104013091000123E0DA
:1003E000230F2D3758F50196A11DB11D2093000153
:1003F0008093010190930201A0930301B093040143
:100400008091050190910601A0910701B09108012A
:100410000196A11DB11D8093050190930601A09343
:100420000701B0930801BF91AF919F918F913F91C8
:100430002F910F900FBE0F901F90189526E8230F55
:100440000296A11DB11DD2CF789484B5826084BD7F
:1004500084B5816084BD85B5826085BD85B58160C8
:1004600085BD80916E00816080936E001092810046
:100470008091810082608093810080918100816001
:1004800080938100809180008160809380008091C2
:10049000B10084608093B1008091B000816080934E
:1004A000B00080917A00846080937A0080917A0015
:1004B000826080937A0080917A00816080937A00D4
:1004C00080917A00806880937A001092C100C0E029
:1004D000D0E080E890E00E9443010E94A4018FEFE9
:1004E00090E00E9443010E94A40190E080E00E94FD
:1004F00043010E94A40180E89FEF0E9443010E94F3
:10050000A40181E09FEF0E9443010E94A40190E0BA
:1005100080E00E9443010E94A4012097D1F20E9432
:100520000000D7CFCF93DF93C9E0D1E081E090E026
:100530009983888388E08A8383E08B8388E00E94A4
:100540007C008B810E947C0060E08A810E949B007D
:1005500060E08B81DF91CF910C949B00EE0FFF1F29
:0C0560000590F491E02D0994F894FFCF71
:00000001FF
